{
  "contractName": "ArtistToken",
  "abi": [
    {
      "constant": true,
      "inputs": [
        {
          "name": "_tokenId",
          "type": "uint256"
        }
      ],
      "name": "getApproved",
      "outputs": [
        {
          "name": "",
          "type": "address"
        }
      ],
      "payable": false,
      "stateMutability": "view",
      "type": "function"
    },
    {
      "constant": false,
      "inputs": [
        {
          "name": "_to",
          "type": "address"
        },
        {
          "name": "_tokenId",
          "type": "uint256"
        }
      ],
      "name": "approve",
      "outputs": [],
      "payable": false,
      "stateMutability": "nonpayable",
      "type": "function"
    },
    {
      "constant": true,
      "inputs": [
        {
          "name": "",
          "type": "uint256"
        }
      ],
      "name": "tokenToDescription",
      "outputs": [
        {
          "name": "",
          "type": "string"
        }
      ],
      "payable": false,
      "stateMutability": "view",
      "type": "function"
    },
    {
      "constant": true,
      "inputs": [
        {
          "name": "",
          "type": "uint256"
        }
      ],
      "name": "tokenToName",
      "outputs": [
        {
          "name": "",
          "type": "string"
        }
      ],
      "payable": false,
      "stateMutability": "view",
      "type": "function"
    },
    {
      "constant": false,
      "inputs": [
        {
          "name": "_from",
          "type": "address"
        },
        {
          "name": "_to",
          "type": "address"
        },
        {
          "name": "_tokenId",
          "type": "uint256"
        }
      ],
      "name": "transferFrom",
      "outputs": [],
      "payable": false,
      "stateMutability": "nonpayable",
      "type": "function"
    },
    {
      "constant": true,
      "inputs": [
        {
          "name": "",
          "type": "uint256"
        }
      ],
      "name": "tokenToTimeCreated",
      "outputs": [
        {
          "name": "",
          "type": "uint256"
        }
      ],
      "payable": false,
      "stateMutability": "view",
      "type": "function"
    },
    {
      "constant": true,
      "inputs": [
        {
          "name": "",
          "type": "uint256"
        }
      ],
      "name": "tokenToRoyaltyPercentage",
      "outputs": [
        {
          "name": "",
          "type": "uint8"
        }
      ],
      "payable": false,
      "stateMutability": "view",
      "type": "function"
    },
    {
      "constant": false,
      "inputs": [
        {
          "name": "_from",
          "type": "address"
        },
        {
          "name": "_to",
          "type": "address"
        },
        {
          "name": "_tokenId",
          "type": "uint256"
        }
      ],
      "name": "safeTransferFrom",
      "outputs": [],
      "payable": false,
      "stateMutability": "nonpayable",
      "type": "function"
    },
    {
      "constant": true,
      "inputs": [
        {
          "name": "_tokenId",
          "type": "uint256"
        }
      ],
      "name": "exists",
      "outputs": [
        {
          "name": "",
          "type": "bool"
        }
      ],
      "payable": false,
      "stateMutability": "view",
      "type": "function"
    },
    {
      "constant": true,
      "inputs": [
        {
          "name": "_tokenId",
          "type": "uint256"
        }
      ],
      "name": "ownerOf",
      "outputs": [
        {
          "name": "",
          "type": "address"
        }
      ],
      "payable": false,
      "stateMutability": "view",
      "type": "function"
    },
    {
      "constant": true,
      "inputs": [
        {
          "name": "_owner",
          "type": "address"
        }
      ],
      "name": "balanceOf",
      "outputs": [
        {
          "name": "",
          "type": "uint256"
        }
      ],
      "payable": false,
      "stateMutability": "view",
      "type": "function"
    },
    {
      "constant": true,
      "inputs": [
        {
          "name": "",
          "type": "uint256"
        }
      ],
      "name": "tokenToArtistAddress",
      "outputs": [
        {
          "name": "",
          "type": "address"
        }
      ],
      "payable": false,
      "stateMutability": "view",
      "type": "function"
    },
    {
      "constant": false,
      "inputs": [
        {
          "name": "_to",
          "type": "address"
        },
        {
          "name": "_approved",
          "type": "bool"
        }
      ],
      "name": "setApprovalForAll",
      "outputs": [],
      "payable": false,
      "stateMutability": "nonpayable",
      "type": "function"
    },
    {
      "constant": false,
      "inputs": [
        {
          "name": "_from",
          "type": "address"
        },
        {
          "name": "_to",
          "type": "address"
        },
        {
          "name": "_tokenId",
          "type": "uint256"
        },
        {
          "name": "_data",
          "type": "bytes"
        }
      ],
      "name": "safeTransferFrom",
      "outputs": [],
      "payable": false,
      "stateMutability": "nonpayable",
      "type": "function"
    },
    {
      "constant": true,
      "inputs": [
        {
          "name": "",
          "type": "address"
        }
      ],
      "name": "addrToArtistTokenNumber",
      "outputs": [
        {
          "name": "",
          "type": "uint256"
        }
      ],
      "payable": false,
      "stateMutability": "view",
      "type": "function"
    },
    {
      "constant": true,
      "inputs": [
        {
          "name": "",
          "type": "uint256"
        }
      ],
      "name": "tokenToArtistTokenNumber",
      "outputs": [
        {
          "name": "",
          "type": "uint256"
        }
      ],
      "payable": false,
      "stateMutability": "view",
      "type": "function"
    },
    {
      "constant": true,
      "inputs": [
        {
          "name": "_owner",
          "type": "address"
        },
        {
          "name": "_operator",
          "type": "address"
        }
      ],
      "name": "isApprovedForAll",
      "outputs": [
        {
          "name": "",
          "type": "bool"
        }
      ],
      "payable": false,
      "stateMutability": "view",
      "type": "function"
    },
    {
      "anonymous": false,
      "inputs": [
        {
          "indexed": true,
          "name": "_from",
          "type": "address"
        },
        {
          "indexed": true,
          "name": "_to",
          "type": "address"
        },
        {
          "indexed": false,
          "name": "_tokenId",
          "type": "uint256"
        }
      ],
      "name": "Transfer",
      "type": "event"
    },
    {
      "anonymous": false,
      "inputs": [
        {
          "indexed": true,
          "name": "_owner",
          "type": "address"
        },
        {
          "indexed": true,
          "name": "_approved",
          "type": "address"
        },
        {
          "indexed": false,
          "name": "_tokenId",
          "type": "uint256"
        }
      ],
      "name": "Approval",
      "type": "event"
    },
    {
      "anonymous": false,
      "inputs": [
        {
          "indexed": true,
          "name": "_owner",
          "type": "address"
        },
        {
          "indexed": true,
          "name": "_operator",
          "type": "address"
        },
        {
          "indexed": false,
          "name": "_approved",
          "type": "bool"
        }
      ],
      "name": "ApprovalForAll",
      "type": "event"
    },
    {
      "constant": true,
      "inputs": [
        {
          "name": "_owner",
          "type": "address"
        },
        {
          "name": "_index",
          "type": "uint256"
        }
      ],
      "name": "tokenOfOwnerByIndex",
      "outputs": [
        {
          "name": "",
          "type": "uint256"
        }
      ],
      "payable": false,
      "stateMutability": "view",
      "type": "function"
    },
    {
      "constant": true,
      "inputs": [],
      "name": "totalSupply",
      "outputs": [
        {
          "name": "",
          "type": "uint256"
        }
      ],
      "payable": false,
      "stateMutability": "view",
      "type": "function"
    },
    {
      "constant": true,
      "inputs": [
        {
          "name": "_index",
          "type": "uint256"
        }
      ],
      "name": "tokenByIndex",
      "outputs": [
        {
          "name": "",
          "type": "uint256"
        }
      ],
      "payable": false,
      "stateMutability": "view",
      "type": "function"
    },
    {
      "constant": true,
      "inputs": [
        {
          "name": "_index",
          "type": "uint256"
        }
      ],
      "name": "tokenDataByIndex",
      "outputs": [
        {
          "name": "",
          "type": "string"
        },
        {
          "name": "",
          "type": "string"
        },
        {
          "name": "",
          "type": "address"
        },
        {
          "name": "",
          "type": "uint256"
        },
        {
          "name": "",
          "type": "uint256"
        },
        {
          "name": "",
          "type": "uint8"
        }
      ],
      "payable": false,
      "stateMutability": "view",
      "type": "function"
    },
    {
      "constant": false,
      "inputs": [
        {
          "name": "_name",
          "type": "string"
        },
        {
          "name": "_description",
          "type": "string"
        }
      ],
      "name": "mint",
      "outputs": [],
      "payable": false,
      "stateMutability": "nonpayable",
      "type": "function"
    },
    {
      "constant": false,
      "inputs": [
        {
          "name": "_name",
          "type": "string"
        },
        {
          "name": "_description",
          "type": "string"
        },
        {
          "name": "_numToken",
          "type": "uint8"
        }
      ],
      "name": "batchMint",
      "outputs": [],
      "payable": false,
      "stateMutability": "nonpayable",
      "type": "function"
    }
  ],
  "bytecode": "0x608060405234801561001057600080fd5b5061270c806100206000396000f300608060405260043610610133576000357c0100000000000000000000000000000000000000000000000000000000900463ffffffff168063081812fc14610138578063095ea7b3146101a55780630ee8d85a146101f25780630f8f9ee11461029857806318160ddd1461033e57806323b872dd146103695780632f745c59146103d65780633239c60d1461043757806336b848951461047857806341672a46146104bf57806342842e0e1461057b5780634f558e79146105e85780634f6ccce71461062d57806350ec5ace1461066e5780636352211e146107ce57806370a082311461083b5780637fc85917146108925780638aa0fdad146108ff578063a22cb465146109ae578063b88d4fde146109fd578063d47ada7014610ab0578063e6bea79414610b07578063e985e9c514610b48575b600080fd5b34801561014457600080fd5b5061016360048036038101908080359060200190929190505050610bc3565b604051808273ffffffffffffffffffffffffffffffffffffffff1673ffffffffffffffffffffffffffffffffffffffff16815260200191505060405180910390f35b3480156101b157600080fd5b506101f0600480360381019080803573ffffffffffffffffffffffffffffffffffffffff16906020019092919080359060200190929190505050610c00565b005b3480156101fe57600080fd5b5061021d60048036038101908080359060200190929190505050610dc6565b6040518080602001828103825283818151815260200191508051906020019080838360005b8381101561025d578082015181840152602081019050610242565b50505050905090810190601f16801561028a5780820380516001836020036101000a031916815260200191505b509250505060405180910390f35b3480156102a457600080fd5b506102c360048036038101908080359060200190929190505050610e76565b6040518080602001828103825283818151815260200191508051906020019080838360005b838110156103035780820151818401526020810190506102e8565b50505050905090810190601f1680156103305780820380516001836020036101000a031916815260200191505b509250505060405180910390f35b34801561034a57600080fd5b50610353610f26565b6040518082815260200191505060405180910390f35b34801561037557600080fd5b506103d4600480360381019080803573ffffffffffffffffffffffffffffffffffffffff169060200190929190803573ffffffffffffffffffffffffffffffffffffffff16906020019092919080359060200190929190505050610f33565b005b3480156103e257600080fd5b50610421600480360381019080803573ffffffffffffffffffffffffffffffffffffffff1690602001909291908035906020019092919050505061104a565b6040518082815260200191505060405180910390f35b34801561044357600080fd5b50610462600480360381019080803590602001909291905050506110c1565b6040518082815260200191505060405180910390f35b34801561048457600080fd5b506104a3600480360381019080803590602001909291905050506110d9565b604051808260ff1660ff16815260200191505060405180910390f35b3480156104cb57600080fd5b50610579600480360381019080803590602001908201803590602001908080601f0160208091040260200160405190810160405280939291908181526020018383808284378201915050505050509192919290803590602001908201803590602001908080601f0160208091040260200160405190810160405280939291908181526020018383808284378201915050505050509192919290803560ff1690602001909291905050506110f9565b005b34801561058757600080fd5b506105e6600480360381019080803573ffffffffffffffffffffffffffffffffffffffff169060200190929190803573ffffffffffffffffffffffffffffffffffffffff16906020019092919080359060200190929190505050611150565b005b3480156105f457600080fd5b5061061360048036038101908080359060200190929190505050611188565b604051808215151515815260200191505060405180910390f35b34801561063957600080fd5b50610658600480360381019080803590602001909291905050506111f9565b6040518082815260200191505060405180910390f35b34801561067a57600080fd5b5061069960048036038101908080359060200190929190505050611231565b6040518080602001806020018773ffffffffffffffffffffffffffffffffffffffff1673ffffffffffffffffffffffffffffffffffffffff1681526020018681526020018581526020018460ff1660ff168152602001838103835289818151815260200191508051906020019080838360005b8381101561072757808201518184015260208101905061070c565b50505050905090810190601f1680156107545780820380516001836020036101000a031916815260200191505b50838103825288818151815260200191508051906020019080838360005b8381101561078d578082015181840152602081019050610772565b50505050905090810190601f1680156107ba5780820380516001836020036101000a031916815260200191505b509850505050505050505060405180910390f35b3480156107da57600080fd5b506107f96004803603810190808035906020019092919050505061143f565b604051808273ffffffffffffffffffffffffffffffffffffffff1673ffffffffffffffffffffffffffffffffffffffff16815260200191505060405180910390f35b34801561084757600080fd5b5061087c600480360381019080803573ffffffffffffffffffffffffffffffffffffffff1690602001909291905050506114bc565b6040518082815260200191505060405180910390f35b34801561089e57600080fd5b506108bd60048036038101908080359060200190929190505050611540565b604051808273ffffffffffffffffffffffffffffffffffffffff1673ffffffffffffffffffffffffffffffffffffffff16815260200191505060405180910390f35b34801561090b57600080fd5b506109ac600480360381019080803590602001908201803590602001908080601f0160208091040260200160405190810160405280939291908181526020018383808284378201915050505050509192919290803590602001908201803590602001908080601f0160208091040260200160405190810160405280939291908181526020018383808284378201915050505050509192919290505050611573565b005b3480156109ba57600080fd5b506109fb600480360381019080803573ffffffffffffffffffffffffffffffffffffffff1690602001909291908035151590602001909291905050506118f7565b005b348015610a0957600080fd5b50610aae600480360381019080803573ffffffffffffffffffffffffffffffffffffffff169060200190929190803573ffffffffffffffffffffffffffffffffffffffff16906020019092919080359060200190929190803590602001908201803590602001908080601f0160208091040260200160405190810160405280939291908181526020018383808284378201915050505050509192919290505050611a33565b005b348015610abc57600080fd5b50610af1600480360381019080803573ffffffffffffffffffffffffffffffffffffffff169060200190929190505050611a72565b6040518082815260200191505060405180910390f35b348015610b1357600080fd5b50610b3260048036038101908080359060200190929190505050611a8a565b6040518082815260200191505060405180910390f35b348015610b5457600080fd5b50610ba9600480360381019080803573ffffffffffffffffffffffffffffffffffffffff169060200190929190803573ffffffffffffffffffffffffffffffffffffffff169060200190929190505050611aa2565b604051808215151515815260200191505060405180910390f35b60006001600083815260200190815260200160002060009054906101000a900473ffffffffffffffffffffffffffffffffffffffff169050919050565b6000610c0b8261143f565b90508073ffffffffffffffffffffffffffffffffffffffff168373ffffffffffffffffffffffffffffffffffffffff1614151515610c4857600080fd5b8073ffffffffffffffffffffffffffffffffffffffff163373ffffffffffffffffffffffffffffffffffffffff161480610c885750610c878133611aa2565b5b1515610c9357600080fd5b600073ffffffffffffffffffffffffffffffffffffffff16610cb483610bc3565b73ffffffffffffffffffffffffffffffffffffffff16141580610d045750600073ffffffffffffffffffffffffffffffffffffffff168373ffffffffffffffffffffffffffffffffffffffff1614155b15610dc157826001600084815260200190815260200160002060006101000a81548173ffffffffffffffffffffffffffffffffffffffff021916908373ffffffffffffffffffffffffffffffffffffffff1602179055508273ffffffffffffffffffffffffffffffffffffffff168173ffffffffffffffffffffffffffffffffffffffff167f8c5be1e5ebec7d5bd14f71427d1e84f3dd0314c0f7b2291e5b200ac8c7c3b925846040518082815260200191505060405180910390a35b505050565b600b6020528060005260406000206000915090508054600181600116156101000203166002900480601f016020809104026020016040519081016040528092919081815260200182805460018160011615610100020316600290048015610e6e5780601f10610e4357610100808354040283529160200191610e6e565b820191906000526020600020905b815481529060010190602001808311610e5157829003601f168201915b505050505081565b600a6020528060005260406000206000915090508054600181600116156101000203166002900480601f016020809104026020016040519081016040528092919081815260200182805460018160011615610100020316600290048015610f1e5780601f10610ef357610100808354040283529160200191610f1e565b820191906000526020600020905b815481529060010190602001808311610f0157829003601f168201915b505050505081565b6000600480549050905090565b80610f3e3382611b36565b1515610f4957600080fd5b600073ffffffffffffffffffffffffffffffffffffffff168473ffffffffffffffffffffffffffffffffffffffff1614151515610f8557600080fd5b600073ffffffffffffffffffffffffffffffffffffffff168373ffffffffffffffffffffffffffffffffffffffff1614151515610fc157600080fd5b610fcb8483611bcb565b610fd58483611d34565b610fdf8383611f4c565b8273ffffffffffffffffffffffffffffffffffffffff168473ffffffffffffffffffffffffffffffffffffffff167fddf252ad1be2c89b69c2b068fc378daa952ba7f163c4a11628f55a4df523b3ef846040518082815260200191505060405180910390a350505050565b6000611055836114bc565b8210151561106257600080fd5b600560008473ffffffffffffffffffffffffffffffffffffffff1673ffffffffffffffffffffffffffffffffffffffff168152602001908152602001600020828154811015156110ae57fe5b9060005260206000200154905092915050565b600e6020528060005260406000206000915090505481565b600f6020528060005260406000206000915054906101000a900460ff1681565b600060058260ff161115151561110e57600080fd5b60008260ff1611151561112057600080fd5b600090505b8160ff168160ff16101561114a5761113d8484611573565b8080600101915050611125565b50505050565b8061115b3382611b36565b151561116657600080fd5b6111828484846020604051908101604052806000815250611a33565b50505050565b60008060008084815260200190815260200160002060009054906101000a900473ffffffffffffffffffffffffffffffffffffffff169050600073ffffffffffffffffffffffffffffffffffffffff168173ffffffffffffffffffffffffffffffffffffffff161415915050919050565b6000611203610f26565b8210151561121057600080fd5b60078281548110151561121f57fe5b90600052602060002001549050919050565b606080600080600080611242610f26565b8710151561124f57600080fd5b600a6000888152602001908152602001600020600b6000898152602001908152602001600020600c60008a815260200190815260200160002060009054906101000a900473ffffffffffffffffffffffffffffffffffffffff16600d60008b815260200190815260200160002054600e60008c815260200190815260200160002054600f60008d815260200190815260200160002060009054906101000a900460ff16858054600181600116156101000203166002900480601f0160208091040260200160405190810160405280929190818152602001828054600181600116156101000203166002900480156113875780601f1061135c57610100808354040283529160200191611387565b820191906000526020600020905b81548152906001019060200180831161136a57829003601f168201915b50505050509550848054600181600116156101000203166002900480601f0160208091040260200160405190810160405280929190818152602001828054600181600116156101000203166002900480156114235780601f106113f857610100808354040283529160200191611423565b820191906000526020600020905b81548152906001019060200180831161140657829003601f168201915b5050505050945095509550955095509550955091939550919395565b60008060008084815260200190815260200160002060009054906101000a900473ffffffffffffffffffffffffffffffffffffffff169050600073ffffffffffffffffffffffffffffffffffffffff168173ffffffffffffffffffffffffffffffffffffffff16141515156114b357600080fd5b80915050919050565b60008073ffffffffffffffffffffffffffffffffffffffff168273ffffffffffffffffffffffffffffffffffffffff16141515156114f957600080fd5b600260008373ffffffffffffffffffffffffffffffffffffffff1673ffffffffffffffffffffffffffffffffffffffff168152602001908152602001600020549050919050565b600c6020528060005260406000206000915054906101000a900473ffffffffffffffffffffffffffffffffffffffff1681565b60008060008061158833600480549050612023565b429350600960003373ffffffffffffffffffffffffffffffffffffffff1673ffffffffffffffffffffffffffffffffffffffff16815260200190815260200160002054925060048054905060086000838152602001908152602001600020819055506007819080600181540180825580915050906001820390600052602060002001600090919290919091505550600591506117596001600460c0604051908101604052808a81526020018981526020013373ffffffffffffffffffffffffffffffffffffffff1681526020018781526020018881526020018660ff168152509080600181540180825580915050906001820390600052602060002090600602016000909192909190915060008201518160000190805190602001906116af92919061258f565b5060208201518160010190805190602001906116cc92919061258f565b5060408201518160020160006101000a81548173ffffffffffffffffffffffffffffffffffffffff021916908373ffffffffffffffffffffffffffffffffffffffff160217905550606082015181600301556080820151816004015560a08201518160050160006101000a81548160ff021916908360ff16021790555050506120d390919063ffffffff16565b90506117ae6001600960003373ffffffffffffffffffffffffffffffffffffffff1673ffffffffffffffffffffffffffffffffffffffff168152602001908152602001600020546120ec90919063ffffffff16565b600960003373ffffffffffffffffffffffffffffffffffffffff1673ffffffffffffffffffffffffffffffffffffffff1681526020019081526020016000208190555085600a6000838152602001908152602001600020908051906020019061181892919061260f565b5084600b6000838152602001908152602001600020908051906020019061184092919061260f565b5033600c600083815260200190815260200160002060006101000a81548173ffffffffffffffffffffffffffffffffffffffff021916908373ffffffffffffffffffffffffffffffffffffffff16021790555082600d60008381526020019081526020016000208190555083600e60008381526020019081526020016000208190555081600f600083815260200190815260200160002060006101000a81548160ff021916908360ff160217905550505050505050565b3373ffffffffffffffffffffffffffffffffffffffff168273ffffffffffffffffffffffffffffffffffffffff161415151561193257600080fd5b80600360003373ffffffffffffffffffffffffffffffffffffffff1673ffffffffffffffffffffffffffffffffffffffff16815260200190815260200160002060008473ffffffffffffffffffffffffffffffffffffffff1673ffffffffffffffffffffffffffffffffffffffff16815260200190815260200160002060006101000a81548160ff0219169083151502179055508173ffffffffffffffffffffffffffffffffffffffff163373ffffffffffffffffffffffffffffffffffffffff167f17307eab39ab6107e8899845ad3d59bd9653f200f220920489ca2b5937696c3183604051808215151515815260200191505060405180910390a35050565b81611a3e3382611b36565b1515611a4957600080fd5b611a54858585610f33565b611a6085858585612108565b1515611a6b57600080fd5b5050505050565b60096020528060005260406000206000915090505481565b600d6020528060005260406000206000915090505481565b6000600360008473ffffffffffffffffffffffffffffffffffffffff1673ffffffffffffffffffffffffffffffffffffffff16815260200190815260200160002060008373ffffffffffffffffffffffffffffffffffffffff1673ffffffffffffffffffffffffffffffffffffffff16815260200190815260200160002060009054906101000a900460ff16905092915050565b600080611b428361143f565b90508073ffffffffffffffffffffffffffffffffffffffff168473ffffffffffffffffffffffffffffffffffffffff161480611bb157508373ffffffffffffffffffffffffffffffffffffffff16611b9984610bc3565b73ffffffffffffffffffffffffffffffffffffffff16145b80611bc25750611bc18185611aa2565b5b91505092915050565b8173ffffffffffffffffffffffffffffffffffffffff16611beb8261143f565b73ffffffffffffffffffffffffffffffffffffffff16141515611c0d57600080fd5b600073ffffffffffffffffffffffffffffffffffffffff166001600083815260200190815260200160002060009054906101000a900473ffffffffffffffffffffffffffffffffffffffff1673ffffffffffffffffffffffffffffffffffffffff16141515611d305760006001600083815260200190815260200160002060006101000a81548173ffffffffffffffffffffffffffffffffffffffff021916908373ffffffffffffffffffffffffffffffffffffffff160217905550600073ffffffffffffffffffffffffffffffffffffffff168273ffffffffffffffffffffffffffffffffffffffff167f8c5be1e5ebec7d5bd14f71427d1e84f3dd0314c0f7b2291e5b200ac8c7c3b925836040518082815260200191505060405180910390a35b5050565b6000806000611d4385856122f6565b60066000858152602001908152602001600020549250611daf6001600560008873ffffffffffffffffffffffffffffffffffffffff1673ffffffffffffffffffffffffffffffffffffffff168152602001908152602001600020805490506120d390919063ffffffff16565b9150600560008673ffffffffffffffffffffffffffffffffffffffff1673ffffffffffffffffffffffffffffffffffffffff16815260200190815260200160002082815481101515611dfd57fe5b9060005260206000200154905080600560008773ffffffffffffffffffffffffffffffffffffffff1673ffffffffffffffffffffffffffffffffffffffff16815260200190815260200160002084815481101515611e5757fe5b90600052602060002001819055506000600560008773ffffffffffffffffffffffffffffffffffffffff1673ffffffffffffffffffffffffffffffffffffffff16815260200190815260200160002083815481101515611eb357fe5b9060005260206000200181905550600560008673ffffffffffffffffffffffffffffffffffffffff1673ffffffffffffffffffffffffffffffffffffffff168152602001908152602001600020805480919060019003611f13919061268f565b50600060066000868152602001908152602001600020819055508260066000838152602001908152602001600020819055505050505050565b6000611f588383612424565b600560008473ffffffffffffffffffffffffffffffffffffffff1673ffffffffffffffffffffffffffffffffffffffff168152602001908152602001600020805490509050600560008473ffffffffffffffffffffffffffffffffffffffff1673ffffffffffffffffffffffffffffffffffffffff168152602001908152602001600020829080600181540180825580915050906001820390600052602060002001600090919290919091505550806006600084815260200190815260200160002081905550505050565b600073ffffffffffffffffffffffffffffffffffffffff168273ffffffffffffffffffffffffffffffffffffffff161415151561205f57600080fd5b6120698282611f4c565b8173ffffffffffffffffffffffffffffffffffffffff16600073ffffffffffffffffffffffffffffffffffffffff167fddf252ad1be2c89b69c2b068fc378daa952ba7f163c4a11628f55a4df523b3ef836040518082815260200191505060405180910390a35050565b60008282111515156120e157fe5b818303905092915050565b600081830190508281101515156120ff57fe5b80905092915050565b60008061212a8573ffffffffffffffffffffffffffffffffffffffff1661257c565b151561213957600191506122ed565b8473ffffffffffffffffffffffffffffffffffffffff1663f0b9e5ba8786866040518463ffffffff167c0100000000000000000000000000000000000000000000000000000000028152600401808473ffffffffffffffffffffffffffffffffffffffff1673ffffffffffffffffffffffffffffffffffffffff16815260200183815260200180602001828103825283818151815260200191508051906020019080838360005b838110156121fb5780820151818401526020810190506121e0565b50505050905090810190601f1680156122285780820380516001836020036101000a031916815260200191505b50945050505050602060405180830381600087803b15801561224957600080fd5b505af115801561225d573d6000803e3d6000fd5b505050506040513d602081101561227357600080fd5b8101908080519060200190929190505050905063f0b9e5ba7c0100000000000000000000000000000000000000000000000000000000027bffffffffffffffffffffffffffffffffffffffffffffffffffffffff1916817bffffffffffffffffffffffffffffffffffffffffffffffffffffffff19161491505b50949350505050565b8173ffffffffffffffffffffffffffffffffffffffff166123168261143f565b73ffffffffffffffffffffffffffffffffffffffff1614151561233857600080fd5b61238b6001600260008573ffffffffffffffffffffffffffffffffffffffff1673ffffffffffffffffffffffffffffffffffffffff168152602001908152602001600020546120d390919063ffffffff16565b600260008473ffffffffffffffffffffffffffffffffffffffff1673ffffffffffffffffffffffffffffffffffffffff16815260200190815260200160002081905550600080600083815260200190815260200160002060006101000a81548173ffffffffffffffffffffffffffffffffffffffff021916908373ffffffffffffffffffffffffffffffffffffffff1602179055505050565b600073ffffffffffffffffffffffffffffffffffffffff1660008083815260200190815260200160002060009054906101000a900473ffffffffffffffffffffffffffffffffffffffff1673ffffffffffffffffffffffffffffffffffffffff1614151561249157600080fd5b8160008083815260200190815260200160002060006101000a81548173ffffffffffffffffffffffffffffffffffffffff021916908373ffffffffffffffffffffffffffffffffffffffff1602179055506125356001600260008573ffffffffffffffffffffffffffffffffffffffff1673ffffffffffffffffffffffffffffffffffffffff168152602001908152602001600020546120ec90919063ffffffff16565b600260008473ffffffffffffffffffffffffffffffffffffffff1673ffffffffffffffffffffffffffffffffffffffff168152602001908152602001600020819055505050565b600080823b905060008111915050919050565b828054600181600116156101000203166002900490600052602060002090601f016020900481019282601f106125d057805160ff19168380011785556125fe565b828001600101855582156125fe579182015b828111156125fd5782518255916020019190600101906125e2565b5b50905061260b91906126bb565b5090565b828054600181600116156101000203166002900490600052602060002090601f016020900481019282601f1061265057805160ff191683800117855561267e565b8280016001018555821561267e579182015b8281111561267d578251825591602001919060010190612662565b5b50905061268b91906126bb565b5090565b8154818355818111156126b6578183600052602060002091820191016126b591906126bb565b5b505050565b6126dd91905b808211156126d95760008160009055506001016126c1565b5090565b905600a165627a7a723058203382e7a7df39c543538449cb7869e89ea07704c1edd599443a4c2384b203a8170029",
  "source": "pragma solidity ^0.4.21;\n\nimport \"./ERC721.sol\";\nimport \"./ERC721BasicToken.sol\";\n\n\ncontract ArtistToken is ERC721, ERC721BasicToken {\n  using SafeMath for uint256;\n  using AddressUtils for address;\n\n\n  /// @notice struct that holds token data\n  /// @param name the name of the token\n  /// @param description information about the token, you may indicate benefits \n  ///   the token confers and the time it is valid until.\n  /// @param artistAddress the address of the artist who created the token\n  /// @param artistTokenNumber the number of tokens created by the artist. \n  ///   eg 1st token, 2nd, ..., nth token\n  /// @param timeCreated the block timestamp time where the token was created\n  /// @param royaltyPercentage the royalty percentage the artist receives from \n  ///   exchange of the token. Fixed at 5%.\n                            \n  \n  struct TokenData {\n    string name;\n    string description;\n    address artistAddress;\n    uint256 artistTokenNumber;\n    uint256 timeCreated;\n    uint8 royaltyPercentage;\n  }\n\n  TokenData[] internal tokens;\n\n  // Mapping from owner to list of owned token ID\n  mapping (address => uint256[]) internal ownedTokens;\n  \n  // Mapping from token ID to index of ower token list\n  mapping (uint256 => uint256) internal ownedTokensIndex;\n \n // Array with all token ids, used for enumeration\n  uint256[] internal allTokens; \n\n  // Mapping from token id to position in the allTokens array\n  mapping(uint256 => uint256) internal allTokensIndex;\n\n  // Mapping from address to number of tokens minted by address\n  mapping (address => uint256) public addrToArtistTokenNumber;\n\n  // Mapping for TokenData struct\n  mapping (uint256 => string) public tokenToName;\n  mapping (uint256 => string) public tokenToDescription;\n  mapping (uint256 => address) public tokenToArtistAddress;\n  mapping (uint256 => uint256) public tokenToArtistTokenNumber; \n  mapping (uint256 => uint256) public tokenToTimeCreated;\n  mapping (uint256 => uint8) public tokenToRoyaltyPercentage;\n\n\n  /**\n   * @dev Gets the token ID at a given index of the tokens list of the requested owner\n   * @param _owner address owning the tokens list to be accessed\n   * @param _index uint256 representing the index to be accessed of the requested tokens list\n   * @return uint256 token ID at the given index of the tokens list owned by the requested address\n   */\n  function tokenOfOwnerByIndex(address _owner, uint256 _index) public view returns (uint256) {\n    require(_index < balanceOf(_owner));\n    return ownedTokens[_owner][_index];\n  }\n\n  /**\n   * @dev Gets the total amount of tokens stored by the contract\n   * @return uint256 representing the total amount of tokens\n   */\n  function totalSupply() public view returns (uint256) {\n    return tokens.length;\n  }\n\n  /**\n   * @dev Gets the token ID at a given index of all the tokens in this contract\n   * @dev Reverts if the index is greater or equal to the total number of tokens\n   * @param _index uint256 representing the index to be accessed of the tokens list\n   * @return uint256 token ID at the given index of the tokens list\n   */\n  function tokenByIndex(uint256 _index) public view returns (uint256) {\n    require(_index < totalSupply());\n    return allTokens[_index];\n  }\n  \n  /**\n  * @dev Gets token data at a given index of all the tokens in this contract\n  * @dev Reverts if the index is greater or equal to the total number of tokens\n  * @param _index uint256 representing the index to be accessed of the tokens list\n  * @return data in tokenData struct\n  */\n  function tokenDataByIndex(uint256 _index) public view \n  returns (string, string, address, uint256, uint256, uint8) {\n    require(_index < totalSupply());\n    return (tokenToName[_index],\n            tokenToDescription[_index],\n            tokenToArtistAddress[_index],\n            tokenToArtistTokenNumber[_index],\n            tokenToTimeCreated[_index],\n            tokenToRoyaltyPercentage[_index]);\n  }\n  \n  /**\n   * @dev Internal function to add a token ID to the list of a given address\n   * @param _to address representing the new owner of the given token ID\n   * @param _tokenId uint256 ID of the token to be added to the tokens list of the given address\n   */\n  function addTokenTo(address _to, uint256 _tokenId) internal {\n    super.addTokenTo(_to, _tokenId);\n    uint256 length = ownedTokens[_to].length;\n    ownedTokens[_to].push(_tokenId);\n    ownedTokensIndex[_tokenId] = length;\n  }  \n\n  /**\n   * @dev Internal function to remove a token ID from the list of a given address\n   * @param _from address representing the previous owner of the given token ID\n   * @param _tokenId uint256 ID of the token to be removed from the tokens list of the given address\n   */\n  function removeTokenFrom(address _from, uint256 _tokenId) internal {\n    super.removeTokenFrom(_from, _tokenId);\n\n    uint256 tokenIndex = ownedTokensIndex[_tokenId];\n    uint256 lastTokenIndex = ownedTokens[_from].length.sub(1);\n    uint256 lastToken = ownedTokens[_from][lastTokenIndex];\n\n    ownedTokens[_from][tokenIndex] = lastToken;\n    ownedTokens[_from][lastTokenIndex] = 0;\n    // Note that this will handle single-element arrays. In that case, both tokenIndex and lastTokenIndex are going to\n    // be zero. Then we can make sure that we will remove _tokenId from the ownedTokens list since we are first swapping\n    // the lastToken to the first position, and then dropping the element placed in the last position of the list\n\n    ownedTokens[_from].length--;\n    ownedTokensIndex[_tokenId] = 0;\n    ownedTokensIndex[lastToken] = tokenIndex;\n  }\n\n  /**\n   * @dev Public function to mint a token, minted token will be credited to the creator\n   * @dev Royalty Percentage is fixed at 5%\n   * @param _name name of token to be minted\n   * @param _description of token to be minted\n   */\n  function mint(string _name, \n                string _description) public {\n\n    super._mint(msg.sender, tokens.length);\n\n    // add data\n    uint256 _timeCreated = now;\n    uint256 _artistTokenNumber = addrToArtistTokenNumber[msg.sender];\n    \n    allTokensIndex[_tokenId] = tokens.length;\n    allTokens.push(_tokenId);\n    \n    // royalty percentage\n    uint8 _royaltyPercentage = 5;\n    \n    uint256 _tokenId = tokens.push(TokenData(_name,\n                                            _description,\n                                            msg.sender,\n                                            _artistTokenNumber,\n                                            _timeCreated,\n                                            _royaltyPercentage)).sub(1);\n\n    // update mappings\n    addrToArtistTokenNumber[msg.sender] = addrToArtistTokenNumber[msg.sender].add(1);\n    tokenToName[_tokenId] = _name;\n    tokenToDescription[_tokenId] = _description;\n    tokenToArtistAddress[_tokenId] = msg.sender;\n    tokenToArtistTokenNumber[_tokenId] = _artistTokenNumber;\n    tokenToTimeCreated[_tokenId] = _timeCreated;\n    tokenToRoyaltyPercentage[_tokenId] = _royaltyPercentage;\n  }\n  \n  /**\n   * @dev Public function to batch mint a token with same _name and _description\n   * @dev Repeatedly calls mint\n   * @dev reverts if numToken <= 0 or numToken > 5\n   * @param _name name of token to be minted\n   * @param _description of token to be minted\n   * @param _numToken number of tokens to mint\n   */\n  function batchMint(string _name,\n                     string _description,\n                     uint8 _numToken) public {\n    require(_numToken <= 5);\n    require(_numToken > 0);\n    for(uint8 i = 0; i < _numToken; i++) {\n      mint(_name, _description);  \n    }\n                        \n  }\n}\n",
  "sourcePath": "/home/ada/WebApp/smackathon/contracts/ArtistToken.sol",
  "compiler": {
    "name": "solc",
    "version": "0.4.23+commit.124ca40d.Emscripten.clang"
  },
  "schemaVersion": "2.0.0",
  "updatedAt": "2018-05-24T19:59:42.362Z"
}