{
  "contractName": "AuctionContract",
  "abi": [
    {
      "constant": true,
      "inputs": [
        {
          "name": "",
          "type": "uint256"
        },
        {
          "name": "",
          "type": "uint256"
        }
      ],
      "name": "auctions",
      "outputs": [
        {
          "name": "startTime",
          "type": "uint256"
        },
        {
          "name": "endTime",
          "type": "uint256"
        },
        {
          "name": "highestBid",
          "type": "uint256"
        },
        {
          "name": "owner",
          "type": "address"
        },
        {
          "name": "winner",
          "type": "address"
        }
      ],
      "payable": false,
      "stateMutability": "view",
      "type": "function"
    }
  ],
  "bytecode": "0x608060405234801561001057600080fd5b506101c3806100206000396000f300608060405260043610610041576000357c0100000000000000000000000000000000000000000000000000000000900463ffffffff168063fc23d5f014610046575b600080fd5b34801561005257600080fd5b5061007b6004803603810190808035906020019092919080359060200190929190505050610105565b604051808681526020018581526020018481526020018373ffffffffffffffffffffffffffffffffffffffff1673ffffffffffffffffffffffffffffffffffffffff1681526020018273ffffffffffffffffffffffffffffffffffffffff1673ffffffffffffffffffffffffffffffffffffffff1681526020019550505050505060405180910390f35b60006020528160005260406000208181548110151561012057fe5b9060005260206000209060050201600091509150508060000154908060010154908060020154908060030160009054906101000a900473ffffffffffffffffffffffffffffffffffffffff16908060040160009054906101000a900473ffffffffffffffffffffffffffffffffffffffff169050855600a165627a7a72305820cdc0e30afaefef87970699525a597acc3b57a738830e8dd28c17e88b0e6685270029",
  "source": "pragma solidity ^0.4.21;\n\ncontract AuctionContract {\n  struct Auction {\n    uint startTime;\n    uint endTime;\n    uint highestBid;\n    address owner;\n    address winner; \n  }\n\n  mapping (uint => Auction[]) public auctions;\n\n//  function startAuction {\n//    // Create an auction \n//  }\n//\n//  function bid {\n//\n//  }\n\n}\n",
  "sourcePath": "/home/ada/WebApp/smackathon/contracts/Auction.sol",
  "compiler": {
    "name": "solc",
    "version": "0.4.23+commit.124ca40d.Emscripten.clang"
  },
  "schemaVersion": "2.0.0",
  "updatedAt": "2018-05-22T17:40:01.319Z"
}