{
  "contractName": "HypeToken",
  "abi": [
    {
      "constant": true,
      "inputs": [
        {
          "name": "_tokenId",
          "type": "uint256"
        }
      ],
      "name": "getApproved",
      "outputs": [
        {
          "name": "",
          "type": "address"
        }
      ],
      "payable": false,
      "stateMutability": "view",
      "type": "function"
    },
    {
      "constant": false,
      "inputs": [
        {
          "name": "_to",
          "type": "address"
        },
        {
          "name": "_tokenId",
          "type": "uint256"
        }
      ],
      "name": "approve",
      "outputs": [],
      "payable": false,
      "stateMutability": "nonpayable",
      "type": "function"
    },
    {
      "constant": true,
      "inputs": [
        {
          "name": "",
          "type": "uint256"
        }
      ],
      "name": "tokenToDescription",
      "outputs": [
        {
          "name": "",
          "type": "string"
        }
      ],
      "payable": false,
      "stateMutability": "view",
      "type": "function"
    },
    {
      "constant": true,
      "inputs": [
        {
          "name": "",
          "type": "uint256"
        }
      ],
      "name": "tokenToName",
      "outputs": [
        {
          "name": "",
          "type": "string"
        }
      ],
      "payable": false,
      "stateMutability": "view",
      "type": "function"
    },
    {
      "constant": false,
      "inputs": [
        {
          "name": "_from",
          "type": "address"
        },
        {
          "name": "_to",
          "type": "address"
        },
        {
          "name": "_tokenId",
          "type": "uint256"
        }
      ],
      "name": "transferFrom",
      "outputs": [],
      "payable": false,
      "stateMutability": "nonpayable",
      "type": "function"
    },
    {
      "constant": true,
      "inputs": [
        {
          "name": "",
          "type": "uint256"
        }
      ],
      "name": "tokenToTimeCreated",
      "outputs": [
        {
          "name": "",
          "type": "uint256"
        }
      ],
      "payable": false,
      "stateMutability": "view",
      "type": "function"
    },
    {
      "constant": true,
      "inputs": [
        {
          "name": "",
          "type": "uint256"
        }
      ],
      "name": "tokenToRoyaltyPercentage",
      "outputs": [
        {
          "name": "",
          "type": "uint8"
        }
      ],
      "payable": false,
      "stateMutability": "view",
      "type": "function"
    },
    {
      "constant": false,
      "inputs": [
        {
          "name": "_from",
          "type": "address"
        },
        {
          "name": "_to",
          "type": "address"
        },
        {
          "name": "_tokenId",
          "type": "uint256"
        }
      ],
      "name": "safeTransferFrom",
      "outputs": [],
      "payable": false,
      "stateMutability": "nonpayable",
      "type": "function"
    },
    {
      "constant": true,
      "inputs": [
        {
          "name": "_tokenId",
          "type": "uint256"
        }
      ],
      "name": "exists",
      "outputs": [
        {
          "name": "",
          "type": "bool"
        }
      ],
      "payable": false,
      "stateMutability": "view",
      "type": "function"
    },
    {
      "constant": true,
      "inputs": [
        {
          "name": "_tokenId",
          "type": "uint256"
        }
      ],
      "name": "ownerOf",
      "outputs": [
        {
          "name": "",
          "type": "address"
        }
      ],
      "payable": false,
      "stateMutability": "view",
      "type": "function"
    },
    {
      "constant": true,
      "inputs": [
        {
          "name": "_owner",
          "type": "address"
        }
      ],
      "name": "balanceOf",
      "outputs": [
        {
          "name": "",
          "type": "uint256"
        }
      ],
      "payable": false,
      "stateMutability": "view",
      "type": "function"
    },
    {
      "constant": true,
      "inputs": [
        {
          "name": "",
          "type": "uint256"
        }
      ],
      "name": "tokenToArtistAddress",
      "outputs": [
        {
          "name": "",
          "type": "address"
        }
      ],
      "payable": false,
      "stateMutability": "view",
      "type": "function"
    },
    {
      "constant": true,
      "inputs": [
        {
          "name": "",
          "type": "uint256"
        }
      ],
      "name": "tokenToRedeemed",
      "outputs": [
        {
          "name": "",
          "type": "bool"
        }
      ],
      "payable": false,
      "stateMutability": "view",
      "type": "function"
    },
    {
      "constant": false,
      "inputs": [
        {
          "name": "_to",
          "type": "address"
        },
        {
          "name": "_approved",
          "type": "bool"
        }
      ],
      "name": "setApprovalForAll",
      "outputs": [],
      "payable": false,
      "stateMutability": "nonpayable",
      "type": "function"
    },
    {
      "constant": false,
      "inputs": [
        {
          "name": "_from",
          "type": "address"
        },
        {
          "name": "_to",
          "type": "address"
        },
        {
          "name": "_tokenId",
          "type": "uint256"
        },
        {
          "name": "_data",
          "type": "bytes"
        }
      ],
      "name": "safeTransferFrom",
      "outputs": [],
      "payable": false,
      "stateMutability": "nonpayable",
      "type": "function"
    },
    {
      "constant": true,
      "inputs": [
        {
          "name": "",
          "type": "address"
        }
      ],
      "name": "addrToArtistTokenNumber",
      "outputs": [
        {
          "name": "",
          "type": "uint256"
        }
      ],
      "payable": false,
      "stateMutability": "view",
      "type": "function"
    },
    {
      "constant": true,
      "inputs": [
        {
          "name": "",
          "type": "uint256"
        }
      ],
      "name": "tokenToArtistTokenNumber",
      "outputs": [
        {
          "name": "",
          "type": "uint256"
        }
      ],
      "payable": false,
      "stateMutability": "view",
      "type": "function"
    },
    {
      "constant": true,
      "inputs": [
        {
          "name": "_owner",
          "type": "address"
        },
        {
          "name": "_operator",
          "type": "address"
        }
      ],
      "name": "isApprovedForAll",
      "outputs": [
        {
          "name": "",
          "type": "bool"
        }
      ],
      "payable": false,
      "stateMutability": "view",
      "type": "function"
    },
    {
      "anonymous": false,
      "inputs": [
        {
          "indexed": true,
          "name": "_from",
          "type": "address"
        },
        {
          "indexed": true,
          "name": "_to",
          "type": "address"
        },
        {
          "indexed": false,
          "name": "_tokenId",
          "type": "uint256"
        }
      ],
      "name": "Transfer",
      "type": "event"
    },
    {
      "anonymous": false,
      "inputs": [
        {
          "indexed": true,
          "name": "_owner",
          "type": "address"
        },
        {
          "indexed": true,
          "name": "_approved",
          "type": "address"
        },
        {
          "indexed": false,
          "name": "_tokenId",
          "type": "uint256"
        }
      ],
      "name": "Approval",
      "type": "event"
    },
    {
      "anonymous": false,
      "inputs": [
        {
          "indexed": true,
          "name": "_owner",
          "type": "address"
        },
        {
          "indexed": true,
          "name": "_operator",
          "type": "address"
        },
        {
          "indexed": false,
          "name": "_approved",
          "type": "bool"
        }
      ],
      "name": "ApprovalForAll",
      "type": "event"
    },
    {
      "constant": true,
      "inputs": [
        {
          "name": "_tokenId",
          "type": "uint256"
        }
      ],
      "name": "getArtistAddress",
      "outputs": [
        {
          "name": "",
          "type": "address"
        }
      ],
      "payable": false,
      "stateMutability": "view",
      "type": "function"
    },
    {
      "constant": true,
      "inputs": [
        {
          "name": "_tokenId",
          "type": "uint256"
        }
      ],
      "name": "getRoyaltyPercentage",
      "outputs": [
        {
          "name": "",
          "type": "uint8"
        }
      ],
      "payable": false,
      "stateMutability": "view",
      "type": "function"
    },
    {
      "constant": true,
      "inputs": [
        {
          "name": "_owner",
          "type": "address"
        },
        {
          "name": "_index",
          "type": "uint256"
        }
      ],
      "name": "tokenOfOwnerByIndex",
      "outputs": [
        {
          "name": "",
          "type": "uint256"
        }
      ],
      "payable": false,
      "stateMutability": "view",
      "type": "function"
    },
    {
      "constant": true,
      "inputs": [],
      "name": "totalSupply",
      "outputs": [
        {
          "name": "",
          "type": "uint256"
        }
      ],
      "payable": false,
      "stateMutability": "view",
      "type": "function"
    },
    {
      "constant": true,
      "inputs": [
        {
          "name": "_index",
          "type": "uint256"
        }
      ],
      "name": "tokenByIndex",
      "outputs": [
        {
          "name": "",
          "type": "uint256"
        }
      ],
      "payable": false,
      "stateMutability": "view",
      "type": "function"
    },
    {
      "constant": true,
      "inputs": [
        {
          "name": "_index",
          "type": "uint256"
        }
      ],
      "name": "tokenDataByIndex",
      "outputs": [
        {
          "name": "",
          "type": "string"
        },
        {
          "name": "",
          "type": "string"
        },
        {
          "name": "",
          "type": "address"
        },
        {
          "name": "",
          "type": "uint256"
        },
        {
          "name": "",
          "type": "uint256"
        },
        {
          "name": "",
          "type": "uint8"
        },
        {
          "name": "",
          "type": "bool"
        }
      ],
      "payable": false,
      "stateMutability": "view",
      "type": "function"
    },
    {
      "constant": false,
      "inputs": [
        {
          "name": "_name",
          "type": "string"
        },
        {
          "name": "_description",
          "type": "string"
        }
      ],
      "name": "mint",
      "outputs": [],
      "payable": false,
      "stateMutability": "nonpayable",
      "type": "function"
    },
    {
      "constant": false,
      "inputs": [
        {
          "name": "_name",
          "type": "string"
        },
        {
          "name": "_description",
          "type": "string"
        },
        {
          "name": "_numToken",
          "type": "uint8"
        }
      ],
      "name": "batchMint",
      "outputs": [],
      "payable": false,
      "stateMutability": "nonpayable",
      "type": "function"
    },
    {
      "constant": false,
      "inputs": [
        {
          "name": "_tokenId",
          "type": "uint256"
        }
      ],
      "name": "toggleRedeem",
      "outputs": [],
      "payable": false,
      "stateMutability": "nonpayable",
      "type": "function"
    }
  ],
  "bytecode": "0x608060405234801561001057600080fd5b50612db2806100206000396000f30060806040526004361061015f576000357c0100000000000000000000000000000000000000000000000000000000900463ffffffff168063081812fc14610164578063095ea7b3146101d15780630ee8d85a1461021e5780630f8f9ee1146102c457806318160ddd1461036a57806323b872dd146103955780632f745c59146104025780633239c60d1461046357806336b84895146104a457806341672a46146104eb57806342842e0e146105a75780634f558e79146106145780634f6ccce71461065957806350ec5ace1461069a5780636352211e1461080557806370a082311461087257806376a17510146108c95780637baca6cd146109105780637fc859171461097d5780638aa0fdad146109ea5780639dbc21d214610a99578063a22cb46514610ade578063b88d4fde14610b2d578063d31fbd5414610be0578063d47ada7014610c0d578063e6bea79414610c64578063e985e9c514610ca5575b600080fd5b34801561017057600080fd5b5061018f60048036038101908080359060200190929190505050610d20565b604051808273ffffffffffffffffffffffffffffffffffffffff1673ffffffffffffffffffffffffffffffffffffffff16815260200191505060405180910390f35b3480156101dd57600080fd5b5061021c600480360381019080803573ffffffffffffffffffffffffffffffffffffffff16906020019092919080359060200190929190505050610d5d565b005b34801561022a57600080fd5b5061024960048036038101908080359060200190929190505050610f23565b6040518080602001828103825283818151815260200191508051906020019080838360005b8381101561028957808201518184015260208101905061026e565b50505050905090810190601f1680156102b65780820380516001836020036101000a031916815260200191505b509250505060405180910390f35b3480156102d057600080fd5b506102ef60048036038101908080359060200190929190505050610fd3565b6040518080602001828103825283818151815260200191508051906020019080838360005b8381101561032f578082015181840152602081019050610314565b50505050905090810190601f16801561035c5780820380516001836020036101000a031916815260200191505b509250505060405180910390f35b34801561037657600080fd5b5061037f611083565b6040518082815260200191505060405180910390f35b3480156103a157600080fd5b50610400600480360381019080803573ffffffffffffffffffffffffffffffffffffffff169060200190929190803573ffffffffffffffffffffffffffffffffffffffff16906020019092919080359060200190929190505050611090565b005b34801561040e57600080fd5b5061044d600480360381019080803573ffffffffffffffffffffffffffffffffffffffff169060200190929190803590602001909291905050506111a7565b6040518082815260200191505060405180910390f35b34801561046f57600080fd5b5061048e6004803603810190808035906020019092919050505061121e565b6040518082815260200191505060405180910390f35b3480156104b057600080fd5b506104cf60048036038101908080359060200190929190505050611236565b604051808260ff1660ff16815260200191505060405180910390f35b3480156104f757600080fd5b506105a5600480360381019080803590602001908201803590602001908080601f0160208091040260200160405190810160405280939291908181526020018383808284378201915050505050509192919290803590602001908201803590602001908080601f0160208091040260200160405190810160405280939291908181526020018383808284378201915050505050509192919290803560ff169060200190929190505050611256565b005b3480156105b357600080fd5b50610612600480360381019080803573ffffffffffffffffffffffffffffffffffffffff169060200190929190803573ffffffffffffffffffffffffffffffffffffffff169060200190929190803590602001909291905050506112ad565b005b34801561062057600080fd5b5061063f600480360381019080803590602001909291905050506112e5565b604051808215151515815260200191505060405180910390f35b34801561066557600080fd5b5061068460048036038101908080359060200190929190505050611356565b6040518082815260200191505060405180910390f35b3480156106a657600080fd5b506106c56004803603810190808035906020019092919050505061138e565b6040518080602001806020018873ffffffffffffffffffffffffffffffffffffffff1673ffffffffffffffffffffffffffffffffffffffff1681526020018781526020018681526020018560ff1660ff1681526020018415151515815260200183810383528a818151815260200191508051906020019080838360005b8381101561075d578082015181840152602081019050610742565b50505050905090810190601f16801561078a5780820380516001836020036101000a031916815260200191505b50838103825289818151815260200191508051906020019080838360005b838110156107c35780820151818401526020810190506107a8565b50505050905090810190601f1680156107f05780820380516001836020036101000a031916815260200191505b50995050505050505050505060405180910390f35b34801561081157600080fd5b50610830600480360381019080803590602001909291905050506115c3565b604051808273ffffffffffffffffffffffffffffffffffffffff1673ffffffffffffffffffffffffffffffffffffffff16815260200191505060405180910390f35b34801561087e57600080fd5b506108b3600480360381019080803573ffffffffffffffffffffffffffffffffffffffff169060200190929190505050611640565b6040518082815260200191505060405180910390f35b3480156108d557600080fd5b506108f4600480360381019080803590602001909291905050506116c4565b604051808260ff1660ff16815260200191505060405180910390f35b34801561091c57600080fd5b5061093b600480360381019080803590602001909291905050506116ee565b604051808273ffffffffffffffffffffffffffffffffffffffff1673ffffffffffffffffffffffffffffffffffffffff16815260200191505060405180910390f35b34801561098957600080fd5b506109a86004803603810190808035906020019092919050505061172b565b604051808273ffffffffffffffffffffffffffffffffffffffff1673ffffffffffffffffffffffffffffffffffffffff16815260200191505060405180910390f35b3480156109f657600080fd5b50610a97600480360381019080803590602001908201803590602001908080601f0160208091040260200160405190810160405280939291908181526020018383808284378201915050505050509192919290803590602001908201803590602001908080601f016020809104026020016040519081016040528093929190818152602001838380828437820191505050505050919291929050505061175e565b005b348015610aa557600080fd5b50610ac460048036038101908080359060200190929190505050611b0b565b604051808215151515815260200191505060405180910390f35b348015610aea57600080fd5b50610b2b600480360381019080803573ffffffffffffffffffffffffffffffffffffffff169060200190929190803515159060200190929190505050611b2b565b005b348015610b3957600080fd5b50610bde600480360381019080803573ffffffffffffffffffffffffffffffffffffffff169060200190929190803573ffffffffffffffffffffffffffffffffffffffff16906020019092919080359060200190929190803590602001908201803590602001908080601f0160208091040260200160405190810160405280939291908181526020018383808284378201915050505050509192919290505050611c67565b005b348015610bec57600080fd5b50610c0b60048036038101908080359060200190929190505050611ca6565b005b348015610c1957600080fd5b50610c4e600480360381019080803573ffffffffffffffffffffffffffffffffffffffff1690602001909291905050506120bf565b6040518082815260200191505060405180910390f35b348015610c7057600080fd5b50610c8f600480360381019080803590602001909291905050506120d7565b6040518082815260200191505060405180910390f35b348015610cb157600080fd5b50610d06600480360381019080803573ffffffffffffffffffffffffffffffffffffffff169060200190929190803573ffffffffffffffffffffffffffffffffffffffff1690602001909291905050506120ef565b604051808215151515815260200191505060405180910390f35b60006001600083815260200190815260200160002060009054906101000a900473ffffffffffffffffffffffffffffffffffffffff169050919050565b6000610d68826115c3565b90508073ffffffffffffffffffffffffffffffffffffffff168373ffffffffffffffffffffffffffffffffffffffff1614151515610da557600080fd5b8073ffffffffffffffffffffffffffffffffffffffff163373ffffffffffffffffffffffffffffffffffffffff161480610de55750610de481336120ef565b5b1515610df057600080fd5b600073ffffffffffffffffffffffffffffffffffffffff16610e1183610d20565b73ffffffffffffffffffffffffffffffffffffffff16141580610e615750600073ffffffffffffffffffffffffffffffffffffffff168373ffffffffffffffffffffffffffffffffffffffff1614155b15610f1e57826001600084815260200190815260200160002060006101000a81548173ffffffffffffffffffffffffffffffffffffffff021916908373ffffffffffffffffffffffffffffffffffffffff1602179055508273ffffffffffffffffffffffffffffffffffffffff168173ffffffffffffffffffffffffffffffffffffffff167f8c5be1e5ebec7d5bd14f71427d1e84f3dd0314c0f7b2291e5b200ac8c7c3b925846040518082815260200191505060405180910390a35b505050565b600b6020528060005260406000206000915090508054600181600116156101000203166002900480601f016020809104026020016040519081016040528092919081815260200182805460018160011615610100020316600290048015610fcb5780601f10610fa057610100808354040283529160200191610fcb565b820191906000526020600020905b815481529060010190602001808311610fae57829003601f168201915b505050505081565b600a6020528060005260406000206000915090508054600181600116156101000203166002900480601f01602080910402602001604051908101604052809291908181526020018280546001816001161561010002031660029004801561107b5780601f106110505761010080835404028352916020019161107b565b820191906000526020600020905b81548152906001019060200180831161105e57829003601f168201915b505050505081565b6000600780549050905090565b8061109b3382612183565b15156110a657600080fd5b600073ffffffffffffffffffffffffffffffffffffffff168473ffffffffffffffffffffffffffffffffffffffff16141515156110e257600080fd5b600073ffffffffffffffffffffffffffffffffffffffff168373ffffffffffffffffffffffffffffffffffffffff161415151561111e57600080fd5b6111288483612218565b6111328483612381565b61113c8383612599565b8273ffffffffffffffffffffffffffffffffffffffff168473ffffffffffffffffffffffffffffffffffffffff167fddf252ad1be2c89b69c2b068fc378daa952ba7f163c4a11628f55a4df523b3ef846040518082815260200191505060405180910390a350505050565b60006111b283611640565b821015156111bf57600080fd5b600560008473ffffffffffffffffffffffffffffffffffffffff1673ffffffffffffffffffffffffffffffffffffffff1681526020019081526020016000208281548110151561120b57fe5b9060005260206000200154905092915050565b600e6020528060005260406000206000915090505481565b600f6020528060005260406000206000915054906101000a900460ff1681565b600060058260ff161115151561126b57600080fd5b60008260ff1611151561127d57600080fd5b600090505b8160ff168160ff1610156112a75761129a848461175e565b8080600101915050611282565b50505050565b806112b83382612183565b15156112c357600080fd5b6112df8484846020604051908101604052806000815250611c67565b50505050565b60008060008084815260200190815260200160002060009054906101000a900473ffffffffffffffffffffffffffffffffffffffff169050600073ffffffffffffffffffffffffffffffffffffffff168173ffffffffffffffffffffffffffffffffffffffff161415915050919050565b6000611360611083565b8210151561136d57600080fd5b60078281548110151561137c57fe5b90600052602060002001549050919050565b60608060008060008060006113a1611083565b881015156113ae57600080fd5b600a6000898152602001908152602001600020600b60008a8152602001908152602001600020600c60008b815260200190815260200160002060009054906101000a900473ffffffffffffffffffffffffffffffffffffffff16600d60008c815260200190815260200160002054600e60008d815260200190815260200160002054600f60008e815260200190815260200160002060009054906101000a900460ff16601060008f815260200190815260200160002060009054906101000a900460ff16868054600181600116156101000203166002900480601f0160208091040260200160405190810160405280929190818152602001828054600181600116156101000203166002900480156115075780601f106114dc57610100808354040283529160200191611507565b820191906000526020600020905b8154815290600101906020018083116114ea57829003601f168201915b50505050509650858054600181600116156101000203166002900480601f0160208091040260200160405190810160405280929190818152602001828054600181600116156101000203166002900480156115a35780601f10611578576101008083540402835291602001916115a3565b820191906000526020600020905b81548152906001019060200180831161158657829003601f168201915b505050505095509650965096509650965096509650919395979092949650565b60008060008084815260200190815260200160002060009054906101000a900473ffffffffffffffffffffffffffffffffffffffff169050600073ffffffffffffffffffffffffffffffffffffffff168173ffffffffffffffffffffffffffffffffffffffff161415151561163757600080fd5b80915050919050565b60008073ffffffffffffffffffffffffffffffffffffffff168273ffffffffffffffffffffffffffffffffffffffff161415151561167d57600080fd5b600260008373ffffffffffffffffffffffffffffffffffffffff1673ffffffffffffffffffffffffffffffffffffffff168152602001908152602001600020549050919050565b6000600f600083815260200190815260200160002060009054906101000a900460ff169050919050565b6000600c600083815260200190815260200160002060009054906101000a900473ffffffffffffffffffffffffffffffffffffffff169050919050565b600c6020528060005260406000206000915054906101000a900473ffffffffffffffffffffffffffffffffffffffff1681565b60008060008061177333600480549050612670565b429350600960003373ffffffffffffffffffffffffffffffffffffffff1673ffffffffffffffffffffffffffffffffffffffff168152602001908152602001600020549250600780549050600860008381526020019081526020016000208190555060078190806001815401808255809150509060018203906000526020600020016000909192909190915055506005915061196d6001600460e0604051908101604052808a81526020018981526020013373ffffffffffffffffffffffffffffffffffffffff1681526020018781526020018881526020018660ff168152602001600015158152509080600181540180825580915050906001820390600052602060002090600602016000909192909190915060008201518160000190805190602001906118a3929190612bdc565b5060208201518160010190805190602001906118c0929190612bdc565b5060408201518160020160006101000a81548173ffffffffffffffffffffffffffffffffffffffff021916908373ffffffffffffffffffffffffffffffffffffffff160217905550606082015181600301556080820151816004015560a08201518160050160006101000a81548160ff021916908360ff16021790555060c08201518160050160016101000a81548160ff021916908315150217905550505061272090919063ffffffff16565b90506119c26001600960003373ffffffffffffffffffffffffffffffffffffffff1673ffffffffffffffffffffffffffffffffffffffff1681526020019081526020016000205461273990919063ffffffff16565b600960003373ffffffffffffffffffffffffffffffffffffffff1673ffffffffffffffffffffffffffffffffffffffff1681526020019081526020016000208190555085600a60008381526020019081526020016000209080519060200190611a2c929190612c5c565b5084600b60008381526020019081526020016000209080519060200190611a54929190612c5c565b5033600c600083815260200190815260200160002060006101000a81548173ffffffffffffffffffffffffffffffffffffffff021916908373ffffffffffffffffffffffffffffffffffffffff16021790555082600d60008381526020019081526020016000208190555083600e60008381526020019081526020016000208190555081600f600083815260200190815260200160002060006101000a81548160ff021916908360ff160217905550505050505050565b60106020528060005260406000206000915054906101000a900460ff1681565b3373ffffffffffffffffffffffffffffffffffffffff168273ffffffffffffffffffffffffffffffffffffffff1614151515611b6657600080fd5b80600360003373ffffffffffffffffffffffffffffffffffffffff1673ffffffffffffffffffffffffffffffffffffffff16815260200190815260200160002060008473ffffffffffffffffffffffffffffffffffffffff1673ffffffffffffffffffffffffffffffffffffffff16815260200190815260200160002060006101000a81548160ff0219169083151502179055508173ffffffffffffffffffffffffffffffffffffffff163373ffffffffffffffffffffffffffffffffffffffff167f17307eab39ab6107e8899845ad3d59bd9653f200f220920489ca2b5937696c3183604051808215151515815260200191505060405180910390a35050565b81611c723382612183565b1515611c7d57600080fd5b611c88858585611090565b611c9485858585612755565b1515611c9f57600080fd5b5050505050565b6000611cb0612cdc565b600c600084815260200190815260200160002060009054906101000a900473ffffffffffffffffffffffffffffffffffffffff1673ffffffffffffffffffffffffffffffffffffffff163373ffffffffffffffffffffffffffffffffffffffff16141515611d1d57600080fd5b600115156010600085815260200190815260200160002060009054906101000a900460ff1615151415611d535760009150611d58565b600191505b816010600085815260200190815260200160002060006101000a81548160ff02191690831515021790555060e060405190810160405280600a60008681526020019081526020016000208054600181600116156101000203166002900480601f016020809104026020016040519081016040528092919081815260200182805460018160011615610100020316600290048015611e365780601f10611e0b57610100808354040283529160200191611e36565b820191906000526020600020905b815481529060010190602001808311611e1957829003601f168201915b50505050508152602001600b60008681526020019081526020016000208054600181600116156101000203166002900480601f016020809104026020016040519081016040528092919081815260200182805460018160011615610100020316600290048015611ee75780601f10611ebc57610100808354040283529160200191611ee7565b820191906000526020600020905b815481529060010190602001808311611eca57829003601f168201915b50505050508152602001600c600086815260200190815260200160002060009054906101000a900473ffffffffffffffffffffffffffffffffffffffff1673ffffffffffffffffffffffffffffffffffffffff168152602001600d6000868152602001908152602001600020548152602001600e6000868152602001908152602001600020548152602001600f600086815260200190815260200160002060009054906101000a900460ff1660ff1681526020016010600086815260200190815260200160002060009054906101000a900460ff161515815250905080600484815481101515611fd357fe5b90600052602060002090600602016000820151816000019080519060200190611ffd929190612bdc565b50602082015181600101908051906020019061201a929190612bdc565b5060408201518160020160006101000a81548173ffffffffffffffffffffffffffffffffffffffff021916908373ffffffffffffffffffffffffffffffffffffffff160217905550606082015181600301556080820151816004015560a08201518160050160006101000a81548160ff021916908360ff16021790555060c08201518160050160016101000a81548160ff021916908315150217905550905050505050565b60096020528060005260406000206000915090505481565b600d6020528060005260406000206000915090505481565b6000600360008473ffffffffffffffffffffffffffffffffffffffff1673ffffffffffffffffffffffffffffffffffffffff16815260200190815260200160002060008373ffffffffffffffffffffffffffffffffffffffff1673ffffffffffffffffffffffffffffffffffffffff16815260200190815260200160002060009054906101000a900460ff16905092915050565b60008061218f836115c3565b90508073ffffffffffffffffffffffffffffffffffffffff168473ffffffffffffffffffffffffffffffffffffffff1614806121fe57508373ffffffffffffffffffffffffffffffffffffffff166121e684610d20565b73ffffffffffffffffffffffffffffffffffffffff16145b8061220f575061220e81856120ef565b5b91505092915050565b8173ffffffffffffffffffffffffffffffffffffffff16612238826115c3565b73ffffffffffffffffffffffffffffffffffffffff1614151561225a57600080fd5b600073ffffffffffffffffffffffffffffffffffffffff166001600083815260200190815260200160002060009054906101000a900473ffffffffffffffffffffffffffffffffffffffff1673ffffffffffffffffffffffffffffffffffffffff1614151561237d5760006001600083815260200190815260200160002060006101000a81548173ffffffffffffffffffffffffffffffffffffffff021916908373ffffffffffffffffffffffffffffffffffffffff160217905550600073ffffffffffffffffffffffffffffffffffffffff168273ffffffffffffffffffffffffffffffffffffffff167f8c5be1e5ebec7d5bd14f71427d1e84f3dd0314c0f7b2291e5b200ac8c7c3b925836040518082815260200191505060405180910390a35b5050565b60008060006123908585612943565b600660008581526020019081526020016000205492506123fc6001600560008873ffffffffffffffffffffffffffffffffffffffff1673ffffffffffffffffffffffffffffffffffffffff1681526020019081526020016000208054905061272090919063ffffffff16565b9150600560008673ffffffffffffffffffffffffffffffffffffffff1673ffffffffffffffffffffffffffffffffffffffff1681526020019081526020016000208281548110151561244a57fe5b9060005260206000200154905080600560008773ffffffffffffffffffffffffffffffffffffffff1673ffffffffffffffffffffffffffffffffffffffff168152602001908152602001600020848154811015156124a457fe5b90600052602060002001819055506000600560008773ffffffffffffffffffffffffffffffffffffffff1673ffffffffffffffffffffffffffffffffffffffff1681526020019081526020016000208381548110151561250057fe5b9060005260206000200181905550600560008673ffffffffffffffffffffffffffffffffffffffff1673ffffffffffffffffffffffffffffffffffffffff1681526020019081526020016000208054809190600190036125609190612d35565b50600060066000868152602001908152602001600020819055508260066000838152602001908152602001600020819055505050505050565b60006125a58383612a71565b600560008473ffffffffffffffffffffffffffffffffffffffff1673ffffffffffffffffffffffffffffffffffffffff168152602001908152602001600020805490509050600560008473ffffffffffffffffffffffffffffffffffffffff1673ffffffffffffffffffffffffffffffffffffffff168152602001908152602001600020829080600181540180825580915050906001820390600052602060002001600090919290919091505550806006600084815260200190815260200160002081905550505050565b600073ffffffffffffffffffffffffffffffffffffffff168273ffffffffffffffffffffffffffffffffffffffff16141515156126ac57600080fd5b6126b68282612599565b8173ffffffffffffffffffffffffffffffffffffffff16600073ffffffffffffffffffffffffffffffffffffffff167fddf252ad1be2c89b69c2b068fc378daa952ba7f163c4a11628f55a4df523b3ef836040518082815260200191505060405180910390a35050565b600082821115151561272e57fe5b818303905092915050565b6000818301905082811015151561274c57fe5b80905092915050565b6000806127778573ffffffffffffffffffffffffffffffffffffffff16612bc9565b1515612786576001915061293a565b8473ffffffffffffffffffffffffffffffffffffffff1663f0b9e5ba8786866040518463ffffffff167c0100000000000000000000000000000000000000000000000000000000028152600401808473ffffffffffffffffffffffffffffffffffffffff1673ffffffffffffffffffffffffffffffffffffffff16815260200183815260200180602001828103825283818151815260200191508051906020019080838360005b8381101561284857808201518184015260208101905061282d565b50505050905090810190601f1680156128755780820380516001836020036101000a031916815260200191505b50945050505050602060405180830381600087803b15801561289657600080fd5b505af11580156128aa573d6000803e3d6000fd5b505050506040513d60208110156128c057600080fd5b8101908080519060200190929190505050905063f0b9e5ba7c0100000000000000000000000000000000000000000000000000000000027bffffffffffffffffffffffffffffffffffffffffffffffffffffffff1916817bffffffffffffffffffffffffffffffffffffffffffffffffffffffff19161491505b50949350505050565b8173ffffffffffffffffffffffffffffffffffffffff16612963826115c3565b73ffffffffffffffffffffffffffffffffffffffff1614151561298557600080fd5b6129d86001600260008573ffffffffffffffffffffffffffffffffffffffff1673ffffffffffffffffffffffffffffffffffffffff1681526020019081526020016000205461272090919063ffffffff16565b600260008473ffffffffffffffffffffffffffffffffffffffff1673ffffffffffffffffffffffffffffffffffffffff16815260200190815260200160002081905550600080600083815260200190815260200160002060006101000a81548173ffffffffffffffffffffffffffffffffffffffff021916908373ffffffffffffffffffffffffffffffffffffffff1602179055505050565b600073ffffffffffffffffffffffffffffffffffffffff1660008083815260200190815260200160002060009054906101000a900473ffffffffffffffffffffffffffffffffffffffff1673ffffffffffffffffffffffffffffffffffffffff16141515612ade57600080fd5b8160008083815260200190815260200160002060006101000a81548173ffffffffffffffffffffffffffffffffffffffff021916908373ffffffffffffffffffffffffffffffffffffffff160217905550612b826001600260008573ffffffffffffffffffffffffffffffffffffffff1673ffffffffffffffffffffffffffffffffffffffff1681526020019081526020016000205461273990919063ffffffff16565b600260008473ffffffffffffffffffffffffffffffffffffffff1673ffffffffffffffffffffffffffffffffffffffff168152602001908152602001600020819055505050565b600080823b905060008111915050919050565b828054600181600116156101000203166002900490600052602060002090601f016020900481019282601f10612c1d57805160ff1916838001178555612c4b565b82800160010185558215612c4b579182015b82811115612c4a578251825591602001919060010190612c2f565b5b509050612c589190612d61565b5090565b828054600181600116156101000203166002900490600052602060002090601f016020900481019282601f10612c9d57805160ff1916838001178555612ccb565b82800160010185558215612ccb579182015b82811115612cca578251825591602001919060010190612caf565b5b509050612cd89190612d61565b5090565b60e0604051908101604052806060815260200160608152602001600073ffffffffffffffffffffffffffffffffffffffff1681526020016000815260200160008152602001600060ff1681526020016000151581525090565b815481835581811115612d5c57818360005260206000209182019101612d5b9190612d61565b5b505050565b612d8391905b80821115612d7f576000816000905550600101612d67565b5090565b905600a165627a7a72305820b6fe673d0c7462e69c46fb042cac13a65bc500959575b15eca0cebf166150f3c0029",
  "source": "pragma solidity ^0.4.21;\n\nimport \"./ERC721.sol\";\nimport \"./ERC721BasicToken.sol\";\n\n\ncontract HypeToken is ERC721, ERC721BasicToken {\n  using SafeMath for uint256;\n  using AddressUtils for address;\n\n\n  /// @notice struct that holds token data\n  /// @param name the name of the token\n  /// @param description information about the token, you may indicate benefits \n  ///   the token confers and the time it is valid until.\n  /// @param artistAddress the address of the artist who created the token\n  /// @param artistTokenNumber the number of tokens created by the artist. \n  ///   eg 1st token, 2nd, ..., nth token\n  /// @param timeCreated the block timestamp time where the token was created\n  /// @param royaltyPercentage the royalty percentage the artist receives from \n  ///   exchange of the token. Fixed at 5%.\n                            \n  /**\n   * @dev Struct to hold token data\n   * @param name This is the name of the ERC721 token as defined by the artist\n   * @param description This contains the description about the token. Artist may indicate benefits\n   *    conferred by the token. (e.g. Holder of the token is entitled to backstage access for life) \n   * @param artistAddress Ethereum address of Artist, the account that minted the token is the artist\n   * @param artistTokenNumber Number of ERC721 tokens minted by an address\n   * @param artistRoyaltyPercentage Artist address gets a 5% commission from sale of token\n\n   * @param firstOwnerAddress Ethereum address of first person who owned the token\n   * @param firstOwnerRoyaltyPercentage First owner address gets a 2.5% commision from sale of token\n\n   * @param timeCreated Epoch time \n   */  \n  struct TokenData {\n    string name;\n    string description;\n    address artistAddress;\n    uint256 artistTokenNumber;\n    uint256 timeCreated;\n    uint8 royaltyPercentage;\n    bool redeemed;\n  }\n\n  TokenData[] internal tokens;\n\n  // Mapping from owner to list of owned token ID\n  mapping (address => uint256[]) internal ownedTokens;\n  \n  // Mapping from token ID to index of ower token list\n  mapping (uint256 => uint256) internal ownedTokensIndex;\n \n // Array with all token ids, used for enumeration\n  uint256[] internal allTokens; \n\n  // Mapping from token id to position in the allTokens array\n  mapping(uint256 => uint256) internal allTokensIndex;\n\n  // Mapping from address to number of tokens minted by address\n  mapping (address => uint256) public addrToArtistTokenNumber;\n\n  // Mapping for TokenData struct\n  mapping (uint256 => string) public tokenToName;\n  mapping (uint256 => string) public tokenToDescription;\n  mapping (uint256 => address) public tokenToArtistAddress;\n  mapping (uint256 => uint256) public tokenToArtistTokenNumber; \n  mapping (uint256 => uint256) public tokenToTimeCreated;\n  mapping (uint256 => uint8) public tokenToRoyaltyPercentage;\n  mapping (uint256 => bool) public tokenToRedeemed;\n\n  function getArtistAddress(uint256 _tokenId) public view returns (address) {\n      return tokenToArtistAddress[_tokenId];\n  }\n  \n  function getRoyaltyPercentage(uint256 _tokenId) public view returns (uint8) {\n      return tokenToRoyaltyPercentage[_tokenId];\n  }\n\n  /**\n   * @dev Gets the token ID at a given index of the tokens list of the requested owner\n   * @param _owner address owning the tokens list to be accessed\n   * @param _index uint256 representing the index to be accessed of the requested tokens list\n   * @return uint256 token ID at the given index of the tokens list owned by the requested address\n   */\n  function tokenOfOwnerByIndex(address _owner, uint256 _index) public view returns (uint256) {\n    require(_index < balanceOf(_owner));\n    return ownedTokens[_owner][_index];\n  }\n\n  /**\n   * @dev Gets the total amount of tokens stored by the contract\n   * @return uint256 representing the total amount of tokens\n   */\n  function totalSupply() public view returns (uint256) {\n    return allTokens.length;\n  }\n\n  /**\n   * @dev Gets the token ID at a given index of all the tokens in this contract\n   * @dev Reverts if the index is greater or equal to the total number of tokens\n   * @param _index uint256 representing the index to be accessed of the tokens list\n   * @return uint256 token ID at the given index of the tokens list\n   */\n  function tokenByIndex(uint256 _index) public view returns (uint256) {\n    require(_index < totalSupply());\n    return allTokens[_index];\n  }\n  \n  /**\n  * @dev Gets token data at a given index of all the tokens in this contract\n  * @dev Reverts if the index is greater or equal to the total number of tokens\n  * @param _index uint256 representing the index to be accessed of the tokens list\n  * @return data in tokenData struct\n  */\n  function tokenDataByIndex(uint256 _index) public view \n  returns (string, string, address, uint256, uint256, uint8, bool) {\n    require(_index < totalSupply());\n    return (tokenToName[_index],\n            tokenToDescription[_index],\n            tokenToArtistAddress[_index],\n            tokenToArtistTokenNumber[_index],\n            tokenToTimeCreated[_index],\n            tokenToRoyaltyPercentage[_index],\n            tokenToRedeemed[_index]);\n  }\n  \n  /**\n   * @dev Internal function to add a token ID to the list of a given address\n   * @param _to address representing the new owner of the given token ID\n   * @param _tokenId uint256 ID of the token to be added to the tokens list of the given address\n   */\n  function addTokenTo(address _to, uint256 _tokenId) internal {\n    super.addTokenTo(_to, _tokenId);\n    uint256 length = ownedTokens[_to].length;\n    ownedTokens[_to].push(_tokenId);\n    ownedTokensIndex[_tokenId] = length;\n  }  \n\n  /**\n   * @dev Internal function to remove a token ID from the list of a given address\n   * @param _from address representing the previous owner of the given token ID\n   * @param _tokenId uint256 ID of the token to be removed from the tokens list of the given address\n   */\n  function removeTokenFrom(address _from, uint256 _tokenId) internal {\n    super.removeTokenFrom(_from, _tokenId);\n\n    uint256 tokenIndex = ownedTokensIndex[_tokenId];\n    uint256 lastTokenIndex = ownedTokens[_from].length.sub(1);\n    uint256 lastToken = ownedTokens[_from][lastTokenIndex];\n\n    ownedTokens[_from][tokenIndex] = lastToken;\n    ownedTokens[_from][lastTokenIndex] = 0;\n    // Note that this will handle single-element arrays. In that case, both tokenIndex and lastTokenIndex are going to\n    // be zero. Then we can make sure that we will remove _tokenId from the ownedTokens list since we are first swapping\n    // the lastToken to the first position, and then dropping the element placed in the last position of the list\n\n    ownedTokens[_from].length--;\n    ownedTokensIndex[_tokenId] = 0;\n    ownedTokensIndex[lastToken] = tokenIndex;\n  }\n\n  /**\n   * @dev Public function to mint a token, minted token will be credited to the creator\n   * @dev Royalty Percentage is fixed at 5%\n   * @param _name name of token to be minted\n   * @param _description of token to be minted\n   */\n  function mint(string _name, \n                string _description) public {\n\n    super._mint(msg.sender, tokens.length);\n\n    // add data\n    uint256 _timeCreated = now;\n    uint256 _artistTokenNumber = addrToArtistTokenNumber[msg.sender];\n    \n    allTokensIndex[_tokenId] = allTokens.length;\n    allTokens.push(_tokenId);\n    \n    // royalty percentage\n    // use a fixed royalty percentage\n    uint8 _royaltyPercentage = 5;\n    \n    uint256 _tokenId = tokens.push(TokenData(_name,\n                                            _description,\n                                            msg.sender,\n                                            _artistTokenNumber,\n                                            _timeCreated,\n                                            _royaltyPercentage,\n                                            false)).sub(1);\n\n\n    // update mappings\n    addrToArtistTokenNumber[msg.sender] = addrToArtistTokenNumber[msg.sender].add(1);\n    tokenToName[_tokenId] = _name;\n    tokenToDescription[_tokenId] = _description;\n    tokenToArtistAddress[_tokenId] = msg.sender;\n    tokenToArtistTokenNumber[_tokenId] = _artistTokenNumber;\n    tokenToTimeCreated[_tokenId] = _timeCreated;\n    tokenToRoyaltyPercentage[_tokenId] = _royaltyPercentage;\n  }\n  \n  /**\n   * @dev Public function to batch mint a token with same _name and _description\n   * @dev Repeatedly calls mint\n   * @dev reverts if numToken <= 0 or numToken > 5\n   * @param _name name of token to be minted\n   * @param _description of token to be minted\n   * @param _numToken number of tokens to mint\n   */\n  function batchMint(string _name,\n                     string _description,\n                     uint8 _numToken) public {\n    require(_numToken <= 5);\n    require(_numToken > 0);\n    for(uint8 i = 0; i < _numToken; i++) {\n      mint(_name, _description);  \n    }\n  }\n    \n    /**\n     * @dev Toggles token redeemed state\n     * @dev The artist address controls the redeem state\n     * @param _tokenId uint256 id of token\n     */ \n  function toggleRedeem(uint256 _tokenId) public {\n  \n    require(msg.sender == tokenToArtistAddress[_tokenId]);\n    bool state;\n    if(tokenToRedeemed[_tokenId] == true) {\n        state = false;\n    } else {\n        state = true;\n    }\n    // update token address\n    tokenToRedeemed[_tokenId] = state;\n    \n    TokenData memory newData =  TokenData(tokenToName[_tokenId],\n                                          tokenToDescription[_tokenId],\n                                          tokenToArtistAddress[_tokenId],\n                                          tokenToArtistTokenNumber[_tokenId],\n                                          tokenToTimeCreated[_tokenId],\n                                          tokenToRoyaltyPercentage[_tokenId],\n                                          tokenToRedeemed[_tokenId]);\n    tokens[_tokenId] = newData;\n  }\n}\n",
  "sourcePath": "/home/ada/WebApp/smackathon/contracts/HypeToken.sol",
  "compiler": {
    "name": "solc",
    "version": "0.4.24+commit.e67f0147.Emscripten.clang"
  },
  "schemaVersion": "2.0.1",
  "updatedAt": "2018-07-17T19:33:00.291Z"
}