{
  "contractName": "TokenAuction",
  "abi": [
    {
      "constant": true,
      "inputs": [
        {
          "name": "_tokenId",
          "type": "uint256"
        }
      ],
      "name": "getApproved",
      "outputs": [
        {
          "name": "",
          "type": "address"
        }
      ],
      "payable": false,
      "stateMutability": "view",
      "type": "function"
    },
    {
      "constant": false,
      "inputs": [
        {
          "name": "_to",
          "type": "address"
        },
        {
          "name": "_tokenId",
          "type": "uint256"
        }
      ],
      "name": "approve",
      "outputs": [],
      "payable": false,
      "stateMutability": "nonpayable",
      "type": "function"
    },
    {
      "constant": true,
      "inputs": [
        {
          "name": "",
          "type": "uint256"
        }
      ],
      "name": "tokenToDescription",
      "outputs": [
        {
          "name": "",
          "type": "string"
        }
      ],
      "payable": false,
      "stateMutability": "view",
      "type": "function"
    },
    {
      "constant": true,
      "inputs": [
        {
          "name": "",
          "type": "uint256"
        }
      ],
      "name": "tokenToName",
      "outputs": [
        {
          "name": "",
          "type": "string"
        }
      ],
      "payable": false,
      "stateMutability": "view",
      "type": "function"
    },
    {
      "constant": true,
      "inputs": [],
      "name": "totalSupply",
      "outputs": [
        {
          "name": "",
          "type": "uint256"
        }
      ],
      "payable": false,
      "stateMutability": "view",
      "type": "function"
    },
    {
      "constant": false,
      "inputs": [
        {
          "name": "_from",
          "type": "address"
        },
        {
          "name": "_to",
          "type": "address"
        },
        {
          "name": "_tokenId",
          "type": "uint256"
        }
      ],
      "name": "transferFrom",
      "outputs": [],
      "payable": false,
      "stateMutability": "nonpayable",
      "type": "function"
    },
    {
      "constant": true,
      "inputs": [
        {
          "name": "_owner",
          "type": "address"
        },
        {
          "name": "_index",
          "type": "uint256"
        }
      ],
      "name": "tokenOfOwnerByIndex",
      "outputs": [
        {
          "name": "",
          "type": "uint256"
        }
      ],
      "payable": false,
      "stateMutability": "view",
      "type": "function"
    },
    {
      "constant": true,
      "inputs": [
        {
          "name": "",
          "type": "uint256"
        }
      ],
      "name": "tokenToTimeCreated",
      "outputs": [
        {
          "name": "",
          "type": "uint256"
        }
      ],
      "payable": false,
      "stateMutability": "view",
      "type": "function"
    },
    {
      "constant": true,
      "inputs": [
        {
          "name": "",
          "type": "uint256"
        }
      ],
      "name": "tokenToRoyaltyPercentage",
      "outputs": [
        {
          "name": "",
          "type": "uint8"
        }
      ],
      "payable": false,
      "stateMutability": "view",
      "type": "function"
    },
    {
      "constant": false,
      "inputs": [
        {
          "name": "_name",
          "type": "string"
        },
        {
          "name": "_description",
          "type": "string"
        },
        {
          "name": "_numToken",
          "type": "uint8"
        }
      ],
      "name": "batchMint",
      "outputs": [],
      "payable": false,
      "stateMutability": "nonpayable",
      "type": "function"
    },
    {
      "constant": false,
      "inputs": [
        {
          "name": "_from",
          "type": "address"
        },
        {
          "name": "_to",
          "type": "address"
        },
        {
          "name": "_tokenId",
          "type": "uint256"
        }
      ],
      "name": "safeTransferFrom",
      "outputs": [],
      "payable": false,
      "stateMutability": "nonpayable",
      "type": "function"
    },
    {
      "constant": true,
      "inputs": [
        {
          "name": "_tokenId",
          "type": "uint256"
        }
      ],
      "name": "exists",
      "outputs": [
        {
          "name": "",
          "type": "bool"
        }
      ],
      "payable": false,
      "stateMutability": "view",
      "type": "function"
    },
    {
      "constant": true,
      "inputs": [
        {
          "name": "_index",
          "type": "uint256"
        }
      ],
      "name": "tokenByIndex",
      "outputs": [
        {
          "name": "",
          "type": "uint256"
        }
      ],
      "payable": false,
      "stateMutability": "view",
      "type": "function"
    },
    {
      "constant": true,
      "inputs": [
        {
          "name": "_index",
          "type": "uint256"
        }
      ],
      "name": "tokenDataByIndex",
      "outputs": [
        {
          "name": "",
          "type": "string"
        },
        {
          "name": "",
          "type": "string"
        },
        {
          "name": "",
          "type": "address"
        },
        {
          "name": "",
          "type": "uint256"
        },
        {
          "name": "",
          "type": "uint256"
        },
        {
          "name": "",
          "type": "uint8"
        },
        {
          "name": "",
          "type": "bool"
        }
      ],
      "payable": false,
      "stateMutability": "view",
      "type": "function"
    },
    {
      "constant": true,
      "inputs": [
        {
          "name": "",
          "type": "uint256"
        }
      ],
      "name": "completedAuctions",
      "outputs": [
        {
          "name": "seller",
          "type": "address"
        },
        {
          "name": "artist",
          "type": "address"
        },
        {
          "name": "topBidder",
          "type": "address"
        },
        {
          "name": "startPrice",
          "type": "uint256"
        },
        {
          "name": "endPrice",
          "type": "uint256"
        },
        {
          "name": "auctionStart",
          "type": "uint64"
        },
        {
          "name": "auctionClose",
          "type": "uint64"
        },
        {
          "name": "royaltyPercentage",
          "type": "uint8"
        }
      ],
      "payable": false,
      "stateMutability": "view",
      "type": "function"
    },
    {
      "constant": true,
      "inputs": [
        {
          "name": "_tokenId",
          "type": "uint256"
        }
      ],
      "name": "ownerOf",
      "outputs": [
        {
          "name": "",
          "type": "address"
        }
      ],
      "payable": false,
      "stateMutability": "view",
      "type": "function"
    },
    {
      "constant": true,
      "inputs": [
        {
          "name": "_owner",
          "type": "address"
        }
      ],
      "name": "balanceOf",
      "outputs": [
        {
          "name": "",
          "type": "uint256"
        }
      ],
      "payable": false,
      "stateMutability": "view",
      "type": "function"
    },
    {
      "constant": true,
      "inputs": [
        {
          "name": "_tokenId",
          "type": "uint256"
        }
      ],
      "name": "getRoyaltyPercentage",
      "outputs": [
        {
          "name": "",
          "type": "uint8"
        }
      ],
      "payable": false,
      "stateMutability": "view",
      "type": "function"
    },
    {
      "constant": true,
      "inputs": [
        {
          "name": "_tokenId",
          "type": "uint256"
        }
      ],
      "name": "getArtistAddress",
      "outputs": [
        {
          "name": "",
          "type": "address"
        }
      ],
      "payable": false,
      "stateMutability": "view",
      "type": "function"
    },
    {
      "constant": true,
      "inputs": [
        {
          "name": "",
          "type": "uint256"
        }
      ],
      "name": "tokenToArtistAddress",
      "outputs": [
        {
          "name": "",
          "type": "address"
        }
      ],
      "payable": false,
      "stateMutability": "view",
      "type": "function"
    },
    {
      "constant": false,
      "inputs": [
        {
          "name": "_name",
          "type": "string"
        },
        {
          "name": "_description",
          "type": "string"
        }
      ],
      "name": "mint",
      "outputs": [],
      "payable": false,
      "stateMutability": "nonpayable",
      "type": "function"
    },
    {
      "constant": true,
      "inputs": [
        {
          "name": "",
          "type": "uint256"
        }
      ],
      "name": "tokenToRedeemed",
      "outputs": [
        {
          "name": "",
          "type": "bool"
        }
      ],
      "payable": false,
      "stateMutability": "view",
      "type": "function"
    },
    {
      "constant": false,
      "inputs": [
        {
          "name": "_to",
          "type": "address"
        },
        {
          "name": "_approved",
          "type": "bool"
        }
      ],
      "name": "setApprovalForAll",
      "outputs": [],
      "payable": false,
      "stateMutability": "nonpayable",
      "type": "function"
    },
    {
      "constant": false,
      "inputs": [
        {
          "name": "_from",
          "type": "address"
        },
        {
          "name": "_to",
          "type": "address"
        },
        {
          "name": "_tokenId",
          "type": "uint256"
        },
        {
          "name": "_data",
          "type": "bytes"
        }
      ],
      "name": "safeTransferFrom",
      "outputs": [],
      "payable": false,
      "stateMutability": "nonpayable",
      "type": "function"
    },
    {
      "constant": false,
      "inputs": [
        {
          "name": "_tokenId",
          "type": "uint256"
        }
      ],
      "name": "toggleRedeem",
      "outputs": [],
      "payable": false,
      "stateMutability": "nonpayable",
      "type": "function"
    },
    {
      "constant": true,
      "inputs": [
        {
          "name": "",
          "type": "address"
        }
      ],
      "name": "addrToArtistTokenNumber",
      "outputs": [
        {
          "name": "",
          "type": "uint256"
        }
      ],
      "payable": false,
      "stateMutability": "view",
      "type": "function"
    },
    {
      "constant": true,
      "inputs": [
        {
          "name": "",
          "type": "uint256"
        }
      ],
      "name": "tokenIdToAuction",
      "outputs": [
        {
          "name": "seller",
          "type": "address"
        },
        {
          "name": "artist",
          "type": "address"
        },
        {
          "name": "topBidder",
          "type": "address"
        },
        {
          "name": "startPrice",
          "type": "uint256"
        },
        {
          "name": "endPrice",
          "type": "uint256"
        },
        {
          "name": "auctionStart",
          "type": "uint64"
        },
        {
          "name": "auctionClose",
          "type": "uint64"
        },
        {
          "name": "royaltyPercentage",
          "type": "uint8"
        }
      ],
      "payable": false,
      "stateMutability": "view",
      "type": "function"
    },
    {
      "constant": true,
      "inputs": [
        {
          "name": "",
          "type": "uint256"
        }
      ],
      "name": "tokenToArtistTokenNumber",
      "outputs": [
        {
          "name": "",
          "type": "uint256"
        }
      ],
      "payable": false,
      "stateMutability": "view",
      "type": "function"
    },
    {
      "constant": true,
      "inputs": [
        {
          "name": "_owner",
          "type": "address"
        },
        {
          "name": "_operator",
          "type": "address"
        }
      ],
      "name": "isApprovedForAll",
      "outputs": [
        {
          "name": "",
          "type": "bool"
        }
      ],
      "payable": false,
      "stateMutability": "view",
      "type": "function"
    },
    {
      "anonymous": false,
      "inputs": [
        {
          "indexed": false,
          "name": "tokenId",
          "type": "uint256"
        },
        {
          "indexed": false,
          "name": "artist",
          "type": "address"
        },
        {
          "indexed": false,
          "name": "startPrice",
          "type": "uint256"
        },
        {
          "indexed": false,
          "name": "auctionStart",
          "type": "uint64"
        },
        {
          "indexed": false,
          "name": "auctionClose",
          "type": "uint64"
        }
      ],
      "name": "AuctionCreated",
      "type": "event"
    },
    {
      "anonymous": false,
      "inputs": [
        {
          "indexed": false,
          "name": "tokenId",
          "type": "uint256"
        },
        {
          "indexed": false,
          "name": "artist",
          "type": "address"
        },
        {
          "indexed": false,
          "name": "bidder",
          "type": "address"
        },
        {
          "indexed": false,
          "name": "startPrice",
          "type": "uint256"
        },
        {
          "indexed": false,
          "name": "endPrice",
          "type": "uint256"
        }
      ],
      "name": "AuctionBidIncreased",
      "type": "event"
    },
    {
      "anonymous": false,
      "inputs": [
        {
          "indexed": false,
          "name": "tokenId",
          "type": "uint256"
        },
        {
          "indexed": false,
          "name": "artist",
          "type": "address"
        },
        {
          "indexed": false,
          "name": "endPrice",
          "type": "uint256"
        },
        {
          "indexed": false,
          "name": "winner",
          "type": "address"
        }
      ],
      "name": "AuctionSuccessful",
      "type": "event"
    },
    {
      "anonymous": false,
      "inputs": [
        {
          "indexed": false,
          "name": "tokenId",
          "type": "uint256"
        }
      ],
      "name": "AuctionCancelled",
      "type": "event"
    },
    {
      "anonymous": false,
      "inputs": [
        {
          "indexed": true,
          "name": "_from",
          "type": "address"
        },
        {
          "indexed": true,
          "name": "_to",
          "type": "address"
        },
        {
          "indexed": false,
          "name": "_tokenId",
          "type": "uint256"
        }
      ],
      "name": "Transfer",
      "type": "event"
    },
    {
      "anonymous": false,
      "inputs": [
        {
          "indexed": true,
          "name": "_owner",
          "type": "address"
        },
        {
          "indexed": true,
          "name": "_approved",
          "type": "address"
        },
        {
          "indexed": false,
          "name": "_tokenId",
          "type": "uint256"
        }
      ],
      "name": "Approval",
      "type": "event"
    },
    {
      "anonymous": false,
      "inputs": [
        {
          "indexed": true,
          "name": "_owner",
          "type": "address"
        },
        {
          "indexed": true,
          "name": "_operator",
          "type": "address"
        },
        {
          "indexed": false,
          "name": "_approved",
          "type": "bool"
        }
      ],
      "name": "ApprovalForAll",
      "type": "event"
    },
    {
      "constant": false,
      "inputs": [
        {
          "name": "_tokenId",
          "type": "uint256"
        },
        {
          "name": "_startPrice",
          "type": "uint256"
        },
        {
          "name": "_duration",
          "type": "uint64"
        }
      ],
      "name": "createAuction",
      "outputs": [],
      "payable": false,
      "stateMutability": "nonpayable",
      "type": "function"
    },
    {
      "constant": false,
      "inputs": [
        {
          "name": "_tokenId",
          "type": "uint256"
        }
      ],
      "name": "cancelAuction",
      "outputs": [],
      "payable": false,
      "stateMutability": "nonpayable",
      "type": "function"
    },
    {
      "constant": false,
      "inputs": [
        {
          "name": "_tokenId",
          "type": "uint256"
        }
      ],
      "name": "bid",
      "outputs": [],
      "payable": true,
      "stateMutability": "payable",
      "type": "function"
    },
    {
      "constant": false,
      "inputs": [
        {
          "name": "_tokenId",
          "type": "uint256"
        }
      ],
      "name": "auctionClose",
      "outputs": [],
      "payable": false,
      "stateMutability": "nonpayable",
      "type": "function"
    },
    {
      "constant": false,
      "inputs": [],
      "name": "withdraw",
      "outputs": [],
      "payable": false,
      "stateMutability": "nonpayable",
      "type": "function"
    },
    {
      "constant": true,
      "inputs": [
        {
          "name": "_tokenId",
          "type": "uint256"
        }
      ],
      "name": "getOpenAuction",
      "outputs": [
        {
          "name": "",
          "type": "address"
        },
        {
          "name": "",
          "type": "address"
        },
        {
          "name": "",
          "type": "address"
        },
        {
          "name": "",
          "type": "uint256"
        },
        {
          "name": "",
          "type": "uint256"
        },
        {
          "name": "",
          "type": "uint64"
        },
        {
          "name": "",
          "type": "uint64"
        },
        {
          "name": "",
          "type": "uint8"
        }
      ],
      "payable": false,
      "stateMutability": "view",
      "type": "function"
    },
    {
      "constant": true,
      "inputs": [
        {
          "name": "_completedAuctionIndex",
          "type": "uint256"
        }
      ],
      "name": "getCompletedAuction",
      "outputs": [
        {
          "name": "",
          "type": "address"
        },
        {
          "name": "",
          "type": "address"
        },
        {
          "name": "",
          "type": "address"
        },
        {
          "name": "",
          "type": "uint256"
        },
        {
          "name": "",
          "type": "uint256"
        },
        {
          "name": "",
          "type": "uint64"
        },
        {
          "name": "",
          "type": "uint64"
        },
        {
          "name": "",
          "type": "uint8"
        }
      ],
      "payable": false,
      "stateMutability": "view",
      "type": "function"
    }
  ],
  "bytecode": "0x608060405234801561001057600080fd5b50614c46806100206000396000f3006080604052600436106101c2576000357c0100000000000000000000000000000000000000000000000000000000900463ffffffff168063081812fc146101c7578063095ea7b3146102345780630ee8d85a146102815780630f8f9ee11461032757806318160ddd146103cd57806323b872dd146103f85780632e39000f146104655780632f745c59146104b05780633239c60d1461051157806336b84895146105525780633ccfd60b1461059957806341672a46146105b057806342842e0e1461066c578063454a2ab3146106d95780634f558e79146106f95780634f6ccce71461073e57806350ec5ace1461077f578063568e32f3146108ea578063577555d614610a0e5780636352211e14610a3b57806370a0823114610aa857806376a1751014610aff57806376c192bf14610b465780637baca6cd14610c6a5780637fc8591714610cd75780638aa0fdad14610d4457806396b5a75514610df35780639dbc21d214610e20578063a22cb46514610e65578063b88d4fde14610eb4578063d31fbd5414610f67578063d47ada7014610f94578063e3b1475714610feb578063e6bea7941461110f578063e985e9c514611150578063f934f7f9146111cb575b600080fd5b3480156101d357600080fd5b506101f2600480360381019080803590602001909291905050506112ef565b604051808273ffffffffffffffffffffffffffffffffffffffff1673ffffffffffffffffffffffffffffffffffffffff16815260200191505060405180910390f35b34801561024057600080fd5b5061027f600480360381019080803573ffffffffffffffffffffffffffffffffffffffff1690602001909291908035906020019092919050505061132c565b005b34801561028d57600080fd5b506102ac600480360381019080803590602001909291905050506114f2565b6040518080602001828103825283818151815260200191508051906020019080838360005b838110156102ec5780820151818401526020810190506102d1565b50505050905090810190601f1680156103195780820380516001836020036101000a031916815260200191505b509250505060405180910390f35b34801561033357600080fd5b50610352600480360381019080803590602001909291905050506115a2565b6040518080602001828103825283818151815260200191508051906020019080838360005b83811015610392578082015181840152602081019050610377565b50505050905090810190601f1680156103bf5780820380516001836020036101000a031916815260200191505b509250505060405180910390f35b3480156103d957600080fd5b506103e2611652565b6040518082815260200191505060405180910390f35b34801561040457600080fd5b50610463600480360381019080803573ffffffffffffffffffffffffffffffffffffffff169060200190929190803573ffffffffffffffffffffffffffffffffffffffff1690602001909291908035906020019092919050505061165f565b005b34801561047157600080fd5b506104ae6004803603810190808035906020019092919080359060200190929190803567ffffffffffffffff169060200190929190505050611776565b005b3480156104bc57600080fd5b506104fb600480360381019080803573ffffffffffffffffffffffffffffffffffffffff16906020019092919080359060200190929190505050611ada565b6040518082815260200191505060405180910390f35b34801561051d57600080fd5b5061053c60048036038101908080359060200190929190505050611b51565b6040518082815260200191505060405180910390f35b34801561055e57600080fd5b5061057d60048036038101908080359060200190929190505050611b69565b604051808260ff1660ff16815260200191505060405180910390f35b3480156105a557600080fd5b506105ae611b89565b005b3480156105bc57600080fd5b5061066a600480360381019080803590602001908201803590602001908080601f0160208091040260200160405190810160405280939291908181526020018383808284378201915050505050509192919290803590602001908201803590602001908080601f0160208091040260200160405190810160405280939291908181526020018383808284378201915050505050509192919290803560ff169060200190929190505050611c5c565b005b34801561067857600080fd5b506106d7600480360381019080803573ffffffffffffffffffffffffffffffffffffffff169060200190929190803573ffffffffffffffffffffffffffffffffffffffff16906020019092919080359060200190929190505050611cb3565b005b6106f760048036038101908080359060200190929190505050611ceb565b005b34801561070557600080fd5b506107246004803603810190808035906020019092919050505061217b565b604051808215151515815260200191505060405180910390f35b34801561074a57600080fd5b50610769600480360381019080803590602001909291905050506121ec565b6040518082815260200191505060405180910390f35b34801561078b57600080fd5b506107aa60048036038101908080359060200190929190505050612224565b6040518080602001806020018873ffffffffffffffffffffffffffffffffffffffff1673ffffffffffffffffffffffffffffffffffffffff1681526020018781526020018681526020018560ff1660ff1681526020018415151515815260200183810383528a818151815260200191508051906020019080838360005b83811015610842578082015181840152602081019050610827565b50505050905090810190601f16801561086f5780820380516001836020036101000a031916815260200191505b50838103825289818151815260200191508051906020019080838360005b838110156108a857808201518184015260208101905061088d565b50505050905090810190601f1680156108d55780820380516001836020036101000a031916815260200191505b50995050505050505050505060405180910390f35b3480156108f657600080fd5b5061091560048036038101908080359060200190929190505050612459565b604051808973ffffffffffffffffffffffffffffffffffffffff1673ffffffffffffffffffffffffffffffffffffffff1681526020018873ffffffffffffffffffffffffffffffffffffffff1673ffffffffffffffffffffffffffffffffffffffff1681526020018773ffffffffffffffffffffffffffffffffffffffff1673ffffffffffffffffffffffffffffffffffffffff1681526020018681526020018581526020018467ffffffffffffffff1667ffffffffffffffff1681526020018367ffffffffffffffff1667ffffffffffffffff1681526020018260ff1660ff1681526020019850505050505050505060405180910390f35b348015610a1a57600080fd5b50610a3960048036038101908080359060200190929190505050612545565b005b348015610a4757600080fd5b50610a6660048036038101908080359060200190929190505050612b18565b604051808273ffffffffffffffffffffffffffffffffffffffff1673ffffffffffffffffffffffffffffffffffffffff16815260200191505060405180910390f35b348015610ab457600080fd5b50610ae9600480360381019080803573ffffffffffffffffffffffffffffffffffffffff169060200190929190505050612b95565b6040518082815260200191505060405180910390f35b348015610b0b57600080fd5b50610b2a60048036038101908080359060200190929190505050612c19565b604051808260ff1660ff16815260200191505060405180910390f35b348015610b5257600080fd5b50610b7160048036038101908080359060200190929190505050612c43565b604051808973ffffffffffffffffffffffffffffffffffffffff1673ffffffffffffffffffffffffffffffffffffffff1681526020018873ffffffffffffffffffffffffffffffffffffffff1673ffffffffffffffffffffffffffffffffffffffff1681526020018773ffffffffffffffffffffffffffffffffffffffff1673ffffffffffffffffffffffffffffffffffffffff1681526020018681526020018581526020018467ffffffffffffffff1667ffffffffffffffff1681526020018367ffffffffffffffff1667ffffffffffffffff1681526020018260ff1660ff1681526020019850505050505050505060405180910390f35b348015610c7657600080fd5b50610c9560048036038101908080359060200190929190505050612d49565b604051808273ffffffffffffffffffffffffffffffffffffffff1673ffffffffffffffffffffffffffffffffffffffff16815260200191505060405180910390f35b348015610ce357600080fd5b50610d0260048036038101908080359060200190929190505050612d86565b604051808273ffffffffffffffffffffffffffffffffffffffff1673ffffffffffffffffffffffffffffffffffffffff16815260200191505060405180910390f35b348015610d5057600080fd5b50610df1600480360381019080803590602001908201803590602001908080601f0160208091040260200160405190810160405280939291908181526020018383808284378201915050505050509192919290803590602001908201803590602001908080601f0160208091040260200160405190810160405280939291908181526020018383808284378201915050505050509192919290505050612db9565b005b348015610dff57600080fd5b50610e1e60048036038101908080359060200190929190505050613166565b005b348015610e2c57600080fd5b50610e4b60048036038101908080359060200190929190505050613409565b604051808215151515815260200191505060405180910390f35b348015610e7157600080fd5b50610eb2600480360381019080803573ffffffffffffffffffffffffffffffffffffffff169060200190929190803515159060200190929190505050613429565b005b348015610ec057600080fd5b50610f65600480360381019080803573ffffffffffffffffffffffffffffffffffffffff169060200190929190803573ffffffffffffffffffffffffffffffffffffffff16906020019092919080359060200190929190803590602001908201803590602001908080601f0160208091040260200160405190810160405280939291908181526020018383808284378201915050505050509192919290505050613565565b005b348015610f7357600080fd5b50610f92600480360381019080803590602001909291905050506135a4565b005b348015610fa057600080fd5b50610fd5600480360381019080803573ffffffffffffffffffffffffffffffffffffffff1690602001909291905050506139bd565b6040518082815260200191505060405180910390f35b348015610ff757600080fd5b50611016600480360381019080803590602001909291905050506139d5565b604051808973ffffffffffffffffffffffffffffffffffffffff1673ffffffffffffffffffffffffffffffffffffffff1681526020018873ffffffffffffffffffffffffffffffffffffffff1673ffffffffffffffffffffffffffffffffffffffff1681526020018773ffffffffffffffffffffffffffffffffffffffff1673ffffffffffffffffffffffffffffffffffffffff1681526020018681526020018581526020018467ffffffffffffffff1667ffffffffffffffff1681526020018367ffffffffffffffff1667ffffffffffffffff1681526020018260ff1660ff1681526020019850505050505050505060405180910390f35b34801561111b57600080fd5b5061113a60048036038101908080359060200190929190505050613ab2565b6040518082815260200191505060405180910390f35b34801561115c57600080fd5b506111b1600480360381019080803573ffffffffffffffffffffffffffffffffffffffff169060200190929190803573ffffffffffffffffffffffffffffffffffffffff169060200190929190505050613aca565b604051808215151515815260200191505060405180910390f35b3480156111d757600080fd5b506111f660048036038101908080359060200190929190505050613b5e565b604051808973ffffffffffffffffffffffffffffffffffffffff1673ffffffffffffffffffffffffffffffffffffffff1681526020018873ffffffffffffffffffffffffffffffffffffffff1673ffffffffffffffffffffffffffffffffffffffff1681526020018773ffffffffffffffffffffffffffffffffffffffff1673ffffffffffffffffffffffffffffffffffffffff1681526020018681526020018581526020018467ffffffffffffffff1667ffffffffffffffff1681526020018367ffffffffffffffff1667ffffffffffffffff1681526020018260ff1660ff1681526020019850505050505050505060405180910390f35b60006001600083815260200190815260200160002060009054906101000a900473ffffffffffffffffffffffffffffffffffffffff169050919050565b600061133782612b18565b90508073ffffffffffffffffffffffffffffffffffffffff168373ffffffffffffffffffffffffffffffffffffffff161415151561137457600080fd5b8073ffffffffffffffffffffffffffffffffffffffff163373ffffffffffffffffffffffffffffffffffffffff1614806113b457506113b38133613aca565b5b15156113bf57600080fd5b600073ffffffffffffffffffffffffffffffffffffffff166113e0836112ef565b73ffffffffffffffffffffffffffffffffffffffff161415806114305750600073ffffffffffffffffffffffffffffffffffffffff168373ffffffffffffffffffffffffffffffffffffffff1614155b156114ed57826001600084815260200190815260200160002060006101000a81548173ffffffffffffffffffffffffffffffffffffffff021916908373ffffffffffffffffffffffffffffffffffffffff1602179055508273ffffffffffffffffffffffffffffffffffffffff168173ffffffffffffffffffffffffffffffffffffffff167f8c5be1e5ebec7d5bd14f71427d1e84f3dd0314c0f7b2291e5b200ac8c7c3b925846040518082815260200191505060405180910390a35b505050565b600b6020528060005260406000206000915090508054600181600116156101000203166002900480601f01602080910402602001604051908101604052809291908181526020018280546001816001161561010002031660029004801561159a5780601f1061156f5761010080835404028352916020019161159a565b820191906000526020600020905b81548152906001019060200180831161157d57829003601f168201915b505050505081565b600a6020528060005260406000206000915090508054600181600116156101000203166002900480601f01602080910402602001604051908101604052809291908181526020018280546001816001161561010002031660029004801561164a5780601f1061161f5761010080835404028352916020019161164a565b820191906000526020600020905b81548152906001019060200180831161162d57829003601f168201915b505050505081565b6000600780549050905090565b8061166a3382613c6e565b151561167557600080fd5b600073ffffffffffffffffffffffffffffffffffffffff168473ffffffffffffffffffffffffffffffffffffffff16141515156116b157600080fd5b600073ffffffffffffffffffffffffffffffffffffffff168373ffffffffffffffffffffffffffffffffffffffff16141515156116ed57600080fd5b6116f78483613d03565b6117018483613e6c565b61170b8383614084565b8273ffffffffffffffffffffffffffffffffffffffff168473ffffffffffffffffffffffffffffffffffffffff167fddf252ad1be2c89b69c2b068fc378daa952ba7f163c4a11628f55a4df523b3ef846040518082815260200191505060405180910390a350505050565b6000806000806117846149d1565b873373ffffffffffffffffffffffffffffffffffffffff166117a582612b18565b73ffffffffffffffffffffffffffffffffffffffff161415156117c757600080fd5b606488101515156117d757600080fd5b6117e1338a61415b565b6117ea89612d49565b95506117f589612c19565b94504293508684019250610100604051908101604052803373ffffffffffffffffffffffffffffffffffffffff1681526020018773ffffffffffffffffffffffffffffffffffffffff1681526020013373ffffffffffffffffffffffffffffffffffffffff1681526020018981526020018981526020018567ffffffffffffffff1681526020018467ffffffffffffffff1681526020018660ff16815250915081601160008b815260200190815260200160002060008201518160000160006101000a81548173ffffffffffffffffffffffffffffffffffffffff021916908373ffffffffffffffffffffffffffffffffffffffff16021790555060208201518160010160006101000a81548173ffffffffffffffffffffffffffffffffffffffff021916908373ffffffffffffffffffffffffffffffffffffffff16021790555060408201518160020160006101000a81548173ffffffffffffffffffffffffffffffffffffffff021916908373ffffffffffffffffffffffffffffffffffffffff160217905550606082015181600301556080820151816004015560a08201518160050160006101000a81548167ffffffffffffffff021916908367ffffffffffffffff16021790555060c08201518160050160086101000a81548167ffffffffffffffff021916908367ffffffffffffffff16021790555060e08201518160050160106101000a81548160ff021916908360ff1602179055509050507f7fee9a8109a2ad8a5bd278ef50939ed22fdbafc65a2999447607c83cc62613b989836020015184606001518560a001518660c00151604051808681526020018573ffffffffffffffffffffffffffffffffffffffff1673ffffffffffffffffffffffffffffffffffffffff1681526020018481526020018367ffffffffffffffff1667ffffffffffffffff1681526020018267ffffffffffffffff1667ffffffffffffffff1681526020019550505050505060405180910390a1505050505050505050565b6000611ae583612b95565b82101515611af257600080fd5b600560008473ffffffffffffffffffffffffffffffffffffffff1673ffffffffffffffffffffffffffffffffffffffff16815260200190815260200160002082815481101515611b3e57fe5b9060005260206000200154905092915050565b600e6020528060005260406000206000915090505481565b600f6020528060005260406000206000915054906101000a900460ff1681565b6000601460003373ffffffffffffffffffffffffffffffffffffffff1673ffffffffffffffffffffffffffffffffffffffff1681526020019081526020016000205490506000601460003373ffffffffffffffffffffffffffffffffffffffff1673ffffffffffffffffffffffffffffffffffffffff168152602001908152602001600020819055503373ffffffffffffffffffffffffffffffffffffffff166108fc829081150290604051600060405180830381858888f19350505050158015611c58573d6000803e3d6000fd5b5050565b600060058260ff1611151515611c7157600080fd5b60008260ff16111515611c8357600080fd5b600090505b8160ff168160ff161015611cad57611ca08484612db9565b8080600101915050611c88565b50505050565b80611cbe3382613c6e565b1515611cc957600080fd5b611ce58484846020604051908101604052806000815250613565565b50505050565b6000611cf56149d1565b601160008481526020019081526020016000209150611d13826142c9565b1515611d1e57600080fd5b8160050160089054906101000a900467ffffffffffffffff1667ffffffffffffffff164211151515611d4f57600080fd5b816004015434111515611d6157600080fd5b6013600084815260200190815260200160002054601460008460020160009054906101000a900473ffffffffffffffffffffffffffffffffffffffff1673ffffffffffffffffffffffffffffffffffffffff1673ffffffffffffffffffffffffffffffffffffffff16815260200190815260200160002060008282540192505081905550346013600085815260200190815260200160002081905550610100604051908101604052808360000160009054906101000a900473ffffffffffffffffffffffffffffffffffffffff1673ffffffffffffffffffffffffffffffffffffffff1681526020018360010160009054906101000a900473ffffffffffffffffffffffffffffffffffffffff1673ffffffffffffffffffffffffffffffffffffffff1681526020013373ffffffffffffffffffffffffffffffffffffffff168152602001836003015481526020013481526020018360050160009054906101000a900467ffffffffffffffff1667ffffffffffffffff1681526020018360050160089054906101000a900467ffffffffffffffff1667ffffffffffffffff1681526020018360050160109054906101000a900460ff1660ff168152509050806011600085815260200190815260200160002060008201518160000160006101000a81548173ffffffffffffffffffffffffffffffffffffffff021916908373ffffffffffffffffffffffffffffffffffffffff16021790555060208201518160010160006101000a81548173ffffffffffffffffffffffffffffffffffffffff021916908373ffffffffffffffffffffffffffffffffffffffff16021790555060408201518160020160006101000a81548173ffffffffffffffffffffffffffffffffffffffff021916908373ffffffffffffffffffffffffffffffffffffffff160217905550606082015181600301556080820151816004015560a08201518160050160006101000a81548167ffffffffffffffff021916908367ffffffffffffffff16021790555060c08201518160050160086101000a81548167ffffffffffffffff021916908367ffffffffffffffff16021790555060e08201518160050160106101000a81548160ff021916908360ff1602179055509050507f2f5260b20758958466bdbc91766857fc92bb0b4991c70df624895a52b3c78a18838360010160009054906101000a900473ffffffffffffffffffffffffffffffffffffffff1633856003015434604051808681526020018573ffffffffffffffffffffffffffffffffffffffff1673ffffffffffffffffffffffffffffffffffffffff1681526020018473ffffffffffffffffffffffffffffffffffffffff1673ffffffffffffffffffffffffffffffffffffffff1681526020018381526020018281526020019550505050505060405180910390a1505050565b60008060008084815260200190815260200160002060009054906101000a900473ffffffffffffffffffffffffffffffffffffffff169050600073ffffffffffffffffffffffffffffffffffffffff168173ffffffffffffffffffffffffffffffffffffffff161415915050919050565b60006121f6611652565b8210151561220357600080fd5b60078281548110151561221257fe5b90600052602060002001549050919050565b6060806000806000806000612237611652565b8810151561224457600080fd5b600a6000898152602001908152602001600020600b60008a8152602001908152602001600020600c60008b815260200190815260200160002060009054906101000a900473ffffffffffffffffffffffffffffffffffffffff16600d60008c815260200190815260200160002054600e60008d815260200190815260200160002054600f60008e815260200190815260200160002060009054906101000a900460ff16601060008f815260200190815260200160002060009054906101000a900460ff16868054600181600116156101000203166002900480601f01602080910402602001604051908101604052809291908181526020018280546001816001161561010002031660029004801561239d5780601f106123725761010080835404028352916020019161239d565b820191906000526020600020905b81548152906001019060200180831161238057829003601f168201915b50505050509650858054600181600116156101000203166002900480601f0160208091040260200160405190810160405280929190818152602001828054600181600116156101000203166002900480156124395780601f1061240e57610100808354040283529160200191612439565b820191906000526020600020905b81548152906001019060200180831161241c57829003601f168201915b505050505095509650965096509650965096509650919395979092949650565b60128181548110151561246857fe5b90600052602060002090600602016000915090508060000160009054906101000a900473ffffffffffffffffffffffffffffffffffffffff16908060010160009054906101000a900473ffffffffffffffffffffffffffffffffffffffff16908060020160009054906101000a900473ffffffffffffffffffffffffffffffffffffffff16908060030154908060040154908060050160009054906101000a900467ffffffffffffffff16908060050160089054906101000a900467ffffffffffffffff16908060050160109054906101000a900460ff16905088565b6000806000806011600086815260200190815260200160002093508360050160089054906101000a900467ffffffffffffffff1667ffffffffffffffff164211151561259057600080fd5b612599846142c9565b15156125a457600080fd5b601284908060018154018082558091505090600182039060005260206000209060060201600090919290919091506000820160009054906101000a900473ffffffffffffffffffffffffffffffffffffffff168160000160006101000a81548173ffffffffffffffffffffffffffffffffffffffff021916908373ffffffffffffffffffffffffffffffffffffffff1602179055506001820160009054906101000a900473ffffffffffffffffffffffffffffffffffffffff168160010160006101000a81548173ffffffffffffffffffffffffffffffffffffffff021916908373ffffffffffffffffffffffffffffffffffffffff1602179055506002820160009054906101000a900473ffffffffffffffffffffffffffffffffffffffff168160020160006101000a81548173ffffffffffffffffffffffffffffffffffffffff021916908373ffffffffffffffffffffffffffffffffffffffff16021790555060038201548160030155600482015481600401556005820160009054906101000a900467ffffffffffffffff168160050160006101000a81548167ffffffffffffffff021916908367ffffffffffffffff1602179055506005820160089054906101000a900467ffffffffffffffff168160050160086101000a81548167ffffffffffffffff021916908367ffffffffffffffff1602179055506005820160109054906101000a900460ff168160050160106101000a81548160ff021916908360ff1602179055505050506128008460020160009054906101000a900473ffffffffffffffffffffffffffffffffffffffff16866142f7565b6013600086815260200190815260200160002054925060648460050160109054906101000a900460ff1660ff16840281151561283857fe5b049150818303905081601460008660010160009054906101000a900473ffffffffffffffffffffffffffffffffffffffff1673ffffffffffffffffffffffffffffffffffffffff1673ffffffffffffffffffffffffffffffffffffffff1681526020019081526020016000206000828254019250508190555080601460008660000160009054906101000a900473ffffffffffffffffffffffffffffffffffffffff1673ffffffffffffffffffffffffffffffffffffffff1673ffffffffffffffffffffffffffffffffffffffff1681526020019081526020016000206000828254019250508190555060116000868152602001908152602001600020600080820160006101000a81549073ffffffffffffffffffffffffffffffffffffffff02191690556001820160006101000a81549073ffffffffffffffffffffffffffffffffffffffff02191690556002820160006101000a81549073ffffffffffffffffffffffffffffffffffffffff0219169055600382016000905560048201600090556005820160006101000a81549067ffffffffffffffff02191690556005820160086101000a81549067ffffffffffffffff02191690556005820160106101000a81549060ff0219169055505060136000868152602001908152602001600020600090557fafdeeac496c85b58d5787e2bdf4629388231070f6b20208fc37abbf14e7504c1858560010160009054906101000a900473ffffffffffffffffffffffffffffffffffffffff1686600401548760020160009054906101000a900473ffffffffffffffffffffffffffffffffffffffff16604051808581526020018473ffffffffffffffffffffffffffffffffffffffff1673ffffffffffffffffffffffffffffffffffffffff1681526020018381526020018273ffffffffffffffffffffffffffffffffffffffff1673ffffffffffffffffffffffffffffffffffffffff16815260200194505050505060405180910390a15050505050565b60008060008084815260200190815260200160002060009054906101000a900473ffffffffffffffffffffffffffffffffffffffff169050600073ffffffffffffffffffffffffffffffffffffffff168173ffffffffffffffffffffffffffffffffffffffff1614151515612b8c57600080fd5b80915050919050565b60008073ffffffffffffffffffffffffffffffffffffffff168273ffffffffffffffffffffffffffffffffffffffff1614151515612bd257600080fd5b600260008373ffffffffffffffffffffffffffffffffffffffff1673ffffffffffffffffffffffffffffffffffffffff168152602001908152602001600020549050919050565b6000600f600083815260200190815260200160002060009054906101000a900460ff169050919050565b600080600080600080600080600060128a815481101515612c6057fe5b906000526020600020906006020190508060000160009054906101000a900473ffffffffffffffffffffffffffffffffffffffff168160010160009054906101000a900473ffffffffffffffffffffffffffffffffffffffff168260020160009054906101000a900473ffffffffffffffffffffffffffffffffffffffff16836003015484600401548560050160009054906101000a900467ffffffffffffffff168660050160089054906101000a900467ffffffffffffffff168760050160109054906101000a900460ff169850985098509850985098509850985050919395975091939597565b6000600c600083815260200190815260200160002060009054906101000a900473ffffffffffffffffffffffffffffffffffffffff169050919050565b600c6020528060005260406000206000915054906101000a900473ffffffffffffffffffffffffffffffffffffffff1681565b600080600080612dce33600480549050614465565b429350600960003373ffffffffffffffffffffffffffffffffffffffff1673ffffffffffffffffffffffffffffffffffffffff1681526020019081526020016000205492506007805490506008600083815260200190815260200160002081905550600781908060018154018082558091505090600182039060005260206000200160009091929091909150555060059150612fc86001600460e0604051908101604052808a81526020018981526020013373ffffffffffffffffffffffffffffffffffffffff1681526020018781526020018881526020018660ff16815260200160001515815250908060018154018082558091505090600182039060005260206000209060060201600090919290919091506000820151816000019080519060200190612efe929190614a70565b506020820151816001019080519060200190612f1b929190614a70565b5060408201518160020160006101000a81548173ffffffffffffffffffffffffffffffffffffffff021916908373ffffffffffffffffffffffffffffffffffffffff160217905550606082015181600301556080820151816004015560a08201518160050160006101000a81548160ff021916908360ff16021790555060c08201518160050160016101000a81548160ff021916908315150217905550505061451590919063ffffffff16565b905061301d6001600960003373ffffffffffffffffffffffffffffffffffffffff1673ffffffffffffffffffffffffffffffffffffffff1681526020019081526020016000205461452e90919063ffffffff16565b600960003373ffffffffffffffffffffffffffffffffffffffff1673ffffffffffffffffffffffffffffffffffffffff1681526020019081526020016000208190555085600a60008381526020019081526020016000209080519060200190613087929190614af0565b5084600b600083815260200190815260200160002090805190602001906130af929190614af0565b5033600c600083815260200190815260200160002060006101000a81548173ffffffffffffffffffffffffffffffffffffffff021916908373ffffffffffffffffffffffffffffffffffffffff16021790555082600d60008381526020019081526020016000208190555083600e60008381526020019081526020016000208190555081600f600083815260200190815260200160002060006101000a81548160ff021916908360ff160217905550505050505050565b60006011600083815260200190815260200160002090508060000160009054906101000a900473ffffffffffffffffffffffffffffffffffffffff1673ffffffffffffffffffffffffffffffffffffffff163373ffffffffffffffffffffffffffffffffffffffff161415156131db57600080fd5b6131e4816142c9565b15156131ef57600080fd5b428160050160089054906101000a900467ffffffffffffffff1667ffffffffffffffff161015151561322057600080fd5b61324e8160000160009054906101000a900473ffffffffffffffffffffffffffffffffffffffff16836142f7565b6013600083815260200190815260200160002054601460008360020160009054906101000a900473ffffffffffffffffffffffffffffffffffffffff1673ffffffffffffffffffffffffffffffffffffffff1673ffffffffffffffffffffffffffffffffffffffff16815260200190815260200160002060008282540192505081905550601360008381526020019081526020016000206000905560116000838152602001908152602001600020600080820160006101000a81549073ffffffffffffffffffffffffffffffffffffffff02191690556001820160006101000a81549073ffffffffffffffffffffffffffffffffffffffff02191690556002820160006101000a81549073ffffffffffffffffffffffffffffffffffffffff0219169055600382016000905560048201600090556005820160006101000a81549067ffffffffffffffff02191690556005820160086101000a81549067ffffffffffffffff02191690556005820160106101000a81549060ff021916905550507f2809c7e17bf978fbc7194c0a694b638c4215e9140cacc6c38ca36010b45697df826040518082815260200191505060405180910390a15050565b60106020528060005260406000206000915054906101000a900460ff1681565b3373ffffffffffffffffffffffffffffffffffffffff168273ffffffffffffffffffffffffffffffffffffffff161415151561346457600080fd5b80600360003373ffffffffffffffffffffffffffffffffffffffff1673ffffffffffffffffffffffffffffffffffffffff16815260200190815260200160002060008473ffffffffffffffffffffffffffffffffffffffff1673ffffffffffffffffffffffffffffffffffffffff16815260200190815260200160002060006101000a81548160ff0219169083151502179055508173ffffffffffffffffffffffffffffffffffffffff163373ffffffffffffffffffffffffffffffffffffffff167f17307eab39ab6107e8899845ad3d59bd9653f200f220920489ca2b5937696c3183604051808215151515815260200191505060405180910390a35050565b816135703382613c6e565b151561357b57600080fd5b61358685858561165f565b6135928585858561454a565b151561359d57600080fd5b5050505050565b60006135ae614b70565b600c600084815260200190815260200160002060009054906101000a900473ffffffffffffffffffffffffffffffffffffffff1673ffffffffffffffffffffffffffffffffffffffff163373ffffffffffffffffffffffffffffffffffffffff1614151561361b57600080fd5b600115156010600085815260200190815260200160002060009054906101000a900460ff16151514156136515760009150613656565b600191505b816010600085815260200190815260200160002060006101000a81548160ff02191690831515021790555060e060405190810160405280600a60008681526020019081526020016000208054600181600116156101000203166002900480601f0160208091040260200160405190810160405280929190818152602001828054600181600116156101000203166002900480156137345780601f1061370957610100808354040283529160200191613734565b820191906000526020600020905b81548152906001019060200180831161371757829003601f168201915b50505050508152602001600b60008681526020019081526020016000208054600181600116156101000203166002900480601f0160208091040260200160405190810160405280929190818152602001828054600181600116156101000203166002900480156137e55780601f106137ba576101008083540402835291602001916137e5565b820191906000526020600020905b8154815290600101906020018083116137c857829003601f168201915b50505050508152602001600c600086815260200190815260200160002060009054906101000a900473ffffffffffffffffffffffffffffffffffffffff1673ffffffffffffffffffffffffffffffffffffffff168152602001600d6000868152602001908152602001600020548152602001600e6000868152602001908152602001600020548152602001600f600086815260200190815260200160002060009054906101000a900460ff1660ff1681526020016010600086815260200190815260200160002060009054906101000a900460ff1615158152509050806004848154811015156138d157fe5b906000526020600020906006020160008201518160000190805190602001906138fb929190614a70565b506020820151816001019080519060200190613918929190614a70565b5060408201518160020160006101000a81548173ffffffffffffffffffffffffffffffffffffffff021916908373ffffffffffffffffffffffffffffffffffffffff160217905550606082015181600301556080820151816004015560a08201518160050160006101000a81548160ff021916908360ff16021790555060c08201518160050160016101000a81548160ff021916908315150217905550905050505050565b60096020528060005260406000206000915090505481565b60116020528060005260406000206000915090508060000160009054906101000a900473ffffffffffffffffffffffffffffffffffffffff16908060010160009054906101000a900473ffffffffffffffffffffffffffffffffffffffff16908060020160009054906101000a900473ffffffffffffffffffffffffffffffffffffffff16908060030154908060040154908060050160009054906101000a900467ffffffffffffffff16908060050160089054906101000a900467ffffffffffffffff16908060050160109054906101000a900460ff16905088565b600d6020528060005260406000206000915090505481565b6000600360008473ffffffffffffffffffffffffffffffffffffffff1673ffffffffffffffffffffffffffffffffffffffff16815260200190815260200160002060008373ffffffffffffffffffffffffffffffffffffffff1673ffffffffffffffffffffffffffffffffffffffff16815260200190815260200160002060009054906101000a900460ff16905092915050565b6000806000806000806000806000601160008b81526020019081526020016000209050613b8a816142c9565b1515613b9557600080fd5b8060000160009054906101000a900473ffffffffffffffffffffffffffffffffffffffff168160010160009054906101000a900473ffffffffffffffffffffffffffffffffffffffff168260020160009054906101000a900473ffffffffffffffffffffffffffffffffffffffff16836003015484600401548560050160009054906101000a900467ffffffffffffffff168660050160089054906101000a900467ffffffffffffffff168760050160109054906101000a900460ff169850985098509850985098509850985050919395975091939597565b600080613c7a83612b18565b90508073ffffffffffffffffffffffffffffffffffffffff168473ffffffffffffffffffffffffffffffffffffffff161480613ce957508373ffffffffffffffffffffffffffffffffffffffff16613cd1846112ef565b73ffffffffffffffffffffffffffffffffffffffff16145b80613cfa5750613cf98185613aca565b5b91505092915050565b8173ffffffffffffffffffffffffffffffffffffffff16613d2382612b18565b73ffffffffffffffffffffffffffffffffffffffff16141515613d4557600080fd5b600073ffffffffffffffffffffffffffffffffffffffff166001600083815260200190815260200160002060009054906101000a900473ffffffffffffffffffffffffffffffffffffffff1673ffffffffffffffffffffffffffffffffffffffff16141515613e685760006001600083815260200190815260200160002060006101000a81548173ffffffffffffffffffffffffffffffffffffffff021916908373ffffffffffffffffffffffffffffffffffffffff160217905550600073ffffffffffffffffffffffffffffffffffffffff168273ffffffffffffffffffffffffffffffffffffffff167f8c5be1e5ebec7d5bd14f71427d1e84f3dd0314c0f7b2291e5b200ac8c7c3b925836040518082815260200191505060405180910390a35b5050565b6000806000613e7b8585614738565b60066000858152602001908152602001600020549250613ee76001600560008873ffffffffffffffffffffffffffffffffffffffff1673ffffffffffffffffffffffffffffffffffffffff1681526020019081526020016000208054905061451590919063ffffffff16565b9150600560008673ffffffffffffffffffffffffffffffffffffffff1673ffffffffffffffffffffffffffffffffffffffff16815260200190815260200160002082815481101515613f3557fe5b9060005260206000200154905080600560008773ffffffffffffffffffffffffffffffffffffffff1673ffffffffffffffffffffffffffffffffffffffff16815260200190815260200160002084815481101515613f8f57fe5b90600052602060002001819055506000600560008773ffffffffffffffffffffffffffffffffffffffff1673ffffffffffffffffffffffffffffffffffffffff16815260200190815260200160002083815481101515613feb57fe5b9060005260206000200181905550600560008673ffffffffffffffffffffffffffffffffffffffff1673ffffffffffffffffffffffffffffffffffffffff16815260200190815260200160002080548091906001900361404b9190614bc9565b50600060066000868152602001908152602001600020819055508260066000838152602001908152602001600020819055505050505050565b60006140908383614866565b600560008473ffffffffffffffffffffffffffffffffffffffff1673ffffffffffffffffffffffffffffffffffffffff168152602001908152602001600020805490509050600560008473ffffffffffffffffffffffffffffffffffffffff1673ffffffffffffffffffffffffffffffffffffffff168152602001908152602001600020829080600181540180825580915050906001820390600052602060002001600090919290919091505550806006600084815260200190815260200160002081905550505050565b6141658282613d03565b61416f8282613e6c565b6141793082614084565b3060008083815260200190815260200160002060006101000a81548173ffffffffffffffffffffffffffffffffffffffff021916908373ffffffffffffffffffffffffffffffffffffffff16021790555061421d6001600260003073ffffffffffffffffffffffffffffffffffffffff1673ffffffffffffffffffffffffffffffffffffffff1681526020019081526020016000205461452e90919063ffffffff16565b600260003073ffffffffffffffffffffffffffffffffffffffff1673ffffffffffffffffffffffffffffffffffffffff168152602001908152602001600020819055503073ffffffffffffffffffffffffffffffffffffffff168273ffffffffffffffffffffffffffffffffffffffff167fddf252ad1be2c89b69c2b068fc378daa952ba7f163c4a11628f55a4df523b3ef836040518082815260200191505060405180910390a35050565b6000808260050160009054906101000a900467ffffffffffffffff1667ffffffffffffffff16119050919050565b6143013082613d03565b61430b3082613e6c565b6143158282614084565b8160008083815260200190815260200160002060006101000a81548173ffffffffffffffffffffffffffffffffffffffff021916908373ffffffffffffffffffffffffffffffffffffffff1602179055506143b96001600260008573ffffffffffffffffffffffffffffffffffffffff1673ffffffffffffffffffffffffffffffffffffffff1681526020019081526020016000205461452e90919063ffffffff16565b600260008473ffffffffffffffffffffffffffffffffffffffff1673ffffffffffffffffffffffffffffffffffffffff168152602001908152602001600020819055508173ffffffffffffffffffffffffffffffffffffffff163073ffffffffffffffffffffffffffffffffffffffff167fddf252ad1be2c89b69c2b068fc378daa952ba7f163c4a11628f55a4df523b3ef836040518082815260200191505060405180910390a35050565b600073ffffffffffffffffffffffffffffffffffffffff168273ffffffffffffffffffffffffffffffffffffffff16141515156144a157600080fd5b6144ab8282614084565b8173ffffffffffffffffffffffffffffffffffffffff16600073ffffffffffffffffffffffffffffffffffffffff167fddf252ad1be2c89b69c2b068fc378daa952ba7f163c4a11628f55a4df523b3ef836040518082815260200191505060405180910390a35050565b600082821115151561452357fe5b818303905092915050565b6000818301905082811015151561454157fe5b80905092915050565b60008061456c8573ffffffffffffffffffffffffffffffffffffffff166149be565b151561457b576001915061472f565b8473ffffffffffffffffffffffffffffffffffffffff1663f0b9e5ba8786866040518463ffffffff167c0100000000000000000000000000000000000000000000000000000000028152600401808473ffffffffffffffffffffffffffffffffffffffff1673ffffffffffffffffffffffffffffffffffffffff16815260200183815260200180602001828103825283818151815260200191508051906020019080838360005b8381101561463d578082015181840152602081019050614622565b50505050905090810190601f16801561466a5780820380516001836020036101000a031916815260200191505b50945050505050602060405180830381600087803b15801561468b57600080fd5b505af115801561469f573d6000803e3d6000fd5b505050506040513d60208110156146b557600080fd5b8101908080519060200190929190505050905063f0b9e5ba7c0100000000000000000000000000000000000000000000000000000000027bffffffffffffffffffffffffffffffffffffffffffffffffffffffff1916817bffffffffffffffffffffffffffffffffffffffffffffffffffffffff19161491505b50949350505050565b8173ffffffffffffffffffffffffffffffffffffffff1661475882612b18565b73ffffffffffffffffffffffffffffffffffffffff1614151561477a57600080fd5b6147cd6001600260008573ffffffffffffffffffffffffffffffffffffffff1673ffffffffffffffffffffffffffffffffffffffff1681526020019081526020016000205461451590919063ffffffff16565b600260008473ffffffffffffffffffffffffffffffffffffffff1673ffffffffffffffffffffffffffffffffffffffff16815260200190815260200160002081905550600080600083815260200190815260200160002060006101000a81548173ffffffffffffffffffffffffffffffffffffffff021916908373ffffffffffffffffffffffffffffffffffffffff1602179055505050565b600073ffffffffffffffffffffffffffffffffffffffff1660008083815260200190815260200160002060009054906101000a900473ffffffffffffffffffffffffffffffffffffffff1673ffffffffffffffffffffffffffffffffffffffff161415156148d357600080fd5b8160008083815260200190815260200160002060006101000a81548173ffffffffffffffffffffffffffffffffffffffff021916908373ffffffffffffffffffffffffffffffffffffffff1602179055506149776001600260008573ffffffffffffffffffffffffffffffffffffffff1673ffffffffffffffffffffffffffffffffffffffff1681526020019081526020016000205461452e90919063ffffffff16565b600260008473ffffffffffffffffffffffffffffffffffffffff1673ffffffffffffffffffffffffffffffffffffffff168152602001908152602001600020819055505050565b600080823b905060008111915050919050565b61010060405190810160405280600073ffffffffffffffffffffffffffffffffffffffff168152602001600073ffffffffffffffffffffffffffffffffffffffff168152602001600073ffffffffffffffffffffffffffffffffffffffff1681526020016000815260200160008152602001600067ffffffffffffffff168152602001600067ffffffffffffffff168152602001600060ff1681525090565b828054600181600116156101000203166002900490600052602060002090601f016020900481019282601f10614ab157805160ff1916838001178555614adf565b82800160010185558215614adf579182015b82811115614ade578251825591602001919060010190614ac3565b5b509050614aec9190614bf5565b5090565b828054600181600116156101000203166002900490600052602060002090601f016020900481019282601f10614b3157805160ff1916838001178555614b5f565b82800160010185558215614b5f579182015b82811115614b5e578251825591602001919060010190614b43565b5b509050614b6c9190614bf5565b5090565b60e0604051908101604052806060815260200160608152602001600073ffffffffffffffffffffffffffffffffffffffff1681526020016000815260200160008152602001600060ff1681526020016000151581525090565b815481835581811115614bf057818360005260206000209182019101614bef9190614bf5565b5b505050565b614c1791905b80821115614c13576000816000905550600101614bfb565b5090565b905600a165627a7a72305820a216ccfbfab324e23ad3d1d6fb48c42535672d0eabcaa062004f63f31d5680a70029",
  "source": "pragma solidity ^0.4.23;\n\nimport \"./HypeToken.sol\";\n\ncontract TokenAuction is HypeToken {\n  \n  struct Auction {\n    address seller;\n    address artist;\n    address topBidder;\n    uint256 startPrice;\n    uint256 endPrice;\n    uint64 auctionStart;\n    uint64 auctionClose;\n    uint8 royaltyPercentage;\n  }\n\n  // Open Auctions\n  mapping (uint256 => Auction) public tokenIdToAuction;\n\n  // Completed auctions\n  Auction[] public completedAuctions;\n  \n  // Auction value storage\n  mapping (uint256 => uint256) internal auctionStore;\n  \n  // Address value storage\n  mapping (address => uint256) internal pendingWithdraw;\n\n  event AuctionCreated(uint256 tokenId, address artist, uint256 startPrice, uint64 auctionStart, uint64 auctionClose);\n  event AuctionBidIncreased(uint256 tokenId, address artist, address bidder, uint256 startPrice, uint256 endPrice);\n  event AuctionSuccessful(uint256 tokenId, address artist, uint256 endPrice, address winner);\n  event AuctionCancelled(uint256 tokenId);\n\n  // escrow the NFT assigns ownership to contract\n  function _escrow(address _owner, uint256 _tokenId) internal {\n    // clear approvals\n    clearApproval(_owner, _tokenId);\n    \n    // remove token from   \n    super.removeTokenFrom(_owner, _tokenId);\n    \n    // transfer ownership\n    super.addTokenTo(this, _tokenId);\n    tokenOwner[_tokenId] = this;\n    ownedTokensCount[this] = ownedTokensCount[this].add(1);\n    \n    emit Transfer(_owner, this, _tokenId);\n  }\n\n  // transfer NFT owned by contract to another address\n  function _transfer(address _receiver, uint256 _tokenId) internal {\n    // clear approvals\n    clearApproval(this, _tokenId);\n    \n    // remove token from   \n    super.removeTokenFrom(this, _tokenId);\n    \n    // transfer ownership\n    addTokenTo(_receiver, _tokenId);\n    tokenOwner[_tokenId] = _receiver;\n    ownedTokensCount[_receiver] = ownedTokensCount[_receiver].add(1);\n    \n    emit Transfer(this, _receiver, _tokenId);\n  }\n\n  // check if the auction is on\n  function _isOnAuction(Auction storage _auction) internal view returns (bool) {\n    return (_auction.auctionStart > 0);\n  }\n\n  // creates an Auction\n  function createAuction(uint256 _tokenId, \n                         uint256 _startPrice,\n                         uint64 _duration) public onlyOwnerOf(_tokenId) {\n    // require non-zero start price\n    require(_startPrice >= 100);\n    // transfer token to this contract\n    _escrow(msg.sender, _tokenId);\n    \n    // get values from inherited contract ArtistToken\n    address _artist = getArtistAddress(_tokenId);\n    uint8 _royaltyPercentage = getRoyaltyPercentage(_tokenId);\n    \n    uint64 _auctionStart = uint64(now);\n    uint64 _auctionEnd = _auctionStart + _duration;\n\n    Auction memory _auction = Auction(\n      msg.sender,\n      _artist,\n      msg.sender,\n      _startPrice,\n      _startPrice,\n      _auctionStart,\n      _auctionEnd,\n      _royaltyPercentage\n    );\n\n    // create mapping\n    tokenIdToAuction[_tokenId] = _auction;\n\n    // broadcast event\n    emit AuctionCreated(\n      uint256(_tokenId),\n      address(_auction.artist),\n      uint256(_auction.startPrice),\n      uint64(_auction.auctionStart),\n      uint64(_auction.auctionClose)\n    );\n  }\n\n  function cancelAuction(uint256 _tokenId) public {\n    Auction storage auction = tokenIdToAuction[_tokenId];\n    require(msg.sender == auction.seller);\n    require(_isOnAuction(auction));\n    require(auction.auctionClose >= now);\n    \n    // return token back to seller\n    _transfer(auction.seller, _tokenId);\n    \n    // return funds back to top bidder\n    pendingWithdraw[auction.topBidder] += auctionStore[_tokenId];\n    \n    // delete mappings\n    delete auctionStore[_tokenId];\n    delete tokenIdToAuction[_tokenId];\n    emit AuctionCancelled(_tokenId);\n  }\n\n  function bid(uint256 _tokenId) public payable {\n    Auction storage auction = tokenIdToAuction[_tokenId];\n    require(_isOnAuction(auction));\n    require(now <= auction.auctionClose);\n    require(msg.value > auction.endPrice); \n    \n    // return money to previous top bidder\n    pendingWithdraw[auction.topBidder] += auctionStore[_tokenId];\n    \n    // update auctionStore\n    auctionStore[_tokenId] = msg.value;\n    \n    // update mapping\n    Auction memory _auction = Auction(\n      auction.seller,\n      auction.artist,\n      msg.sender,\n      auction.startPrice,\n      msg.value,\n      auction.auctionStart,\n      auction.auctionClose,\n      auction.royaltyPercentage\n    );\n\n    tokenIdToAuction[_tokenId] = _auction;\n\n    emit AuctionBidIncreased(_tokenId, auction.artist, msg.sender, auction.startPrice, msg.value);\n  }\n\n  function auctionClose(uint256 _tokenId) public {\n    Auction storage auction = tokenIdToAuction[_tokenId];\n    require(now > auction.auctionClose);\n    require(_isOnAuction(auction));\n    \n    // add to completedAuctions\n    completedAuctions.push(auction);\n    \n    // transfer token\n    _transfer(auction.topBidder, _tokenId);\n    \n    // calculate payout\n    uint256 amount = auctionStore[_tokenId];\n    uint256 artistCut =  amount * auction.royaltyPercentage/100;\n    uint256 sellerProceeds = amount - artistCut;\n\n    // transfer as accordingly\n    pendingWithdraw[auction.artist] += artistCut ;\n    pendingWithdraw[auction.seller] += sellerProceeds;\n\n    // delete auction\n    delete tokenIdToAuction[_tokenId];\n\n    // delete auctionStore mapping\n    delete auctionStore[_tokenId];\n\n    // announce event\n    emit AuctionSuccessful(_tokenId, auction.artist, auction.endPrice, auction.topBidder);\n  }\n  \n  function withdraw() public {\n      uint256 amount = pendingWithdraw[msg.sender];\n      pendingWithdraw[msg.sender] = 0;\n      msg.sender.transfer(amount);\n  }\n  \n  function getOpenAuction(uint256 _tokenId)\n    public\n    view\n    returns\n  (\n    address,\n    address,\n    address,\n    uint256,\n    uint256,\n    uint64,\n    uint64,\n    uint8\n  ) {\n    Auction storage auction = tokenIdToAuction[_tokenId];\n    require(_isOnAuction(auction));\n    return (\n        auction.seller,\n        auction.artist,\n        auction.topBidder,\n        auction.startPrice,\n        auction.endPrice,\n        auction.auctionStart,\n        auction.auctionClose,\n        auction.royaltyPercentage\n    );\n  }\n  \n  /**\n   * @dev get details of completed aucion\n   * @param _completedAuctionIndex refers to the n th number of\n   *    auction completed\n   *\n   */\n  function getCompletedAuction(uint256 _completedAuctionIndex)\n    public\n    view\n    returns\n  (\n    address,\n    address,\n    address,\n    uint256,\n    uint256,\n    uint64,\n    uint64,\n    uint8\n  ) {\n    Auction storage auction = completedAuctions[_completedAuctionIndex];\n    return (\n        auction.seller,\n        auction.artist,\n        auction.topBidder,\n        auction.startPrice,\n        auction.endPrice,\n        auction.auctionStart,\n        auction.auctionClose,\n        auction.royaltyPercentage\n    );\n  }\n}\n",
  "sourcePath": "/home/ada/WebApp/smackathon/contracts/TokenAuction.sol",
  "compiler": {
    "name": "solc",
    "version": "0.4.24+commit.e67f0147.Emscripten.clang"
  },
  "schemaVersion": "2.0.1",
  "updatedAt": "2018-07-17T19:33:00.301Z"
}