{
  "contractName": "TokenAuction",
  "abi": [
    {
      "constant": true,
      "inputs": [
        {
          "name": "_tokenId",
          "type": "uint256"
        }
      ],
      "name": "getApproved",
      "outputs": [
        {
          "name": "",
          "type": "address"
        }
      ],
      "payable": false,
      "stateMutability": "view",
      "type": "function"
    },
    {
      "constant": false,
      "inputs": [
        {
          "name": "_to",
          "type": "address"
        },
        {
          "name": "_tokenId",
          "type": "uint256"
        }
      ],
      "name": "approve",
      "outputs": [],
      "payable": false,
      "stateMutability": "nonpayable",
      "type": "function"
    },
    {
      "constant": true,
      "inputs": [
        {
          "name": "",
          "type": "uint256"
        }
      ],
      "name": "tokenToDescription",
      "outputs": [
        {
          "name": "",
          "type": "string"
        }
      ],
      "payable": false,
      "stateMutability": "view",
      "type": "function"
    },
    {
      "constant": true,
      "inputs": [
        {
          "name": "",
          "type": "uint256"
        }
      ],
      "name": "tokenToName",
      "outputs": [
        {
          "name": "",
          "type": "string"
        }
      ],
      "payable": false,
      "stateMutability": "view",
      "type": "function"
    },
    {
      "constant": true,
      "inputs": [],
      "name": "totalSupply",
      "outputs": [
        {
          "name": "",
          "type": "uint256"
        }
      ],
      "payable": false,
      "stateMutability": "view",
      "type": "function"
    },
    {
      "constant": false,
      "inputs": [
        {
          "name": "_from",
          "type": "address"
        },
        {
          "name": "_to",
          "type": "address"
        },
        {
          "name": "_tokenId",
          "type": "uint256"
        }
      ],
      "name": "transferFrom",
      "outputs": [],
      "payable": false,
      "stateMutability": "nonpayable",
      "type": "function"
    },
    {
      "constant": true,
      "inputs": [
        {
          "name": "_owner",
          "type": "address"
        },
        {
          "name": "_index",
          "type": "uint256"
        }
      ],
      "name": "tokenOfOwnerByIndex",
      "outputs": [
        {
          "name": "",
          "type": "uint256"
        }
      ],
      "payable": false,
      "stateMutability": "view",
      "type": "function"
    },
    {
      "constant": true,
      "inputs": [
        {
          "name": "",
          "type": "uint256"
        }
      ],
      "name": "tokenToTimeCreated",
      "outputs": [
        {
          "name": "",
          "type": "uint256"
        }
      ],
      "payable": false,
      "stateMutability": "view",
      "type": "function"
    },
    {
      "constant": true,
      "inputs": [
        {
          "name": "",
          "type": "uint256"
        }
      ],
      "name": "tokenToRoyaltyPercentage",
      "outputs": [
        {
          "name": "",
          "type": "uint8"
        }
      ],
      "payable": false,
      "stateMutability": "view",
      "type": "function"
    },
    {
      "constant": false,
      "inputs": [
        {
          "name": "_name",
          "type": "string"
        },
        {
          "name": "_description",
          "type": "string"
        },
        {
          "name": "_numToken",
          "type": "uint8"
        }
      ],
      "name": "batchMint",
      "outputs": [],
      "payable": false,
      "stateMutability": "nonpayable",
      "type": "function"
    },
    {
      "constant": false,
      "inputs": [
        {
          "name": "_from",
          "type": "address"
        },
        {
          "name": "_to",
          "type": "address"
        },
        {
          "name": "_tokenId",
          "type": "uint256"
        }
      ],
      "name": "safeTransferFrom",
      "outputs": [],
      "payable": false,
      "stateMutability": "nonpayable",
      "type": "function"
    },
    {
      "constant": true,
      "inputs": [
        {
          "name": "_tokenId",
          "type": "uint256"
        }
      ],
      "name": "exists",
      "outputs": [
        {
          "name": "",
          "type": "bool"
        }
      ],
      "payable": false,
      "stateMutability": "view",
      "type": "function"
    },
    {
      "constant": true,
      "inputs": [
        {
          "name": "_index",
          "type": "uint256"
        }
      ],
      "name": "tokenByIndex",
      "outputs": [
        {
          "name": "",
          "type": "uint256"
        }
      ],
      "payable": false,
      "stateMutability": "view",
      "type": "function"
    },
    {
      "constant": true,
      "inputs": [
        {
          "name": "_index",
          "type": "uint256"
        }
      ],
      "name": "tokenDataByIndex",
      "outputs": [
        {
          "name": "",
          "type": "string"
        },
        {
          "name": "",
          "type": "string"
        },
        {
          "name": "",
          "type": "address"
        },
        {
          "name": "",
          "type": "uint256"
        },
        {
          "name": "",
          "type": "uint256"
        },
        {
          "name": "",
          "type": "uint8"
        }
      ],
      "payable": false,
      "stateMutability": "view",
      "type": "function"
    },
    {
      "constant": true,
      "inputs": [
        {
          "name": "",
          "type": "uint256"
        }
      ],
      "name": "completedAuctions",
      "outputs": [
        {
          "name": "seller",
          "type": "address"
        },
        {
          "name": "artist",
          "type": "address"
        },
        {
          "name": "topBidder",
          "type": "address"
        },
        {
          "name": "startPrice",
          "type": "uint256"
        },
        {
          "name": "endPrice",
          "type": "uint256"
        },
        {
          "name": "auctionStart",
          "type": "uint64"
        },
        {
          "name": "auctionClose",
          "type": "uint64"
        },
        {
          "name": "royaltyPercentage",
          "type": "uint8"
        }
      ],
      "payable": false,
      "stateMutability": "view",
      "type": "function"
    },
    {
      "constant": true,
      "inputs": [
        {
          "name": "_tokenId",
          "type": "uint256"
        }
      ],
      "name": "ownerOf",
      "outputs": [
        {
          "name": "",
          "type": "address"
        }
      ],
      "payable": false,
      "stateMutability": "view",
      "type": "function"
    },
    {
      "constant": true,
      "inputs": [
        {
          "name": "_owner",
          "type": "address"
        }
      ],
      "name": "balanceOf",
      "outputs": [
        {
          "name": "",
          "type": "uint256"
        }
      ],
      "payable": false,
      "stateMutability": "view",
      "type": "function"
    },
    {
      "constant": true,
      "inputs": [
        {
          "name": "_tokenId",
          "type": "uint256"
        }
      ],
      "name": "getRoyaltyPercentage",
      "outputs": [
        {
          "name": "",
          "type": "uint8"
        }
      ],
      "payable": false,
      "stateMutability": "view",
      "type": "function"
    },
    {
      "constant": true,
      "inputs": [
        {
          "name": "_tokenId",
          "type": "uint256"
        }
      ],
      "name": "getArtistAddress",
      "outputs": [
        {
          "name": "",
          "type": "address"
        }
      ],
      "payable": false,
      "stateMutability": "view",
      "type": "function"
    },
    {
      "constant": true,
      "inputs": [
        {
          "name": "",
          "type": "uint256"
        }
      ],
      "name": "tokenToArtistAddress",
      "outputs": [
        {
          "name": "",
          "type": "address"
        }
      ],
      "payable": false,
      "stateMutability": "view",
      "type": "function"
    },
    {
      "constant": false,
      "inputs": [
        {
          "name": "_name",
          "type": "string"
        },
        {
          "name": "_description",
          "type": "string"
        }
      ],
      "name": "mint",
      "outputs": [],
      "payable": false,
      "stateMutability": "nonpayable",
      "type": "function"
    },
    {
      "constant": false,
      "inputs": [
        {
          "name": "_to",
          "type": "address"
        },
        {
          "name": "_approved",
          "type": "bool"
        }
      ],
      "name": "setApprovalForAll",
      "outputs": [],
      "payable": false,
      "stateMutability": "nonpayable",
      "type": "function"
    },
    {
      "constant": false,
      "inputs": [
        {
          "name": "_from",
          "type": "address"
        },
        {
          "name": "_to",
          "type": "address"
        },
        {
          "name": "_tokenId",
          "type": "uint256"
        },
        {
          "name": "_data",
          "type": "bytes"
        }
      ],
      "name": "safeTransferFrom",
      "outputs": [],
      "payable": false,
      "stateMutability": "nonpayable",
      "type": "function"
    },
    {
      "constant": true,
      "inputs": [
        {
          "name": "",
          "type": "address"
        }
      ],
      "name": "addrToArtistTokenNumber",
      "outputs": [
        {
          "name": "",
          "type": "uint256"
        }
      ],
      "payable": false,
      "stateMutability": "view",
      "type": "function"
    },
    {
      "constant": true,
      "inputs": [
        {
          "name": "",
          "type": "uint256"
        }
      ],
      "name": "tokenIdToAuction",
      "outputs": [
        {
          "name": "seller",
          "type": "address"
        },
        {
          "name": "artist",
          "type": "address"
        },
        {
          "name": "topBidder",
          "type": "address"
        },
        {
          "name": "startPrice",
          "type": "uint256"
        },
        {
          "name": "endPrice",
          "type": "uint256"
        },
        {
          "name": "auctionStart",
          "type": "uint64"
        },
        {
          "name": "auctionClose",
          "type": "uint64"
        },
        {
          "name": "royaltyPercentage",
          "type": "uint8"
        }
      ],
      "payable": false,
      "stateMutability": "view",
      "type": "function"
    },
    {
      "constant": true,
      "inputs": [
        {
          "name": "",
          "type": "uint256"
        }
      ],
      "name": "tokenToArtistTokenNumber",
      "outputs": [
        {
          "name": "",
          "type": "uint256"
        }
      ],
      "payable": false,
      "stateMutability": "view",
      "type": "function"
    },
    {
      "constant": true,
      "inputs": [
        {
          "name": "_owner",
          "type": "address"
        },
        {
          "name": "_operator",
          "type": "address"
        }
      ],
      "name": "isApprovedForAll",
      "outputs": [
        {
          "name": "",
          "type": "bool"
        }
      ],
      "payable": false,
      "stateMutability": "view",
      "type": "function"
    },
    {
      "anonymous": false,
      "inputs": [
        {
          "indexed": false,
          "name": "tokenId",
          "type": "uint256"
        },
        {
          "indexed": false,
          "name": "artist",
          "type": "address"
        },
        {
          "indexed": false,
          "name": "startPrice",
          "type": "uint256"
        },
        {
          "indexed": false,
          "name": "auctionStart",
          "type": "uint64"
        },
        {
          "indexed": false,
          "name": "auctionClose",
          "type": "uint64"
        }
      ],
      "name": "AuctionCreated",
      "type": "event"
    },
    {
      "anonymous": false,
      "inputs": [
        {
          "indexed": false,
          "name": "tokenId",
          "type": "uint256"
        },
        {
          "indexed": false,
          "name": "artist",
          "type": "address"
        },
        {
          "indexed": false,
          "name": "bidder",
          "type": "address"
        },
        {
          "indexed": false,
          "name": "startPrice",
          "type": "uint256"
        },
        {
          "indexed": false,
          "name": "endPrice",
          "type": "uint256"
        }
      ],
      "name": "AuctionBidIncreased",
      "type": "event"
    },
    {
      "anonymous": false,
      "inputs": [
        {
          "indexed": false,
          "name": "tokenId",
          "type": "uint256"
        },
        {
          "indexed": false,
          "name": "artist",
          "type": "address"
        },
        {
          "indexed": false,
          "name": "endPrice",
          "type": "uint256"
        },
        {
          "indexed": false,
          "name": "winner",
          "type": "address"
        }
      ],
      "name": "AuctionSuccessful",
      "type": "event"
    },
    {
      "anonymous": false,
      "inputs": [
        {
          "indexed": false,
          "name": "tokenId",
          "type": "uint256"
        }
      ],
      "name": "AuctionCancelled",
      "type": "event"
    },
    {
      "anonymous": false,
      "inputs": [
        {
          "indexed": true,
          "name": "_from",
          "type": "address"
        },
        {
          "indexed": true,
          "name": "_to",
          "type": "address"
        },
        {
          "indexed": false,
          "name": "_tokenId",
          "type": "uint256"
        }
      ],
      "name": "Transfer",
      "type": "event"
    },
    {
      "anonymous": false,
      "inputs": [
        {
          "indexed": true,
          "name": "_owner",
          "type": "address"
        },
        {
          "indexed": true,
          "name": "_approved",
          "type": "address"
        },
        {
          "indexed": false,
          "name": "_tokenId",
          "type": "uint256"
        }
      ],
      "name": "Approval",
      "type": "event"
    },
    {
      "anonymous": false,
      "inputs": [
        {
          "indexed": true,
          "name": "_owner",
          "type": "address"
        },
        {
          "indexed": true,
          "name": "_operator",
          "type": "address"
        },
        {
          "indexed": false,
          "name": "_approved",
          "type": "bool"
        }
      ],
      "name": "ApprovalForAll",
      "type": "event"
    },
    {
      "constant": false,
      "inputs": [
        {
          "name": "_tokenId",
          "type": "uint256"
        },
        {
          "name": "_startPrice",
          "type": "uint256"
        },
        {
          "name": "_duration",
          "type": "uint64"
        }
      ],
      "name": "createAuction",
      "outputs": [],
      "payable": false,
      "stateMutability": "nonpayable",
      "type": "function"
    },
    {
      "constant": false,
      "inputs": [
        {
          "name": "_tokenId",
          "type": "uint256"
        }
      ],
      "name": "cancelAuction",
      "outputs": [],
      "payable": false,
      "stateMutability": "nonpayable",
      "type": "function"
    },
    {
      "constant": false,
      "inputs": [
        {
          "name": "_tokenId",
          "type": "uint256"
        }
      ],
      "name": "bid",
      "outputs": [],
      "payable": true,
      "stateMutability": "payable",
      "type": "function"
    },
    {
      "constant": false,
      "inputs": [
        {
          "name": "_tokenId",
          "type": "uint256"
        }
      ],
      "name": "auctionClose",
      "outputs": [],
      "payable": false,
      "stateMutability": "nonpayable",
      "type": "function"
    },
    {
      "constant": true,
      "inputs": [
        {
          "name": "_tokenId",
          "type": "uint256"
        }
      ],
      "name": "getOpenAuction",
      "outputs": [
        {
          "name": "",
          "type": "address"
        },
        {
          "name": "",
          "type": "address"
        },
        {
          "name": "",
          "type": "address"
        },
        {
          "name": "",
          "type": "uint256"
        },
        {
          "name": "",
          "type": "uint256"
        },
        {
          "name": "",
          "type": "uint64"
        },
        {
          "name": "",
          "type": "uint64"
        },
        {
          "name": "",
          "type": "uint8"
        }
      ],
      "payable": false,
      "stateMutability": "view",
      "type": "function"
    },
    {
      "constant": true,
      "inputs": [
        {
          "name": "index",
          "type": "uint256"
        }
      ],
      "name": "getCompletedAuction",
      "outputs": [
        {
          "name": "",
          "type": "address"
        },
        {
          "name": "",
          "type": "address"
        },
        {
          "name": "",
          "type": "address"
        },
        {
          "name": "",
          "type": "uint256"
        },
        {
          "name": "",
          "type": "uint256"
        },
        {
          "name": "",
          "type": "uint64"
        },
        {
          "name": "",
          "type": "uint64"
        },
        {
          "name": "",
          "type": "uint8"
        }
      ],
      "payable": false,
      "stateMutability": "view",
      "type": "function"
    }
  ],
  "bytecode": "0x608060405234801561001057600080fd5b50614472806100206000396000f3006080604052600436106101a1576000357c0100000000000000000000000000000000000000000000000000000000900463ffffffff168063081812fc146101a6578063095ea7b3146102135780630ee8d85a146102605780630f8f9ee11461030657806318160ddd146103ac57806323b872dd146103d75780632e39000f146104445780632f745c591461048f5780633239c60d146104f057806336b848951461053157806341672a461461057857806342842e0e14610634578063454a2ab3146106a15780634f558e79146106c15780634f6ccce71461070657806350ec5ace14610747578063568e32f3146108a7578063577555d6146109cb5780636352211e146109f857806370a0823114610a6557806376a1751014610abc57806376c192bf14610b035780637baca6cd14610c275780637fc8591714610c945780638aa0fdad14610d0157806396b5a75514610db0578063a22cb46514610ddd578063b88d4fde14610e2c578063d47ada7014610edf578063e3b1475714610f36578063e6bea7941461105a578063e985e9c51461109b578063f934f7f914611116575b600080fd5b3480156101b257600080fd5b506101d16004803603810190808035906020019092919050505061123a565b604051808273ffffffffffffffffffffffffffffffffffffffff1673ffffffffffffffffffffffffffffffffffffffff16815260200191505060405180910390f35b34801561021f57600080fd5b5061025e600480360381019080803573ffffffffffffffffffffffffffffffffffffffff16906020019092919080359060200190929190505050611277565b005b34801561026c57600080fd5b5061028b6004803603810190808035906020019092919050505061143d565b6040518080602001828103825283818151815260200191508051906020019080838360005b838110156102cb5780820151818401526020810190506102b0565b50505050905090810190601f1680156102f85780820380516001836020036101000a031916815260200191505b509250505060405180910390f35b34801561031257600080fd5b50610331600480360381019080803590602001909291905050506114ed565b6040518080602001828103825283818151815260200191508051906020019080838360005b83811015610371578082015181840152602081019050610356565b50505050905090810190601f16801561039e5780820380516001836020036101000a031916815260200191505b509250505060405180910390f35b3480156103b857600080fd5b506103c161159d565b6040518082815260200191505060405180910390f35b3480156103e357600080fd5b50610442600480360381019080803573ffffffffffffffffffffffffffffffffffffffff169060200190929190803573ffffffffffffffffffffffffffffffffffffffff169060200190929190803590602001909291905050506115aa565b005b34801561045057600080fd5b5061048d6004803603810190808035906020019092919080359060200190929190803567ffffffffffffffff1690602001909291905050506116c1565b005b34801561049b57600080fd5b506104da600480360381019080803573ffffffffffffffffffffffffffffffffffffffff16906020019092919080359060200190929190505050611a25565b6040518082815260200191505060405180910390f35b3480156104fc57600080fd5b5061051b60048036038101908080359060200190929190505050611a9c565b6040518082815260200191505060405180910390f35b34801561053d57600080fd5b5061055c60048036038101908080359060200190929190505050611ab4565b604051808260ff1660ff16815260200191505060405180910390f35b34801561058457600080fd5b50610632600480360381019080803590602001908201803590602001908080601f0160208091040260200160405190810160405280939291908181526020018383808284378201915050505050509192919290803590602001908201803590602001908080601f0160208091040260200160405190810160405280939291908181526020018383808284378201915050505050509192919290803560ff169060200190929190505050611ad4565b005b34801561064057600080fd5b5061069f600480360381019080803573ffffffffffffffffffffffffffffffffffffffff169060200190929190803573ffffffffffffffffffffffffffffffffffffffff16906020019092919080359060200190929190505050611b2b565b005b6106bf60048036038101908080359060200190929190505050611b63565b005b3480156106cd57600080fd5b506106ec60048036038101908080359060200190929190505050611f57565b604051808215151515815260200191505060405180910390f35b34801561071257600080fd5b5061073160048036038101908080359060200190929190505050611fc8565b6040518082815260200191505060405180910390f35b34801561075357600080fd5b5061077260048036038101908080359060200190929190505050612000565b6040518080602001806020018773ffffffffffffffffffffffffffffffffffffffff1673ffffffffffffffffffffffffffffffffffffffff1681526020018681526020018581526020018460ff1660ff168152602001838103835289818151815260200191508051906020019080838360005b838110156108005780820151818401526020810190506107e5565b50505050905090810190601f16801561082d5780820380516001836020036101000a031916815260200191505b50838103825288818151815260200191508051906020019080838360005b8381101561086657808201518184015260208101905061084b565b50505050905090810190601f1680156108935780820380516001836020036101000a031916815260200191505b509850505050505050505060405180910390f35b3480156108b357600080fd5b506108d26004803603810190808035906020019092919050505061220e565b604051808973ffffffffffffffffffffffffffffffffffffffff1673ffffffffffffffffffffffffffffffffffffffff1681526020018873ffffffffffffffffffffffffffffffffffffffff1673ffffffffffffffffffffffffffffffffffffffff1681526020018773ffffffffffffffffffffffffffffffffffffffff1673ffffffffffffffffffffffffffffffffffffffff1681526020018681526020018581526020018467ffffffffffffffff1667ffffffffffffffff1681526020018367ffffffffffffffff1667ffffffffffffffff1681526020018260ff1660ff1681526020019850505050505050505060405180910390f35b3480156109d757600080fd5b506109f6600480360381019080803590602001909291905050506122fa565b005b348015610a0457600080fd5b50610a236004803603810190808035906020019092919050505061289a565b604051808273ffffffffffffffffffffffffffffffffffffffff1673ffffffffffffffffffffffffffffffffffffffff16815260200191505060405180910390f35b348015610a7157600080fd5b50610aa6600480360381019080803573ffffffffffffffffffffffffffffffffffffffff169060200190929190505050612917565b6040518082815260200191505060405180910390f35b348015610ac857600080fd5b50610ae76004803603810190808035906020019092919050505061299b565b604051808260ff1660ff16815260200191505060405180910390f35b348015610b0f57600080fd5b50610b2e600480360381019080803590602001909291905050506129c5565b604051808973ffffffffffffffffffffffffffffffffffffffff1673ffffffffffffffffffffffffffffffffffffffff1681526020018873ffffffffffffffffffffffffffffffffffffffff1673ffffffffffffffffffffffffffffffffffffffff1681526020018773ffffffffffffffffffffffffffffffffffffffff1673ffffffffffffffffffffffffffffffffffffffff1681526020018681526020018581526020018467ffffffffffffffff1667ffffffffffffffff1681526020018367ffffffffffffffff1667ffffffffffffffff1681526020018260ff1660ff1681526020019850505050505050505060405180910390f35b348015610c3357600080fd5b50610c5260048036038101908080359060200190929190505050612acb565b604051808273ffffffffffffffffffffffffffffffffffffffff1673ffffffffffffffffffffffffffffffffffffffff16815260200191505060405180910390f35b348015610ca057600080fd5b50610cbf60048036038101908080359060200190929190505050612b08565b604051808273ffffffffffffffffffffffffffffffffffffffff1673ffffffffffffffffffffffffffffffffffffffff16815260200191505060405180910390f35b348015610d0d57600080fd5b50610dae600480360381019080803590602001908201803590602001908080601f0160208091040260200160405190810160405280939291908181526020018383808284378201915050505050509192919290803590602001908201803590602001908080601f0160208091040260200160405190810160405280939291908181526020018383808284378201915050505050509192919290505050612b3b565b005b348015610dbc57600080fd5b50610ddb60048036038101908080359060200190929190505050612ebf565b005b348015610de957600080fd5b50610e2a600480360381019080803573ffffffffffffffffffffffffffffffffffffffff1690602001909291908035151590602001909291905050506130c7565b005b348015610e3857600080fd5b50610edd600480360381019080803573ffffffffffffffffffffffffffffffffffffffff169060200190929190803573ffffffffffffffffffffffffffffffffffffffff16906020019092919080359060200190929190803590602001908201803590602001908080601f0160208091040260200160405190810160405280939291908181526020018383808284378201915050505050509192919290505050613203565b005b348015610eeb57600080fd5b50610f20600480360381019080803573ffffffffffffffffffffffffffffffffffffffff169060200190929190505050613242565b6040518082815260200191505060405180910390f35b348015610f4257600080fd5b50610f616004803603810190808035906020019092919050505061325a565b604051808973ffffffffffffffffffffffffffffffffffffffff1673ffffffffffffffffffffffffffffffffffffffff1681526020018873ffffffffffffffffffffffffffffffffffffffff1673ffffffffffffffffffffffffffffffffffffffff1681526020018773ffffffffffffffffffffffffffffffffffffffff1673ffffffffffffffffffffffffffffffffffffffff1681526020018681526020018581526020018467ffffffffffffffff1667ffffffffffffffff1681526020018367ffffffffffffffff1667ffffffffffffffff1681526020018260ff1660ff1681526020019850505050505050505060405180910390f35b34801561106657600080fd5b5061108560048036038101908080359060200190929190505050613337565b6040518082815260200191505060405180910390f35b3480156110a757600080fd5b506110fc600480360381019080803573ffffffffffffffffffffffffffffffffffffffff169060200190929190803573ffffffffffffffffffffffffffffffffffffffff16906020019092919050505061334f565b604051808215151515815260200191505060405180910390f35b34801561112257600080fd5b50611141600480360381019080803590602001909291905050506133e3565b604051808973ffffffffffffffffffffffffffffffffffffffff1673ffffffffffffffffffffffffffffffffffffffff1681526020018873ffffffffffffffffffffffffffffffffffffffff1673ffffffffffffffffffffffffffffffffffffffff1681526020018773ffffffffffffffffffffffffffffffffffffffff1673ffffffffffffffffffffffffffffffffffffffff1681526020018681526020018581526020018467ffffffffffffffff1667ffffffffffffffff1681526020018367ffffffffffffffff1667ffffffffffffffff1681526020018260ff1660ff1681526020019850505050505050505060405180910390f35b60006001600083815260200190815260200160002060009054906101000a900473ffffffffffffffffffffffffffffffffffffffff169050919050565b60006112828261289a565b90508073ffffffffffffffffffffffffffffffffffffffff168373ffffffffffffffffffffffffffffffffffffffff16141515156112bf57600080fd5b8073ffffffffffffffffffffffffffffffffffffffff163373ffffffffffffffffffffffffffffffffffffffff1614806112ff57506112fe813361334f565b5b151561130a57600080fd5b600073ffffffffffffffffffffffffffffffffffffffff1661132b8361123a565b73ffffffffffffffffffffffffffffffffffffffff1614158061137b5750600073ffffffffffffffffffffffffffffffffffffffff168373ffffffffffffffffffffffffffffffffffffffff1614155b1561143857826001600084815260200190815260200160002060006101000a81548173ffffffffffffffffffffffffffffffffffffffff021916908373ffffffffffffffffffffffffffffffffffffffff1602179055508273ffffffffffffffffffffffffffffffffffffffff168173ffffffffffffffffffffffffffffffffffffffff167f8c5be1e5ebec7d5bd14f71427d1e84f3dd0314c0f7b2291e5b200ac8c7c3b925846040518082815260200191505060405180910390a35b505050565b600b6020528060005260406000206000915090508054600181600116156101000203166002900480601f0160208091040260200160405190810160405280929190818152602001828054600181600116156101000203166002900480156114e55780601f106114ba576101008083540402835291602001916114e5565b820191906000526020600020905b8154815290600101906020018083116114c857829003601f168201915b505050505081565b600a6020528060005260406000206000915090508054600181600116156101000203166002900480601f0160208091040260200160405190810160405280929190818152602001828054600181600116156101000203166002900480156115955780601f1061156a57610100808354040283529160200191611595565b820191906000526020600020905b81548152906001019060200180831161157857829003601f168201915b505050505081565b6000600780549050905090565b806115b533826134f3565b15156115c057600080fd5b600073ffffffffffffffffffffffffffffffffffffffff168473ffffffffffffffffffffffffffffffffffffffff16141515156115fc57600080fd5b600073ffffffffffffffffffffffffffffffffffffffff168373ffffffffffffffffffffffffffffffffffffffff161415151561163857600080fd5b6116428483613588565b61164c84836136f1565b6116568383613909565b8273ffffffffffffffffffffffffffffffffffffffff168473ffffffffffffffffffffffffffffffffffffffff167fddf252ad1be2c89b69c2b068fc378daa952ba7f163c4a11628f55a4df523b3ef846040518082815260200191505060405180910390a350505050565b6000806000806116cf614256565b873373ffffffffffffffffffffffffffffffffffffffff166116f08261289a565b73ffffffffffffffffffffffffffffffffffffffff1614151561171257600080fd5b6064881015151561172257600080fd5b61172c338a6139e0565b61173589612acb565b95506117408961299b565b94504293508684019250610100604051908101604052803373ffffffffffffffffffffffffffffffffffffffff1681526020018773ffffffffffffffffffffffffffffffffffffffff1681526020013373ffffffffffffffffffffffffffffffffffffffff1681526020018981526020018981526020018567ffffffffffffffff1681526020018467ffffffffffffffff1681526020018660ff16815250915081601060008b815260200190815260200160002060008201518160000160006101000a81548173ffffffffffffffffffffffffffffffffffffffff021916908373ffffffffffffffffffffffffffffffffffffffff16021790555060208201518160010160006101000a81548173ffffffffffffffffffffffffffffffffffffffff021916908373ffffffffffffffffffffffffffffffffffffffff16021790555060408201518160020160006101000a81548173ffffffffffffffffffffffffffffffffffffffff021916908373ffffffffffffffffffffffffffffffffffffffff160217905550606082015181600301556080820151816004015560a08201518160050160006101000a81548167ffffffffffffffff021916908367ffffffffffffffff16021790555060c08201518160050160086101000a81548167ffffffffffffffff021916908367ffffffffffffffff16021790555060e08201518160050160106101000a81548160ff021916908360ff1602179055509050507f7fee9a8109a2ad8a5bd278ef50939ed22fdbafc65a2999447607c83cc62613b989836020015184606001518560a001518660c00151604051808681526020018573ffffffffffffffffffffffffffffffffffffffff1673ffffffffffffffffffffffffffffffffffffffff1681526020018481526020018367ffffffffffffffff1667ffffffffffffffff1681526020018267ffffffffffffffff1667ffffffffffffffff1681526020019550505050505060405180910390a1505050505050505050565b6000611a3083612917565b82101515611a3d57600080fd5b600560008473ffffffffffffffffffffffffffffffffffffffff1673ffffffffffffffffffffffffffffffffffffffff16815260200190815260200160002082815481101515611a8957fe5b9060005260206000200154905092915050565b600e6020528060005260406000206000915090505481565b600f6020528060005260406000206000915054906101000a900460ff1681565b600060058260ff1611151515611ae957600080fd5b60008260ff16111515611afb57600080fd5b600090505b8160ff168160ff161015611b2557611b188484612b3b565b8080600101915050611b00565b50505050565b80611b3633826134f3565b1515611b4157600080fd5b611b5d8484846020604051908101604052806000815250613203565b50505050565b6000611b6d614256565b601060008481526020019081526020016000209150611b8b82613b4e565b1515611b9657600080fd5b8160050160089054906101000a900467ffffffffffffffff1667ffffffffffffffff164211151515611bc757600080fd5b816004015434111515611bd957600080fd5b610100604051908101604052808360000160009054906101000a900473ffffffffffffffffffffffffffffffffffffffff1673ffffffffffffffffffffffffffffffffffffffff1681526020018360010160009054906101000a900473ffffffffffffffffffffffffffffffffffffffff1673ffffffffffffffffffffffffffffffffffffffff1681526020013373ffffffffffffffffffffffffffffffffffffffff168152602001836003015481526020013481526020018360050160009054906101000a900467ffffffffffffffff1667ffffffffffffffff1681526020018360050160089054906101000a900467ffffffffffffffff1667ffffffffffffffff1681526020018360050160109054906101000a900460ff1660ff168152509050806010600085815260200190815260200160002060008201518160000160006101000a81548173ffffffffffffffffffffffffffffffffffffffff021916908373ffffffffffffffffffffffffffffffffffffffff16021790555060208201518160010160006101000a81548173ffffffffffffffffffffffffffffffffffffffff021916908373ffffffffffffffffffffffffffffffffffffffff16021790555060408201518160020160006101000a81548173ffffffffffffffffffffffffffffffffffffffff021916908373ffffffffffffffffffffffffffffffffffffffff160217905550606082015181600301556080820151816004015560a08201518160050160006101000a81548167ffffffffffffffff021916908367ffffffffffffffff16021790555060c08201518160050160086101000a81548167ffffffffffffffff021916908367ffffffffffffffff16021790555060e08201518160050160106101000a81548160ff021916908360ff1602179055509050507f2f5260b20758958466bdbc91766857fc92bb0b4991c70df624895a52b3c78a18838360010160009054906101000a900473ffffffffffffffffffffffffffffffffffffffff1633856003015434604051808681526020018573ffffffffffffffffffffffffffffffffffffffff1673ffffffffffffffffffffffffffffffffffffffff1681526020018473ffffffffffffffffffffffffffffffffffffffff1673ffffffffffffffffffffffffffffffffffffffff1681526020018381526020018281526020019550505050505060405180910390a1505050565b60008060008084815260200190815260200160002060009054906101000a900473ffffffffffffffffffffffffffffffffffffffff169050600073ffffffffffffffffffffffffffffffffffffffff168173ffffffffffffffffffffffffffffffffffffffff161415915050919050565b6000611fd261159d565b82101515611fdf57600080fd5b600782815481101515611fee57fe5b90600052602060002001549050919050565b60608060008060008061201161159d565b8710151561201e57600080fd5b600a6000888152602001908152602001600020600b6000898152602001908152602001600020600c60008a815260200190815260200160002060009054906101000a900473ffffffffffffffffffffffffffffffffffffffff16600d60008b815260200190815260200160002054600e60008c815260200190815260200160002054600f60008d815260200190815260200160002060009054906101000a900460ff16858054600181600116156101000203166002900480601f0160208091040260200160405190810160405280929190818152602001828054600181600116156101000203166002900480156121565780601f1061212b57610100808354040283529160200191612156565b820191906000526020600020905b81548152906001019060200180831161213957829003601f168201915b50505050509550848054600181600116156101000203166002900480601f0160208091040260200160405190810160405280929190818152602001828054600181600116156101000203166002900480156121f25780601f106121c7576101008083540402835291602001916121f2565b820191906000526020600020905b8154815290600101906020018083116121d557829003601f168201915b5050505050945095509550955095509550955091939550919395565b60118181548110151561221d57fe5b90600052602060002090600602016000915090508060000160009054906101000a900473ffffffffffffffffffffffffffffffffffffffff16908060010160009054906101000a900473ffffffffffffffffffffffffffffffffffffffff16908060020160009054906101000a900473ffffffffffffffffffffffffffffffffffffffff16908060030154908060040154908060050160009054906101000a900467ffffffffffffffff16908060050160089054906101000a900467ffffffffffffffff16908060050160109054906101000a900460ff16905088565b60008060006010600085815260200190815260200160002092508260050160089054906101000a900467ffffffffffffffff1667ffffffffffffffff164211151561234457600080fd5b61234d83613b4e565b151561235857600080fd5b601183908060018154018082558091505090600182039060005260206000209060060201600090919290919091506000820160009054906101000a900473ffffffffffffffffffffffffffffffffffffffff168160000160006101000a81548173ffffffffffffffffffffffffffffffffffffffff021916908373ffffffffffffffffffffffffffffffffffffffff1602179055506001820160009054906101000a900473ffffffffffffffffffffffffffffffffffffffff168160010160006101000a81548173ffffffffffffffffffffffffffffffffffffffff021916908373ffffffffffffffffffffffffffffffffffffffff1602179055506002820160009054906101000a900473ffffffffffffffffffffffffffffffffffffffff168160020160006101000a81548173ffffffffffffffffffffffffffffffffffffffff021916908373ffffffffffffffffffffffffffffffffffffffff16021790555060038201548160030155600482015481600401556005820160009054906101000a900467ffffffffffffffff168160050160006101000a81548167ffffffffffffffff021916908367ffffffffffffffff1602179055506005820160089054906101000a900467ffffffffffffffff168160050160086101000a81548167ffffffffffffffff021916908367ffffffffffffffff1602179055506005820160109054906101000a900460ff168160050160106101000a81548160ff021916908360ff1602179055505050506125b48360020160009054906101000a900473ffffffffffffffffffffffffffffffffffffffff1685613b7c565b60106000858152602001908152602001600020600080820160006101000a81549073ffffffffffffffffffffffffffffffffffffffff02191690556001820160006101000a81549073ffffffffffffffffffffffffffffffffffffffff02191690556002820160006101000a81549073ffffffffffffffffffffffffffffffffffffffff0219169055600382016000905560048201600090556005820160006101000a81549067ffffffffffffffff02191690556005820160086101000a81549067ffffffffffffffff02191690556005820160106101000a81549060ff0219169055505060648360050160109054906101000a900460ff1660ff168460040154028115156126bf57fe5b0491508183600401540390508260000160009054906101000a900473ffffffffffffffffffffffffffffffffffffffff1673ffffffffffffffffffffffffffffffffffffffff166108fc829081150290604051600060405180830381858888f19350505050158015612735573d6000803e3d6000fd5b508260010160009054906101000a900473ffffffffffffffffffffffffffffffffffffffff1673ffffffffffffffffffffffffffffffffffffffff166108fc839081150290604051600060405180830381858888f193505050501580156127a0573d6000803e3d6000fd5b507fafdeeac496c85b58d5787e2bdf4629388231070f6b20208fc37abbf14e7504c1848460010160009054906101000a900473ffffffffffffffffffffffffffffffffffffffff1685600401548660020160009054906101000a900473ffffffffffffffffffffffffffffffffffffffff16604051808581526020018473ffffffffffffffffffffffffffffffffffffffff1673ffffffffffffffffffffffffffffffffffffffff1681526020018381526020018273ffffffffffffffffffffffffffffffffffffffff1673ffffffffffffffffffffffffffffffffffffffff16815260200194505050505060405180910390a150505050565b60008060008084815260200190815260200160002060009054906101000a900473ffffffffffffffffffffffffffffffffffffffff169050600073ffffffffffffffffffffffffffffffffffffffff168173ffffffffffffffffffffffffffffffffffffffff161415151561290e57600080fd5b80915050919050565b60008073ffffffffffffffffffffffffffffffffffffffff168273ffffffffffffffffffffffffffffffffffffffff161415151561295457600080fd5b600260008373ffffffffffffffffffffffffffffffffffffffff1673ffffffffffffffffffffffffffffffffffffffff168152602001908152602001600020549050919050565b6000600f600083815260200190815260200160002060009054906101000a900460ff169050919050565b600080600080600080600080600060118a8154811015156129e257fe5b906000526020600020906006020190508060000160009054906101000a900473ffffffffffffffffffffffffffffffffffffffff168160010160009054906101000a900473ffffffffffffffffffffffffffffffffffffffff168260020160009054906101000a900473ffffffffffffffffffffffffffffffffffffffff16836003015484600401548560050160009054906101000a900467ffffffffffffffff168660050160089054906101000a900467ffffffffffffffff168760050160109054906101000a900460ff169850985098509850985098509850985050919395975091939597565b6000600c600083815260200190815260200160002060009054906101000a900473ffffffffffffffffffffffffffffffffffffffff169050919050565b600c6020528060005260406000206000915054906101000a900473ffffffffffffffffffffffffffffffffffffffff1681565b600080600080612b5033600480549050613cea565b429350600960003373ffffffffffffffffffffffffffffffffffffffff1673ffffffffffffffffffffffffffffffffffffffff1681526020019081526020016000205492506007805490506008600083815260200190815260200160002081905550600781908060018154018082558091505090600182039060005260206000200160009091929091909150555060059150612d216001600460c0604051908101604052808a81526020018981526020013373ffffffffffffffffffffffffffffffffffffffff1681526020018781526020018881526020018660ff16815250908060018154018082558091505090600182039060005260206000209060060201600090919290919091506000820151816000019080519060200190612c779291906142f5565b506020820151816001019080519060200190612c949291906142f5565b5060408201518160020160006101000a81548173ffffffffffffffffffffffffffffffffffffffff021916908373ffffffffffffffffffffffffffffffffffffffff160217905550606082015181600301556080820151816004015560a08201518160050160006101000a81548160ff021916908360ff1602179055505050613d9a90919063ffffffff16565b9050612d766001600960003373ffffffffffffffffffffffffffffffffffffffff1673ffffffffffffffffffffffffffffffffffffffff16815260200190815260200160002054613db390919063ffffffff16565b600960003373ffffffffffffffffffffffffffffffffffffffff1673ffffffffffffffffffffffffffffffffffffffff1681526020019081526020016000208190555085600a60008381526020019081526020016000209080519060200190612de0929190614375565b5084600b60008381526020019081526020016000209080519060200190612e08929190614375565b5033600c600083815260200190815260200160002060006101000a81548173ffffffffffffffffffffffffffffffffffffffff021916908373ffffffffffffffffffffffffffffffffffffffff16021790555082600d60008381526020019081526020016000208190555083600e60008381526020019081526020016000208190555081600f600083815260200190815260200160002060006101000a81548160ff021916908360ff160217905550505050505050565b60006010600083815260200190815260200160002090508060000160009054906101000a900473ffffffffffffffffffffffffffffffffffffffff1673ffffffffffffffffffffffffffffffffffffffff163373ffffffffffffffffffffffffffffffffffffffff16141515612f3457600080fd5b612f3d81613b4e565b1515612f4857600080fd5b428160050160089054906101000a900467ffffffffffffffff1667ffffffffffffffff1610151515612f7957600080fd5b612fa78160000160009054906101000a900473ffffffffffffffffffffffffffffffffffffffff1683613b7c565b60106000838152602001908152602001600020600080820160006101000a81549073ffffffffffffffffffffffffffffffffffffffff02191690556001820160006101000a81549073ffffffffffffffffffffffffffffffffffffffff02191690556002820160006101000a81549073ffffffffffffffffffffffffffffffffffffffff0219169055600382016000905560048201600090556005820160006101000a81549067ffffffffffffffff02191690556005820160086101000a81549067ffffffffffffffff02191690556005820160106101000a81549060ff021916905550507f2809c7e17bf978fbc7194c0a694b638c4215e9140cacc6c38ca36010b45697df826040518082815260200191505060405180910390a15050565b3373ffffffffffffffffffffffffffffffffffffffff168273ffffffffffffffffffffffffffffffffffffffff161415151561310257600080fd5b80600360003373ffffffffffffffffffffffffffffffffffffffff1673ffffffffffffffffffffffffffffffffffffffff16815260200190815260200160002060008473ffffffffffffffffffffffffffffffffffffffff1673ffffffffffffffffffffffffffffffffffffffff16815260200190815260200160002060006101000a81548160ff0219169083151502179055508173ffffffffffffffffffffffffffffffffffffffff163373ffffffffffffffffffffffffffffffffffffffff167f17307eab39ab6107e8899845ad3d59bd9653f200f220920489ca2b5937696c3183604051808215151515815260200191505060405180910390a35050565b8161320e33826134f3565b151561321957600080fd5b6132248585856115aa565b61323085858585613dcf565b151561323b57600080fd5b5050505050565b60096020528060005260406000206000915090505481565b60106020528060005260406000206000915090508060000160009054906101000a900473ffffffffffffffffffffffffffffffffffffffff16908060010160009054906101000a900473ffffffffffffffffffffffffffffffffffffffff16908060020160009054906101000a900473ffffffffffffffffffffffffffffffffffffffff16908060030154908060040154908060050160009054906101000a900467ffffffffffffffff16908060050160089054906101000a900467ffffffffffffffff16908060050160109054906101000a900460ff16905088565b600d6020528060005260406000206000915090505481565b6000600360008473ffffffffffffffffffffffffffffffffffffffff1673ffffffffffffffffffffffffffffffffffffffff16815260200190815260200160002060008373ffffffffffffffffffffffffffffffffffffffff1673ffffffffffffffffffffffffffffffffffffffff16815260200190815260200160002060009054906101000a900460ff16905092915050565b6000806000806000806000806000601060008b8152602001908152602001600020905061340f81613b4e565b151561341a57600080fd5b8060000160009054906101000a900473ffffffffffffffffffffffffffffffffffffffff168160010160009054906101000a900473ffffffffffffffffffffffffffffffffffffffff168260020160009054906101000a900473ffffffffffffffffffffffffffffffffffffffff16836003015484600401548560050160009054906101000a900467ffffffffffffffff168660050160089054906101000a900467ffffffffffffffff168760050160109054906101000a900460ff169850985098509850985098509850985050919395975091939597565b6000806134ff8361289a565b90508073ffffffffffffffffffffffffffffffffffffffff168473ffffffffffffffffffffffffffffffffffffffff16148061356e57508373ffffffffffffffffffffffffffffffffffffffff166135568461123a565b73ffffffffffffffffffffffffffffffffffffffff16145b8061357f575061357e818561334f565b5b91505092915050565b8173ffffffffffffffffffffffffffffffffffffffff166135a88261289a565b73ffffffffffffffffffffffffffffffffffffffff161415156135ca57600080fd5b600073ffffffffffffffffffffffffffffffffffffffff166001600083815260200190815260200160002060009054906101000a900473ffffffffffffffffffffffffffffffffffffffff1673ffffffffffffffffffffffffffffffffffffffff161415156136ed5760006001600083815260200190815260200160002060006101000a81548173ffffffffffffffffffffffffffffffffffffffff021916908373ffffffffffffffffffffffffffffffffffffffff160217905550600073ffffffffffffffffffffffffffffffffffffffff168273ffffffffffffffffffffffffffffffffffffffff167f8c5be1e5ebec7d5bd14f71427d1e84f3dd0314c0f7b2291e5b200ac8c7c3b925836040518082815260200191505060405180910390a35b5050565b60008060006137008585613fbd565b6006600085815260200190815260200160002054925061376c6001600560008873ffffffffffffffffffffffffffffffffffffffff1673ffffffffffffffffffffffffffffffffffffffff16815260200190815260200160002080549050613d9a90919063ffffffff16565b9150600560008673ffffffffffffffffffffffffffffffffffffffff1673ffffffffffffffffffffffffffffffffffffffff168152602001908152602001600020828154811015156137ba57fe5b9060005260206000200154905080600560008773ffffffffffffffffffffffffffffffffffffffff1673ffffffffffffffffffffffffffffffffffffffff1681526020019081526020016000208481548110151561381457fe5b90600052602060002001819055506000600560008773ffffffffffffffffffffffffffffffffffffffff1673ffffffffffffffffffffffffffffffffffffffff1681526020019081526020016000208381548110151561387057fe5b9060005260206000200181905550600560008673ffffffffffffffffffffffffffffffffffffffff1673ffffffffffffffffffffffffffffffffffffffff1681526020019081526020016000208054809190600190036138d091906143f5565b50600060066000868152602001908152602001600020819055508260066000838152602001908152602001600020819055505050505050565b600061391583836140eb565b600560008473ffffffffffffffffffffffffffffffffffffffff1673ffffffffffffffffffffffffffffffffffffffff168152602001908152602001600020805490509050600560008473ffffffffffffffffffffffffffffffffffffffff1673ffffffffffffffffffffffffffffffffffffffff168152602001908152602001600020829080600181540180825580915050906001820390600052602060002001600090919290919091505550806006600084815260200190815260200160002081905550505050565b6139ea8282613588565b6139f482826136f1565b6139fe3082613909565b3060008083815260200190815260200160002060006101000a81548173ffffffffffffffffffffffffffffffffffffffff021916908373ffffffffffffffffffffffffffffffffffffffff160217905550613aa26001600260003073ffffffffffffffffffffffffffffffffffffffff1673ffffffffffffffffffffffffffffffffffffffff16815260200190815260200160002054613db390919063ffffffff16565b600260003073ffffffffffffffffffffffffffffffffffffffff1673ffffffffffffffffffffffffffffffffffffffff168152602001908152602001600020819055503073ffffffffffffffffffffffffffffffffffffffff168273ffffffffffffffffffffffffffffffffffffffff167fddf252ad1be2c89b69c2b068fc378daa952ba7f163c4a11628f55a4df523b3ef836040518082815260200191505060405180910390a35050565b6000808260050160009054906101000a900467ffffffffffffffff1667ffffffffffffffff16119050919050565b613b863082613588565b613b9030826136f1565b613b9a8282613909565b8160008083815260200190815260200160002060006101000a81548173ffffffffffffffffffffffffffffffffffffffff021916908373ffffffffffffffffffffffffffffffffffffffff160217905550613c3e6001600260008573ffffffffffffffffffffffffffffffffffffffff1673ffffffffffffffffffffffffffffffffffffffff16815260200190815260200160002054613db390919063ffffffff16565b600260008473ffffffffffffffffffffffffffffffffffffffff1673ffffffffffffffffffffffffffffffffffffffff168152602001908152602001600020819055508173ffffffffffffffffffffffffffffffffffffffff163073ffffffffffffffffffffffffffffffffffffffff167fddf252ad1be2c89b69c2b068fc378daa952ba7f163c4a11628f55a4df523b3ef836040518082815260200191505060405180910390a35050565b600073ffffffffffffffffffffffffffffffffffffffff168273ffffffffffffffffffffffffffffffffffffffff1614151515613d2657600080fd5b613d308282613909565b8173ffffffffffffffffffffffffffffffffffffffff16600073ffffffffffffffffffffffffffffffffffffffff167fddf252ad1be2c89b69c2b068fc378daa952ba7f163c4a11628f55a4df523b3ef836040518082815260200191505060405180910390a35050565b6000828211151515613da857fe5b818303905092915050565b60008183019050828110151515613dc657fe5b80905092915050565b600080613df18573ffffffffffffffffffffffffffffffffffffffff16614243565b1515613e005760019150613fb4565b8473ffffffffffffffffffffffffffffffffffffffff1663f0b9e5ba8786866040518463ffffffff167c0100000000000000000000000000000000000000000000000000000000028152600401808473ffffffffffffffffffffffffffffffffffffffff1673ffffffffffffffffffffffffffffffffffffffff16815260200183815260200180602001828103825283818151815260200191508051906020019080838360005b83811015613ec2578082015181840152602081019050613ea7565b50505050905090810190601f168015613eef5780820380516001836020036101000a031916815260200191505b50945050505050602060405180830381600087803b158015613f1057600080fd5b505af1158015613f24573d6000803e3d6000fd5b505050506040513d6020811015613f3a57600080fd5b8101908080519060200190929190505050905063f0b9e5ba7c0100000000000000000000000000000000000000000000000000000000027bffffffffffffffffffffffffffffffffffffffffffffffffffffffff1916817bffffffffffffffffffffffffffffffffffffffffffffffffffffffff19161491505b50949350505050565b8173ffffffffffffffffffffffffffffffffffffffff16613fdd8261289a565b73ffffffffffffffffffffffffffffffffffffffff16141515613fff57600080fd5b6140526001600260008573ffffffffffffffffffffffffffffffffffffffff1673ffffffffffffffffffffffffffffffffffffffff16815260200190815260200160002054613d9a90919063ffffffff16565b600260008473ffffffffffffffffffffffffffffffffffffffff1673ffffffffffffffffffffffffffffffffffffffff16815260200190815260200160002081905550600080600083815260200190815260200160002060006101000a81548173ffffffffffffffffffffffffffffffffffffffff021916908373ffffffffffffffffffffffffffffffffffffffff1602179055505050565b600073ffffffffffffffffffffffffffffffffffffffff1660008083815260200190815260200160002060009054906101000a900473ffffffffffffffffffffffffffffffffffffffff1673ffffffffffffffffffffffffffffffffffffffff1614151561415857600080fd5b8160008083815260200190815260200160002060006101000a81548173ffffffffffffffffffffffffffffffffffffffff021916908373ffffffffffffffffffffffffffffffffffffffff1602179055506141fc6001600260008573ffffffffffffffffffffffffffffffffffffffff1673ffffffffffffffffffffffffffffffffffffffff16815260200190815260200160002054613db390919063ffffffff16565b600260008473ffffffffffffffffffffffffffffffffffffffff1673ffffffffffffffffffffffffffffffffffffffff168152602001908152602001600020819055505050565b600080823b905060008111915050919050565b61010060405190810160405280600073ffffffffffffffffffffffffffffffffffffffff168152602001600073ffffffffffffffffffffffffffffffffffffffff168152602001600073ffffffffffffffffffffffffffffffffffffffff1681526020016000815260200160008152602001600067ffffffffffffffff168152602001600067ffffffffffffffff168152602001600060ff1681525090565b828054600181600116156101000203166002900490600052602060002090601f016020900481019282601f1061433657805160ff1916838001178555614364565b82800160010185558215614364579182015b82811115614363578251825591602001919060010190614348565b5b5090506143719190614421565b5090565b828054600181600116156101000203166002900490600052602060002090601f016020900481019282601f106143b657805160ff19168380011785556143e4565b828001600101855582156143e4579182015b828111156143e35782518255916020019190600101906143c8565b5b5090506143f19190614421565b5090565b81548183558181111561441c5781836000526020600020918201910161441b9190614421565b5b505050565b61444391905b8082111561443f576000816000905550600101614427565b5090565b905600a165627a7a7230582044cfd994325b2f99e83dd1ae3456f893700a240409986807c7e30b53a4e0dbf80029",
  "source": "pragma solidity ^0.4.23;\n\nimport \"./ArtistToken.sol\";\n\ncontract TokenAuction is ArtistToken {\n  \n  struct Auction {\n    address seller;\n    address artist;\n    address topBidder;\n    uint256 startPrice;\n    uint256 endPrice;\n    uint64 auctionStart;\n    uint64 auctionClose;\n    uint8 royaltyPercentage;\n  }\n\n  // Open Auctions\n  mapping (uint256 => Auction) public tokenIdToAuction;\n\n  // Completed auctions\n  Auction[] public completedAuctions;\n\n  event AuctionCreated(uint256 tokenId, address artist, uint256 startPrice, uint64 auctionStart, uint64 auctionClose);\n  event AuctionBidIncreased(uint256 tokenId, address artist, address bidder, uint256 startPrice, uint256 endPrice);\n  event AuctionSuccessful(uint256 tokenId, address artist, uint256 endPrice, address winner);\n  event AuctionCancelled(uint256 tokenId);\n\n  // escrow the NFT assigns ownership to contract\n  function _escrow(address _owner, uint256 _tokenId) internal {\n    // clear approvals\n    clearApproval(_owner, _tokenId);\n    \n    // remove token from   \n    super.removeTokenFrom(_owner, _tokenId);\n    \n    // transfer ownership\n    super.addTokenTo(this, _tokenId);\n    tokenOwner[_tokenId] = this;\n    ownedTokensCount[this] = ownedTokensCount[this].add(1);\n    \n    emit Transfer(_owner, this, _tokenId);\n  }\n\n  // transfer NFT owned by contract to another address\n  function _transfer(address _receiver, uint256 _tokenId) internal {\n    // clear approvals\n    clearApproval(this, _tokenId);\n    \n    // remove token from   \n    super.removeTokenFrom(this, _tokenId);\n    \n    // transfer ownership\n    addTokenTo(_receiver, _tokenId);\n    tokenOwner[_tokenId] = _receiver;\n    ownedTokensCount[_receiver] = ownedTokensCount[_receiver].add(1);\n    \n    emit Transfer(this, _receiver, _tokenId);\n  }\n\n  // check if the auction is on\n  function _isOnAuction(Auction storage _auction) internal view returns (bool) {\n    return (_auction.auctionStart > 0);\n  }\n\n  // creates an Auction\n  function createAuction(uint256 _tokenId, \n                         uint256 _startPrice,\n                         uint64 _duration) public onlyOwnerOf(_tokenId) {\n    // require non-zero start price\n    require(_startPrice >= 100);\n    // transfer token to this contract\n    _escrow(msg.sender, _tokenId);\n    \n    // get values from inherited contract ArtistToken\n    address _artist = getArtistAddress(_tokenId);\n    uint8 _royaltyPercentage = getRoyaltyPercentage(_tokenId);\n    \n    uint64 _auctionStart = uint64(now);\n    uint64 _auctionEnd = _auctionStart + _duration;\n\n    Auction memory _auction = Auction(\n      msg.sender,\n      _artist,\n      msg.sender,\n      _startPrice,\n      _startPrice,\n      _auctionStart,\n      _auctionEnd,\n      _royaltyPercentage\n    );\n\n    // create mapping\n    tokenIdToAuction[_tokenId] = _auction;\n\n    // broadcast event\n    emit AuctionCreated(\n      uint256(_tokenId),\n      address(_auction.artist),\n      uint256(_auction.startPrice),\n      uint64(_auction.auctionStart),\n      uint64(_auction.auctionClose)\n    );\n  }\n\n  function cancelAuction(uint256 _tokenId) public {\n    Auction storage auction = tokenIdToAuction[_tokenId];\n    require(msg.sender == auction.seller);\n    require(_isOnAuction(auction));\n    require(auction.auctionClose >= now);\n    _transfer(auction.seller, _tokenId);\n    delete tokenIdToAuction[_tokenId];\n    emit AuctionCancelled(_tokenId);\n  }\n\n  function bid(uint256 _tokenId) public payable {\n    Auction storage auction = tokenIdToAuction[_tokenId];\n    require(_isOnAuction(auction));\n    require(now <= auction.auctionClose);\n    require(msg.value > auction.endPrice); \n\n    // update mapping\n    Auction memory _auction = Auction(\n      auction.seller,\n      auction.artist,\n      msg.sender,\n      auction.startPrice,\n      msg.value,\n      auction.auctionStart,\n      auction.auctionClose,\n      auction.royaltyPercentage\n    );\n\n    tokenIdToAuction[_tokenId] = _auction;\n\n    emit AuctionBidIncreased(_tokenId, auction.artist, msg.sender, auction.startPrice, msg.value);\n  }\n\n  function auctionClose(uint256 _tokenId) public {\n    Auction storage auction = tokenIdToAuction[_tokenId];\n    require(now > auction.auctionClose);\n    require(_isOnAuction(auction));\n    \n    // add to completedAuctions\n    completedAuctions.push(auction);\n    \n    // transfer token\n    _transfer(auction.topBidder, _tokenId);\n\n    // delete auction\n    delete tokenIdToAuction[_tokenId];\n\n    uint256 artistCut =  auction.endPrice * auction.royaltyPercentage/100;\n    uint256 sellerProceeds = auction.endPrice - artistCut;\n\n    // transfer as accordingly\n    auction.seller.transfer(sellerProceeds);\n    auction.artist.transfer(artistCut);\n\n    // announce event\n    emit AuctionSuccessful(_tokenId, auction.artist, auction.endPrice, auction.topBidder);\n  }\n\n  function getOpenAuction(uint256 _tokenId)\n    public\n    view\n    returns\n  (\n    address,\n    address,\n    address,\n    uint256,\n    uint256,\n    uint64,\n    uint64,\n    uint8\n  ) {\n    Auction storage auction = tokenIdToAuction[_tokenId];\n    require(_isOnAuction(auction));\n    return (\n        auction.seller,\n        auction.artist,\n        auction.topBidder,\n        auction.startPrice,\n        auction.endPrice,\n        auction.auctionStart,\n        auction.auctionClose,\n        auction.royaltyPercentage\n    );\n  }\n  \n    function getCompletedAuction(uint256 index)\n    public\n    view\n    returns\n  (\n    address,\n    address,\n    address,\n    uint256,\n    uint256,\n    uint64,\n    uint64,\n    uint8\n  ) {\n    Auction storage auction = completedAuctions[index];\n    return (\n        auction.seller,\n        auction.artist,\n        auction.topBidder,\n        auction.startPrice,\n        auction.endPrice,\n        auction.auctionStart,\n        auction.auctionClose,\n        auction.royaltyPercentage\n    );\n  }\n}\n",
  "sourcePath": "/home/ada/WebApp/smackathon/contracts/TokenAuction.sol",
  "compiler": {
    "name": "solc",
    "version": "0.4.23+commit.124ca40d.Emscripten.clang"
  },
  "schemaVersion": "2.0.0",
  "updatedAt": "2018-06-02T14:17:53.846Z"
}