{
  "contractName": "TokenAuction",
  "abi": [
    {
      "constant": true,
      "inputs": [
        {
          "name": "_tokenId",
          "type": "uint256"
        }
      ],
      "name": "getApproved",
      "outputs": [
        {
          "name": "",
          "type": "address"
        }
      ],
      "payable": false,
      "stateMutability": "view",
      "type": "function"
    },
    {
      "constant": false,
      "inputs": [
        {
          "name": "_to",
          "type": "address"
        },
        {
          "name": "_tokenId",
          "type": "uint256"
        }
      ],
      "name": "approve",
      "outputs": [],
      "payable": false,
      "stateMutability": "nonpayable",
      "type": "function"
    },
    {
      "constant": true,
      "inputs": [
        {
          "name": "",
          "type": "uint256"
        }
      ],
      "name": "tokenToDescription",
      "outputs": [
        {
          "name": "",
          "type": "string"
        }
      ],
      "payable": false,
      "stateMutability": "view",
      "type": "function"
    },
    {
      "constant": true,
      "inputs": [
        {
          "name": "",
          "type": "uint256"
        }
      ],
      "name": "tokenToName",
      "outputs": [
        {
          "name": "",
          "type": "string"
        }
      ],
      "payable": false,
      "stateMutability": "view",
      "type": "function"
    },
    {
      "constant": true,
      "inputs": [],
      "name": "totalSupply",
      "outputs": [
        {
          "name": "",
          "type": "uint256"
        }
      ],
      "payable": false,
      "stateMutability": "view",
      "type": "function"
    },
    {
      "constant": false,
      "inputs": [
        {
          "name": "_from",
          "type": "address"
        },
        {
          "name": "_to",
          "type": "address"
        },
        {
          "name": "_tokenId",
          "type": "uint256"
        }
      ],
      "name": "transferFrom",
      "outputs": [],
      "payable": false,
      "stateMutability": "nonpayable",
      "type": "function"
    },
    {
      "constant": true,
      "inputs": [
        {
          "name": "_owner",
          "type": "address"
        },
        {
          "name": "_index",
          "type": "uint256"
        }
      ],
      "name": "tokenOfOwnerByIndex",
      "outputs": [
        {
          "name": "",
          "type": "uint256"
        }
      ],
      "payable": false,
      "stateMutability": "view",
      "type": "function"
    },
    {
      "constant": true,
      "inputs": [
        {
          "name": "",
          "type": "uint256"
        }
      ],
      "name": "tokenToTimeCreated",
      "outputs": [
        {
          "name": "",
          "type": "uint256"
        }
      ],
      "payable": false,
      "stateMutability": "view",
      "type": "function"
    },
    {
      "constant": true,
      "inputs": [
        {
          "name": "",
          "type": "uint256"
        }
      ],
      "name": "tokenToRoyaltyPercentage",
      "outputs": [
        {
          "name": "",
          "type": "uint8"
        }
      ],
      "payable": false,
      "stateMutability": "view",
      "type": "function"
    },
    {
      "constant": false,
      "inputs": [
        {
          "name": "_name",
          "type": "string"
        },
        {
          "name": "_description",
          "type": "string"
        },
        {
          "name": "_numToken",
          "type": "uint8"
        }
      ],
      "name": "batchMint",
      "outputs": [],
      "payable": false,
      "stateMutability": "nonpayable",
      "type": "function"
    },
    {
      "constant": false,
      "inputs": [
        {
          "name": "_from",
          "type": "address"
        },
        {
          "name": "_to",
          "type": "address"
        },
        {
          "name": "_tokenId",
          "type": "uint256"
        }
      ],
      "name": "safeTransferFrom",
      "outputs": [],
      "payable": false,
      "stateMutability": "nonpayable",
      "type": "function"
    },
    {
      "constant": true,
      "inputs": [
        {
          "name": "_tokenId",
          "type": "uint256"
        }
      ],
      "name": "exists",
      "outputs": [
        {
          "name": "",
          "type": "bool"
        }
      ],
      "payable": false,
      "stateMutability": "view",
      "type": "function"
    },
    {
      "constant": true,
      "inputs": [
        {
          "name": "_index",
          "type": "uint256"
        }
      ],
      "name": "tokenByIndex",
      "outputs": [
        {
          "name": "",
          "type": "uint256"
        }
      ],
      "payable": false,
      "stateMutability": "view",
      "type": "function"
    },
    {
      "constant": true,
      "inputs": [
        {
          "name": "_index",
          "type": "uint256"
        }
      ],
      "name": "tokenDataByIndex",
      "outputs": [
        {
          "name": "",
          "type": "string"
        },
        {
          "name": "",
          "type": "string"
        },
        {
          "name": "",
          "type": "address"
        },
        {
          "name": "",
          "type": "uint256"
        },
        {
          "name": "",
          "type": "uint256"
        },
        {
          "name": "",
          "type": "uint8"
        }
      ],
      "payable": false,
      "stateMutability": "view",
      "type": "function"
    },
    {
      "constant": true,
      "inputs": [
        {
          "name": "_tokenId",
          "type": "uint256"
        }
      ],
      "name": "ownerOf",
      "outputs": [
        {
          "name": "",
          "type": "address"
        }
      ],
      "payable": false,
      "stateMutability": "view",
      "type": "function"
    },
    {
      "constant": true,
      "inputs": [
        {
          "name": "_owner",
          "type": "address"
        }
      ],
      "name": "balanceOf",
      "outputs": [
        {
          "name": "",
          "type": "uint256"
        }
      ],
      "payable": false,
      "stateMutability": "view",
      "type": "function"
    },
    {
      "constant": true,
      "inputs": [
        {
          "name": "_tokenId",
          "type": "uint256"
        }
      ],
      "name": "getRoyaltyPercentage",
      "outputs": [
        {
          "name": "",
          "type": "uint8"
        }
      ],
      "payable": false,
      "stateMutability": "view",
      "type": "function"
    },
    {
      "constant": true,
      "inputs": [
        {
          "name": "_tokenId",
          "type": "uint256"
        }
      ],
      "name": "getArtistAddress",
      "outputs": [
        {
          "name": "",
          "type": "address"
        }
      ],
      "payable": false,
      "stateMutability": "view",
      "type": "function"
    },
    {
      "constant": true,
      "inputs": [
        {
          "name": "",
          "type": "uint256"
        }
      ],
      "name": "tokenToArtistAddress",
      "outputs": [
        {
          "name": "",
          "type": "address"
        }
      ],
      "payable": false,
      "stateMutability": "view",
      "type": "function"
    },
    {
      "constant": false,
      "inputs": [
        {
          "name": "_name",
          "type": "string"
        },
        {
          "name": "_description",
          "type": "string"
        }
      ],
      "name": "mint",
      "outputs": [],
      "payable": false,
      "stateMutability": "nonpayable",
      "type": "function"
    },
    {
      "constant": false,
      "inputs": [
        {
          "name": "_to",
          "type": "address"
        },
        {
          "name": "_approved",
          "type": "bool"
        }
      ],
      "name": "setApprovalForAll",
      "outputs": [],
      "payable": false,
      "stateMutability": "nonpayable",
      "type": "function"
    },
    {
      "constant": false,
      "inputs": [
        {
          "name": "_from",
          "type": "address"
        },
        {
          "name": "_to",
          "type": "address"
        },
        {
          "name": "_tokenId",
          "type": "uint256"
        },
        {
          "name": "_data",
          "type": "bytes"
        }
      ],
      "name": "safeTransferFrom",
      "outputs": [],
      "payable": false,
      "stateMutability": "nonpayable",
      "type": "function"
    },
    {
      "constant": true,
      "inputs": [
        {
          "name": "",
          "type": "address"
        }
      ],
      "name": "addrToArtistTokenNumber",
      "outputs": [
        {
          "name": "",
          "type": "uint256"
        }
      ],
      "payable": false,
      "stateMutability": "view",
      "type": "function"
    },
    {
      "constant": true,
      "inputs": [
        {
          "name": "",
          "type": "uint256"
        }
      ],
      "name": "tokenIdToAuction",
      "outputs": [
        {
          "name": "seller",
          "type": "address"
        },
        {
          "name": "artist",
          "type": "address"
        },
        {
          "name": "price",
          "type": "uint256"
        },
        {
          "name": "startedAt",
          "type": "uint64"
        },
        {
          "name": "royaltyPercentage",
          "type": "uint8"
        }
      ],
      "payable": false,
      "stateMutability": "view",
      "type": "function"
    },
    {
      "constant": true,
      "inputs": [
        {
          "name": "",
          "type": "uint256"
        }
      ],
      "name": "tokenToArtistTokenNumber",
      "outputs": [
        {
          "name": "",
          "type": "uint256"
        }
      ],
      "payable": false,
      "stateMutability": "view",
      "type": "function"
    },
    {
      "constant": true,
      "inputs": [
        {
          "name": "_owner",
          "type": "address"
        },
        {
          "name": "_operator",
          "type": "address"
        }
      ],
      "name": "isApprovedForAll",
      "outputs": [
        {
          "name": "",
          "type": "bool"
        }
      ],
      "payable": false,
      "stateMutability": "view",
      "type": "function"
    },
    {
      "anonymous": false,
      "inputs": [
        {
          "indexed": false,
          "name": "tokenId",
          "type": "uint256"
        },
        {
          "indexed": false,
          "name": "artist",
          "type": "address"
        },
        {
          "indexed": false,
          "name": "price",
          "type": "uint256"
        }
      ],
      "name": "AuctionCreated",
      "type": "event"
    },
    {
      "anonymous": false,
      "inputs": [
        {
          "indexed": false,
          "name": "tokenId",
          "type": "uint256"
        },
        {
          "indexed": false,
          "name": "artist",
          "type": "address"
        },
        {
          "indexed": false,
          "name": "totalPrice",
          "type": "uint256"
        },
        {
          "indexed": false,
          "name": "winner",
          "type": "address"
        }
      ],
      "name": "AuctionSuccessful",
      "type": "event"
    },
    {
      "anonymous": false,
      "inputs": [
        {
          "indexed": false,
          "name": "tokenId",
          "type": "uint256"
        }
      ],
      "name": "AuctionCancelled",
      "type": "event"
    },
    {
      "anonymous": false,
      "inputs": [
        {
          "indexed": true,
          "name": "_from",
          "type": "address"
        },
        {
          "indexed": true,
          "name": "_to",
          "type": "address"
        },
        {
          "indexed": false,
          "name": "_tokenId",
          "type": "uint256"
        }
      ],
      "name": "Transfer",
      "type": "event"
    },
    {
      "anonymous": false,
      "inputs": [
        {
          "indexed": true,
          "name": "_owner",
          "type": "address"
        },
        {
          "indexed": true,
          "name": "_approved",
          "type": "address"
        },
        {
          "indexed": false,
          "name": "_tokenId",
          "type": "uint256"
        }
      ],
      "name": "Approval",
      "type": "event"
    },
    {
      "anonymous": false,
      "inputs": [
        {
          "indexed": true,
          "name": "_owner",
          "type": "address"
        },
        {
          "indexed": true,
          "name": "_operator",
          "type": "address"
        },
        {
          "indexed": false,
          "name": "_approved",
          "type": "bool"
        }
      ],
      "name": "ApprovalForAll",
      "type": "event"
    },
    {
      "constant": false,
      "inputs": [
        {
          "name": "_tokenId",
          "type": "uint256"
        },
        {
          "name": "_price",
          "type": "uint256"
        }
      ],
      "name": "createAuction",
      "outputs": [],
      "payable": false,
      "stateMutability": "nonpayable",
      "type": "function"
    },
    {
      "constant": false,
      "inputs": [
        {
          "name": "_tokenId",
          "type": "uint256"
        }
      ],
      "name": "bid",
      "outputs": [],
      "payable": true,
      "stateMutability": "payable",
      "type": "function"
    },
    {
      "constant": false,
      "inputs": [
        {
          "name": "_tokenId",
          "type": "uint256"
        }
      ],
      "name": "cancelAuction",
      "outputs": [],
      "payable": false,
      "stateMutability": "nonpayable",
      "type": "function"
    },
    {
      "constant": true,
      "inputs": [
        {
          "name": "_tokenId",
          "type": "uint256"
        }
      ],
      "name": "getOpenAuction",
      "outputs": [
        {
          "name": "",
          "type": "address"
        },
        {
          "name": "",
          "type": "address"
        },
        {
          "name": "",
          "type": "uint256"
        },
        {
          "name": "",
          "type": "uint64"
        },
        {
          "name": "",
          "type": "uint8"
        }
      ],
      "payable": false,
      "stateMutability": "view",
      "type": "function"
    }
  ],
  "bytecode": "0x608060405234801561001057600080fd5b506132ba806100206000396000f300608060405260043610610180576000357c0100000000000000000000000000000000000000000000000000000000900463ffffffff1680630121683f14610185578063081812fc146101bc578063095ea7b3146102295780630ee8d85a146102765780630f8f9ee11461031c57806318160ddd146103c257806323b872dd146103ed5780632f745c591461045a5780633239c60d146104bb57806336b84895146104fc57806341672a461461054357806342842e0e146105ff578063454a2ab31461066c5780634f558e791461068c5780634f6ccce7146106d157806350ec5ace146107125780636352211e1461087257806370a08231146108df57806376a17510146109365780637baca6cd1461097d5780637fc85917146109ea5780638aa0fdad14610a5757806396b5a75514610b06578063a22cb46514610b33578063b88d4fde14610b82578063d47ada7014610c35578063e3b1475714610c8c578063e6bea79414610d5b578063e985e9c514610d9c578063f934f7f914610e17575b600080fd5b34801561019157600080fd5b506101ba6004803603810190808035906020019092919080359060200190929190505050610ee6565b005b3480156101c857600080fd5b506101e760048036038101908080359060200190929190505050610fc9565b604051808273ffffffffffffffffffffffffffffffffffffffff1673ffffffffffffffffffffffffffffffffffffffff16815260200191505060405180910390f35b34801561023557600080fd5b50610274600480360381019080803573ffffffffffffffffffffffffffffffffffffffff16906020019092919080359060200190929190505050611006565b005b34801561028257600080fd5b506102a1600480360381019080803590602001909291905050506111cc565b6040518080602001828103825283818151815260200191508051906020019080838360005b838110156102e15780820151818401526020810190506102c6565b50505050905090810190601f16801561030e5780820380516001836020036101000a031916815260200191505b509250505060405180910390f35b34801561032857600080fd5b506103476004803603810190808035906020019092919050505061127c565b6040518080602001828103825283818151815260200191508051906020019080838360005b8381101561038757808201518184015260208101905061036c565b50505050905090810190601f1680156103b45780820380516001836020036101000a031916815260200191505b509250505060405180910390f35b3480156103ce57600080fd5b506103d761132c565b6040518082815260200191505060405180910390f35b3480156103f957600080fd5b50610458600480360381019080803573ffffffffffffffffffffffffffffffffffffffff169060200190929190803573ffffffffffffffffffffffffffffffffffffffff16906020019092919080359060200190929190505050611339565b005b34801561046657600080fd5b506104a5600480360381019080803573ffffffffffffffffffffffffffffffffffffffff16906020019092919080359060200190929190505050611450565b6040518082815260200191505060405180910390f35b3480156104c757600080fd5b506104e6600480360381019080803590602001909291905050506114c7565b6040518082815260200191505060405180910390f35b34801561050857600080fd5b50610527600480360381019080803590602001909291905050506114df565b604051808260ff1660ff16815260200191505060405180910390f35b34801561054f57600080fd5b506105fd600480360381019080803590602001908201803590602001908080601f0160208091040260200160405190810160405280939291908181526020018383808284378201915050505050509192919290803590602001908201803590602001908080601f0160208091040260200160405190810160405280939291908181526020018383808284378201915050505050509192919290803560ff1690602001909291905050506114ff565b005b34801561060b57600080fd5b5061066a600480360381019080803573ffffffffffffffffffffffffffffffffffffffff169060200190929190803573ffffffffffffffffffffffffffffffffffffffff16906020019092919080359060200190929190505050611556565b005b61068a6004803603810190808035906020019092919050505061158e565b005b34801561069857600080fd5b506106b7600480360381019080803590602001909291905050506115a5565b604051808215151515815260200191505060405180910390f35b3480156106dd57600080fd5b506106fc60048036038101908080359060200190929190505050611616565b6040518082815260200191505060405180910390f35b34801561071e57600080fd5b5061073d6004803603810190808035906020019092919050505061164e565b6040518080602001806020018773ffffffffffffffffffffffffffffffffffffffff1673ffffffffffffffffffffffffffffffffffffffff1681526020018681526020018581526020018460ff1660ff168152602001838103835289818151815260200191508051906020019080838360005b838110156107cb5780820151818401526020810190506107b0565b50505050905090810190601f1680156107f85780820380516001836020036101000a031916815260200191505b50838103825288818151815260200191508051906020019080838360005b83811015610831578082015181840152602081019050610816565b50505050905090810190601f16801561085e5780820380516001836020036101000a031916815260200191505b509850505050505050505060405180910390f35b34801561087e57600080fd5b5061089d6004803603810190808035906020019092919050505061185c565b604051808273ffffffffffffffffffffffffffffffffffffffff1673ffffffffffffffffffffffffffffffffffffffff16815260200191505060405180910390f35b3480156108eb57600080fd5b50610920600480360381019080803573ffffffffffffffffffffffffffffffffffffffff1690602001909291905050506118d9565b6040518082815260200191505060405180910390f35b34801561094257600080fd5b506109616004803603810190808035906020019092919050505061195d565b604051808260ff1660ff16815260200191505060405180910390f35b34801561098957600080fd5b506109a860048036038101908080359060200190929190505050611987565b604051808273ffffffffffffffffffffffffffffffffffffffff1673ffffffffffffffffffffffffffffffffffffffff16815260200191505060405180910390f35b3480156109f657600080fd5b50610a15600480360381019080803590602001909291905050506119c4565b604051808273ffffffffffffffffffffffffffffffffffffffff1673ffffffffffffffffffffffffffffffffffffffff16815260200191505060405180910390f35b348015610a6357600080fd5b50610b04600480360381019080803590602001908201803590602001908080601f0160208091040260200160405190810160405280939291908181526020018383808284378201915050505050509192919290803590602001908201803590602001908080601f01602080910402602001604051908101604052809392919081815260200183838082843782019150505050505091929192905050506119f7565b005b348015610b1257600080fd5b50610b3160048036038101908080359060200190929190505050611d7b565b005b348015610b3f57600080fd5b50610b80600480360381019080803573ffffffffffffffffffffffffffffffffffffffff169060200190929190803515159060200190929190505050611e17565b005b348015610b8e57600080fd5b50610c33600480360381019080803573ffffffffffffffffffffffffffffffffffffffff169060200190929190803573ffffffffffffffffffffffffffffffffffffffff16906020019092919080359060200190929190803590602001908201803590602001908080601f0160208091040260200160405190810160405280939291908181526020018383808284378201915050505050509192919290505050611f53565b005b348015610c4157600080fd5b50610c76600480360381019080803573ffffffffffffffffffffffffffffffffffffffff169060200190929190505050611f92565b6040518082815260200191505060405180910390f35b348015610c9857600080fd5b50610cb760048036038101908080359060200190929190505050611faa565b604051808673ffffffffffffffffffffffffffffffffffffffff1673ffffffffffffffffffffffffffffffffffffffff1681526020018573ffffffffffffffffffffffffffffffffffffffff1673ffffffffffffffffffffffffffffffffffffffff1681526020018481526020018367ffffffffffffffff1667ffffffffffffffff1681526020018260ff1660ff1681526020019550505050505060405180910390f35b348015610d6757600080fd5b50610d8660048036038101908080359060200190929190505050612041565b6040518082815260200191505060405180910390f35b348015610da857600080fd5b50610dfd600480360381019080803573ffffffffffffffffffffffffffffffffffffffff169060200190929190803573ffffffffffffffffffffffffffffffffffffffff169060200190929190505050612059565b604051808215151515815260200191505060405180910390f35b348015610e2357600080fd5b50610e42600480360381019080803590602001909291905050506120ed565b604051808673ffffffffffffffffffffffffffffffffffffffff1673ffffffffffffffffffffffffffffffffffffffff1681526020018573ffffffffffffffffffffffffffffffffffffffff1673ffffffffffffffffffffffffffffffffffffffff1681526020018481526020018367ffffffffffffffff1667ffffffffffffffff1681526020018260ff1660ff1681526020019550505050505060405180910390f35b600080610ef16130d4565b843373ffffffffffffffffffffffffffffffffffffffff16610f128261185c565b73ffffffffffffffffffffffffffffffffffffffff16141515610f3457600080fd5b610f3e33876121ad565b610f4786611987565b9350610f528661195d565b925060a0604051908101604052803373ffffffffffffffffffffffffffffffffffffffff1681526020018573ffffffffffffffffffffffffffffffffffffffff1681526020018681526020014267ffffffffffffffff1681526020018460ff168152509150610fc186836121bc565b505050505050565b60006001600083815260200190815260200160002060009054906101000a900473ffffffffffffffffffffffffffffffffffffffff169050919050565b60006110118261185c565b90508073ffffffffffffffffffffffffffffffffffffffff168373ffffffffffffffffffffffffffffffffffffffff161415151561104e57600080fd5b8073ffffffffffffffffffffffffffffffffffffffff163373ffffffffffffffffffffffffffffffffffffffff16148061108e575061108d8133612059565b5b151561109957600080fd5b600073ffffffffffffffffffffffffffffffffffffffff166110ba83610fc9565b73ffffffffffffffffffffffffffffffffffffffff1614158061110a5750600073ffffffffffffffffffffffffffffffffffffffff168373ffffffffffffffffffffffffffffffffffffffff1614155b156111c757826001600084815260200190815260200160002060006101000a81548173ffffffffffffffffffffffffffffffffffffffff021916908373ffffffffffffffffffffffffffffffffffffffff1602179055508273ffffffffffffffffffffffffffffffffffffffff168173ffffffffffffffffffffffffffffffffffffffff167f8c5be1e5ebec7d5bd14f71427d1e84f3dd0314c0f7b2291e5b200ac8c7c3b925846040518082815260200191505060405180910390a35b505050565b600b6020528060005260406000206000915090508054600181600116156101000203166002900480601f0160208091040260200160405190810160405280929190818152602001828054600181600116156101000203166002900480156112745780601f1061124957610100808354040283529160200191611274565b820191906000526020600020905b81548152906001019060200180831161125757829003601f168201915b505050505081565b600a6020528060005260406000206000915090508054600181600116156101000203166002900480601f0160208091040260200160405190810160405280929190818152602001828054600181600116156101000203166002900480156113245780601f106112f957610100808354040283529160200191611324565b820191906000526020600020905b81548152906001019060200180831161130757829003601f168201915b505050505081565b6000600780549050905090565b80611344338261233a565b151561134f57600080fd5b600073ffffffffffffffffffffffffffffffffffffffff168473ffffffffffffffffffffffffffffffffffffffff161415151561138b57600080fd5b600073ffffffffffffffffffffffffffffffffffffffff168373ffffffffffffffffffffffffffffffffffffffff16141515156113c757600080fd5b6113d184836123cf565b6113db8483612538565b6113e58383612750565b8273ffffffffffffffffffffffffffffffffffffffff168473ffffffffffffffffffffffffffffffffffffffff167fddf252ad1be2c89b69c2b068fc378daa952ba7f163c4a11628f55a4df523b3ef846040518082815260200191505060405180910390a350505050565b600061145b836118d9565b8210151561146857600080fd5b600560008473ffffffffffffffffffffffffffffffffffffffff1673ffffffffffffffffffffffffffffffffffffffff168152602001908152602001600020828154811015156114b457fe5b9060005260206000200154905092915050565b600e6020528060005260406000206000915090505481565b600f6020528060005260406000206000915054906101000a900460ff1681565b600060058260ff161115151561151457600080fd5b60008260ff1611151561152657600080fd5b600090505b8160ff168160ff1610156115505761154384846119f7565b808060010191505061152b565b50505050565b80611561338261233a565b151561156c57600080fd5b6115888484846020604051908101604052806000815250611f53565b50505050565b6115988134612827565b6115a23382612a3f565b50565b60008060008084815260200190815260200160002060009054906101000a900473ffffffffffffffffffffffffffffffffffffffff169050600073ffffffffffffffffffffffffffffffffffffffff168173ffffffffffffffffffffffffffffffffffffffff161415915050919050565b600061162061132c565b8210151561162d57600080fd5b60078281548110151561163c57fe5b90600052602060002001549050919050565b60608060008060008061165f61132c565b8710151561166c57600080fd5b600a6000888152602001908152602001600020600b6000898152602001908152602001600020600c60008a815260200190815260200160002060009054906101000a900473ffffffffffffffffffffffffffffffffffffffff16600d60008b815260200190815260200160002054600e60008c815260200190815260200160002054600f60008d815260200190815260200160002060009054906101000a900460ff16858054600181600116156101000203166002900480601f0160208091040260200160405190810160405280929190818152602001828054600181600116156101000203166002900480156117a45780601f10611779576101008083540402835291602001916117a4565b820191906000526020600020905b81548152906001019060200180831161178757829003601f168201915b50505050509550848054600181600116156101000203166002900480601f0160208091040260200160405190810160405280929190818152602001828054600181600116156101000203166002900480156118405780601f1061181557610100808354040283529160200191611840565b820191906000526020600020905b81548152906001019060200180831161182357829003601f168201915b5050505050945095509550955095509550955091939550919395565b60008060008084815260200190815260200160002060009054906101000a900473ffffffffffffffffffffffffffffffffffffffff169050600073ffffffffffffffffffffffffffffffffffffffff168173ffffffffffffffffffffffffffffffffffffffff16141515156118d057600080fd5b80915050919050565b60008073ffffffffffffffffffffffffffffffffffffffff168273ffffffffffffffffffffffffffffffffffffffff161415151561191657600080fd5b600260008373ffffffffffffffffffffffffffffffffffffffff1673ffffffffffffffffffffffffffffffffffffffff168152602001908152602001600020549050919050565b6000600f600083815260200190815260200160002060009054906101000a900460ff169050919050565b6000600c600083815260200190815260200160002060009054906101000a900473ffffffffffffffffffffffffffffffffffffffff169050919050565b600c6020528060005260406000206000915054906101000a900473ffffffffffffffffffffffffffffffffffffffff1681565b600080600080611a0c33600480549050612a4e565b429350600960003373ffffffffffffffffffffffffffffffffffffffff1673ffffffffffffffffffffffffffffffffffffffff1681526020019081526020016000205492506007805490506008600083815260200190815260200160002081905550600781908060018154018082558091505090600182039060005260206000200160009091929091909150555060059150611bdd6001600460c0604051908101604052808a81526020018981526020013373ffffffffffffffffffffffffffffffffffffffff1681526020018781526020018881526020018660ff16815250908060018154018082558091505090600182039060005260206000209060060201600090919290919091506000820151816000019080519060200190611b3392919061313d565b506020820151816001019080519060200190611b5092919061313d565b5060408201518160020160006101000a81548173ffffffffffffffffffffffffffffffffffffffff021916908373ffffffffffffffffffffffffffffffffffffffff160217905550606082015181600301556080820151816004015560a08201518160050160006101000a81548160ff021916908360ff1602179055505050612afe90919063ffffffff16565b9050611c326001600960003373ffffffffffffffffffffffffffffffffffffffff1673ffffffffffffffffffffffffffffffffffffffff16815260200190815260200160002054612b1790919063ffffffff16565b600960003373ffffffffffffffffffffffffffffffffffffffff1673ffffffffffffffffffffffffffffffffffffffff1681526020019081526020016000208190555085600a60008381526020019081526020016000209080519060200190611c9c9291906131bd565b5084600b60008381526020019081526020016000209080519060200190611cc49291906131bd565b5033600c600083815260200190815260200160002060006101000a81548173ffffffffffffffffffffffffffffffffffffffff021916908373ffffffffffffffffffffffffffffffffffffffff16021790555082600d60008381526020019081526020016000208190555083600e60008381526020019081526020016000208190555081600f600083815260200190815260200160002060006101000a81548160ff021916908360ff160217905550505050505050565b600080601060008481526020019081526020016000209150611d9c82612b33565b1515611da757600080fd5b8160000160009054906101000a900473ffffffffffffffffffffffffffffffffffffffff1690508073ffffffffffffffffffffffffffffffffffffffff163373ffffffffffffffffffffffffffffffffffffffff16141515611e0857600080fd5b611e128382612b61565b505050565b3373ffffffffffffffffffffffffffffffffffffffff168273ffffffffffffffffffffffffffffffffffffffff1614151515611e5257600080fd5b80600360003373ffffffffffffffffffffffffffffffffffffffff1673ffffffffffffffffffffffffffffffffffffffff16815260200190815260200160002060008473ffffffffffffffffffffffffffffffffffffffff1673ffffffffffffffffffffffffffffffffffffffff16815260200190815260200160002060006101000a81548160ff0219169083151502179055508173ffffffffffffffffffffffffffffffffffffffff163373ffffffffffffffffffffffffffffffffffffffff167f17307eab39ab6107e8899845ad3d59bd9653f200f220920489ca2b5937696c3183604051808215151515815260200191505060405180910390a35050565b81611f5e338261233a565b1515611f6957600080fd5b611f74858585611339565b611f8085858585612baf565b1515611f8b57600080fd5b5050505050565b60096020528060005260406000206000915090505481565b60106020528060005260406000206000915090508060000160009054906101000a900473ffffffffffffffffffffffffffffffffffffffff16908060010160009054906101000a900473ffffffffffffffffffffffffffffffffffffffff16908060020154908060030160009054906101000a900467ffffffffffffffff16908060030160089054906101000a900460ff16905085565b600d6020528060005260406000206000915090505481565b6000600360008473ffffffffffffffffffffffffffffffffffffffff1673ffffffffffffffffffffffffffffffffffffffff16815260200190815260200160002060008373ffffffffffffffffffffffffffffffffffffffff1673ffffffffffffffffffffffffffffffffffffffff16815260200190815260200160002060009054906101000a900460ff16905092915050565b60008060008060008060106000888152602001908152602001600020905061211481612b33565b151561211f57600080fd5b8060000160009054906101000a900473ffffffffffffffffffffffffffffffffffffffff168160010160009054906101000a900473ffffffffffffffffffffffffffffffffffffffff1682600201548360030160009054906101000a900467ffffffffffffffff168460030160089054906101000a900460ff16955095509550955095505091939590929450565b6121b8823083611339565b5050565b806010600084815260200190815260200160002060008201518160000160006101000a81548173ffffffffffffffffffffffffffffffffffffffff021916908373ffffffffffffffffffffffffffffffffffffffff16021790555060208201518160010160006101000a81548173ffffffffffffffffffffffffffffffffffffffff021916908373ffffffffffffffffffffffffffffffffffffffff1602179055506040820151816002015560608201518160030160006101000a81548167ffffffffffffffff021916908367ffffffffffffffff16021790555060808201518160030160086101000a81548160ff021916908360ff1602179055509050507f6ff530872708bbb51bad8ea341564e4ea039807ad1331f61ab4c906a66875daf8282602001518360400151604051808481526020018373ffffffffffffffffffffffffffffffffffffffff1673ffffffffffffffffffffffffffffffffffffffff168152602001828152602001935050505060405180910390a15050565b6000806123468361185c565b90508073ffffffffffffffffffffffffffffffffffffffff168473ffffffffffffffffffffffffffffffffffffffff1614806123b557508373ffffffffffffffffffffffffffffffffffffffff1661239d84610fc9565b73ffffffffffffffffffffffffffffffffffffffff16145b806123c657506123c58185612059565b5b91505092915050565b8173ffffffffffffffffffffffffffffffffffffffff166123ef8261185c565b73ffffffffffffffffffffffffffffffffffffffff1614151561241157600080fd5b600073ffffffffffffffffffffffffffffffffffffffff166001600083815260200190815260200160002060009054906101000a900473ffffffffffffffffffffffffffffffffffffffff1673ffffffffffffffffffffffffffffffffffffffff161415156125345760006001600083815260200190815260200160002060006101000a81548173ffffffffffffffffffffffffffffffffffffffff021916908373ffffffffffffffffffffffffffffffffffffffff160217905550600073ffffffffffffffffffffffffffffffffffffffff168273ffffffffffffffffffffffffffffffffffffffff167f8c5be1e5ebec7d5bd14f71427d1e84f3dd0314c0f7b2291e5b200ac8c7c3b925836040518082815260200191505060405180910390a35b5050565b60008060006125478585612d9d565b600660008581526020019081526020016000205492506125b36001600560008873ffffffffffffffffffffffffffffffffffffffff1673ffffffffffffffffffffffffffffffffffffffff16815260200190815260200160002080549050612afe90919063ffffffff16565b9150600560008673ffffffffffffffffffffffffffffffffffffffff1673ffffffffffffffffffffffffffffffffffffffff1681526020019081526020016000208281548110151561260157fe5b9060005260206000200154905080600560008773ffffffffffffffffffffffffffffffffffffffff1673ffffffffffffffffffffffffffffffffffffffff1681526020019081526020016000208481548110151561265b57fe5b90600052602060002001819055506000600560008773ffffffffffffffffffffffffffffffffffffffff1673ffffffffffffffffffffffffffffffffffffffff168152602001908152602001600020838154811015156126b757fe5b9060005260206000200181905550600560008673ffffffffffffffffffffffffffffffffffffffff1673ffffffffffffffffffffffffffffffffffffffff168152602001908152602001600020805480919060019003612717919061323d565b50600060066000868152602001908152602001600020819055508260066000838152602001908152602001600020819055505050505050565b600061275c8383612ecb565b600560008473ffffffffffffffffffffffffffffffffffffffff1673ffffffffffffffffffffffffffffffffffffffff168152602001908152602001600020805490509050600560008473ffffffffffffffffffffffffffffffffffffffff1673ffffffffffffffffffffffffffffffffffffffff168152602001908152602001600020829080600181540180825580915050906001820390600052602060002001600090919290919091505550806006600084815260200190815260200160002081905550505050565b6000806000806000806000601060008a8152602001908152602001600020965061285087612b33565b151561285b57600080fd5b8660020154955085881015151561287157600080fd5b8660000160009054906101000a900473ffffffffffffffffffffffffffffffffffffffff1694508660010160009054906101000a900473ffffffffffffffffffffffffffffffffffffffff1693508660030160089054906101000a900460ff1660ff1692506128df89613023565b600086111561298d5760648387028115156128f657fe5b04915081860390508473ffffffffffffffffffffffffffffffffffffffff166108fc829081150290604051600060405180830381858888f19350505050158015612944573d6000803e3d6000fd5b508373ffffffffffffffffffffffffffffffffffffffff166108fc839081150290604051600060405180830381858888f1935050505015801561298b573d6000803e3d6000fd5b505b7fafdeeac496c85b58d5787e2bdf4629388231070f6b20208fc37abbf14e7504c189858a33604051808581526020018473ffffffffffffffffffffffffffffffffffffffff1673ffffffffffffffffffffffffffffffffffffffff1681526020018381526020018273ffffffffffffffffffffffffffffffffffffffff1673ffffffffffffffffffffffffffffffffffffffff16815260200194505050505060405180910390a1505050505050505050565b612a4a308383611339565b5050565b600073ffffffffffffffffffffffffffffffffffffffff168273ffffffffffffffffffffffffffffffffffffffff1614151515612a8a57600080fd5b612a948282612750565b8173ffffffffffffffffffffffffffffffffffffffff16600073ffffffffffffffffffffffffffffffffffffffff167fddf252ad1be2c89b69c2b068fc378daa952ba7f163c4a11628f55a4df523b3ef836040518082815260200191505060405180910390a35050565b6000828211151515612b0c57fe5b818303905092915050565b60008183019050828110151515612b2a57fe5b80905092915050565b6000808260030160009054906101000a900467ffffffffffffffff1667ffffffffffffffff16119050919050565b612b6a82613023565b612b748183612a3f565b7f2809c7e17bf978fbc7194c0a694b638c4215e9140cacc6c38ca36010b45697df826040518082815260200191505060405180910390a15050565b600080612bd18573ffffffffffffffffffffffffffffffffffffffff166130c1565b1515612be05760019150612d94565b8473ffffffffffffffffffffffffffffffffffffffff1663f0b9e5ba8786866040518463ffffffff167c0100000000000000000000000000000000000000000000000000000000028152600401808473ffffffffffffffffffffffffffffffffffffffff1673ffffffffffffffffffffffffffffffffffffffff16815260200183815260200180602001828103825283818151815260200191508051906020019080838360005b83811015612ca2578082015181840152602081019050612c87565b50505050905090810190601f168015612ccf5780820380516001836020036101000a031916815260200191505b50945050505050602060405180830381600087803b158015612cf057600080fd5b505af1158015612d04573d6000803e3d6000fd5b505050506040513d6020811015612d1a57600080fd5b8101908080519060200190929190505050905063f0b9e5ba7c0100000000000000000000000000000000000000000000000000000000027bffffffffffffffffffffffffffffffffffffffffffffffffffffffff1916817bffffffffffffffffffffffffffffffffffffffffffffffffffffffff19161491505b50949350505050565b8173ffffffffffffffffffffffffffffffffffffffff16612dbd8261185c565b73ffffffffffffffffffffffffffffffffffffffff16141515612ddf57600080fd5b612e326001600260008573ffffffffffffffffffffffffffffffffffffffff1673ffffffffffffffffffffffffffffffffffffffff16815260200190815260200160002054612afe90919063ffffffff16565b600260008473ffffffffffffffffffffffffffffffffffffffff1673ffffffffffffffffffffffffffffffffffffffff16815260200190815260200160002081905550600080600083815260200190815260200160002060006101000a81548173ffffffffffffffffffffffffffffffffffffffff021916908373ffffffffffffffffffffffffffffffffffffffff1602179055505050565b600073ffffffffffffffffffffffffffffffffffffffff1660008083815260200190815260200160002060009054906101000a900473ffffffffffffffffffffffffffffffffffffffff1673ffffffffffffffffffffffffffffffffffffffff16141515612f3857600080fd5b8160008083815260200190815260200160002060006101000a81548173ffffffffffffffffffffffffffffffffffffffff021916908373ffffffffffffffffffffffffffffffffffffffff160217905550612fdc6001600260008573ffffffffffffffffffffffffffffffffffffffff1673ffffffffffffffffffffffffffffffffffffffff16815260200190815260200160002054612b1790919063ffffffff16565b600260008473ffffffffffffffffffffffffffffffffffffffff1673ffffffffffffffffffffffffffffffffffffffff168152602001908152602001600020819055505050565b60106000828152602001908152602001600020600080820160006101000a81549073ffffffffffffffffffffffffffffffffffffffff02191690556001820160006101000a81549073ffffffffffffffffffffffffffffffffffffffff021916905560028201600090556003820160006101000a81549067ffffffffffffffff02191690556003820160086101000a81549060ff0219169055505050565b600080823b905060008111915050919050565b60a060405190810160405280600073ffffffffffffffffffffffffffffffffffffffff168152602001600073ffffffffffffffffffffffffffffffffffffffff16815260200160008152602001600067ffffffffffffffff168152602001600060ff1681525090565b828054600181600116156101000203166002900490600052602060002090601f016020900481019282601f1061317e57805160ff19168380011785556131ac565b828001600101855582156131ac579182015b828111156131ab578251825591602001919060010190613190565b5b5090506131b99190613269565b5090565b828054600181600116156101000203166002900490600052602060002090601f016020900481019282601f106131fe57805160ff191683800117855561322c565b8280016001018555821561322c579182015b8281111561322b578251825591602001919060010190613210565b5b5090506132399190613269565b5090565b815481835581811115613264578183600052602060002091820191016132639190613269565b5b505050565b61328b91905b8082111561328757600081600090555060010161326f565b5090565b905600a165627a7a723058200f2c7894461302d5eeb6f51888c6b4af5618aec0646e692decb5a0f784d7660a0029",
  "source": "pragma solidity ^0.4.23;\n\nimport \"./ArtistToken.sol\";\n\ncontract TokenAuction is ArtistToken {\n  \n  struct Auction {\n    address seller;\n    address artist;\n    uint256 price;\n    uint64 startedAt;\n    uint8 royaltyPercentage;\n  }\n\n  // Open Auctions\n  mapping (uint256 => Auction) public tokenIdToAuction;\n\n  event AuctionCreated(uint256 tokenId, address artist, uint256 price);\n  event AuctionSuccessful(uint256 tokenId, address artist, uint256 totalPrice, address winner);\n  event AuctionCancelled(uint256 tokenId);\n\n  // escrow the NFT assigns ownership to contract\n  function _escrow(address _owner, uint256 _tokenId) internal {\n    //approve(this, _tokenId);\n    transferFrom(_owner, this, _tokenId);\n  }\n\n  // transfer NFT owned by contract to another address\n  function _transfer(address _receiver, uint256 _tokenId) internal {\n    //approve(_receiver, _tokenId);  \n    transferFrom(this, _receiver, _tokenId);\n  }\n\n  // add auction\n  function _addAuction(uint256 _tokenId, Auction _auction) internal {\n    tokenIdToAuction[_tokenId] = _auction;\n    emit AuctionCreated(\n      uint256(_tokenId),\n      address(_auction.artist),\n      uint256(_auction.price)\n    );\n  }\n\n  function _removeAuction(uint256 _tokenId) internal {\n    delete tokenIdToAuction[_tokenId];\n  }\n\n  function _cancelAuction(uint256 _tokenId, address _seller) internal {\n    _removeAuction(_tokenId);\n    _transfer(_seller, _tokenId);\n    emit AuctionCancelled(_tokenId);\n  } \n\n  function _isOnAuction(Auction storage _auction) internal view returns (bool) {\n    return (_auction.startedAt > 0);\n  }\n\n  function _bid(uint256 _tokenId, uint256 _bidAmount) internal {\n    Auction storage auction = tokenIdToAuction[_tokenId];\n    require(_isOnAuction(auction));\n    uint256 price = auction.price;\n    require(_bidAmount >= price);\n    // save values\n    address seller = auction.seller;\n    address artist = auction.artist; \n    uint256 royaltyPercentage = uint256(auction.royaltyPercentage);\n    _removeAuction(_tokenId);\n\n    if (price > 0) {\n      uint256 artistCut = price * royaltyPercentage/100; \n      uint256 sellerProceeds = price - artistCut;\n      seller.transfer(sellerProceeds);\n      artist.transfer(artistCut);\n    }\n    \n    emit AuctionSuccessful(_tokenId, artist, _bidAmount, msg.sender);\n    \n  }\n\n\n  function createAuction(\n    uint256 _tokenId,\n    uint256 _price\n  ) public onlyOwnerOf(_tokenId) {\n\n\n    _escrow(msg.sender, _tokenId);\n    address _artist = getArtistAddress(_tokenId);\n    uint8 _royaltyPercentage = getRoyaltyPercentage(_tokenId);\n\n    Auction memory auction = Auction(\n      msg.sender,\n      _artist,\n      _price,\n      uint64(now),\n      _royaltyPercentage\n    );\n    \n    _addAuction(_tokenId, auction);\n  }\n\n  function bid(uint256 _tokenId) external payable {\n    _bid(_tokenId, msg.value);\n    _transfer(msg.sender, _tokenId);\n  }\n\n  function cancelAuction(uint256 _tokenId) public {\n    Auction storage auction = tokenIdToAuction[_tokenId];\n    require(_isOnAuction(auction));\n    address seller = auction.seller;\n    require(msg.sender == seller);\n    _cancelAuction(_tokenId, seller);\n  }\n\n  function getOpenAuction(uint256 _tokenId)\n    external\n    view\n    returns\n  (\n    address,\n    address,\n    uint256,\n    uint64,\n    uint8\n  ) {\n    Auction storage auction = tokenIdToAuction[_tokenId];\n    require(_isOnAuction(auction));\n    return (\n        auction.seller,\n        auction.artist,\n        auction.price,\n        auction.startedAt,\n        auction.royaltyPercentage\n    );\n  }\n}\n",
  "sourcePath": "/home/ada/WebApp/smackathon/contracts/TokenAuction.sol",
  "compiler": {
    "name": "solc",
    "version": "0.4.23+commit.124ca40d.Emscripten.clang"
  },
  "schemaVersion": "2.0.0",
  "updatedAt": "2018-05-26T16:40:39.129Z"
}