{
  "contractName": "TokenAuction",
  "abi": [
    {
      "constant": true,
      "inputs": [
        {
          "name": "_tokenId",
          "type": "uint256"
        }
      ],
      "name": "getApproved",
      "outputs": [
        {
          "name": "",
          "type": "address"
        }
      ],
      "payable": false,
      "stateMutability": "view",
      "type": "function"
    },
    {
      "constant": false,
      "inputs": [
        {
          "name": "_to",
          "type": "address"
        },
        {
          "name": "_tokenId",
          "type": "uint256"
        }
      ],
      "name": "approve",
      "outputs": [],
      "payable": false,
      "stateMutability": "nonpayable",
      "type": "function"
    },
    {
      "constant": true,
      "inputs": [
        {
          "name": "",
          "type": "uint256"
        }
      ],
      "name": "tokenToDescription",
      "outputs": [
        {
          "name": "",
          "type": "string"
        }
      ],
      "payable": false,
      "stateMutability": "view",
      "type": "function"
    },
    {
      "constant": true,
      "inputs": [
        {
          "name": "",
          "type": "uint256"
        }
      ],
      "name": "tokenToName",
      "outputs": [
        {
          "name": "",
          "type": "string"
        }
      ],
      "payable": false,
      "stateMutability": "view",
      "type": "function"
    },
    {
      "constant": true,
      "inputs": [],
      "name": "totalSupply",
      "outputs": [
        {
          "name": "",
          "type": "uint256"
        }
      ],
      "payable": false,
      "stateMutability": "view",
      "type": "function"
    },
    {
      "constant": false,
      "inputs": [
        {
          "name": "_from",
          "type": "address"
        },
        {
          "name": "_to",
          "type": "address"
        },
        {
          "name": "_tokenId",
          "type": "uint256"
        }
      ],
      "name": "transferFrom",
      "outputs": [],
      "payable": false,
      "stateMutability": "nonpayable",
      "type": "function"
    },
    {
      "constant": true,
      "inputs": [
        {
          "name": "_owner",
          "type": "address"
        },
        {
          "name": "_index",
          "type": "uint256"
        }
      ],
      "name": "tokenOfOwnerByIndex",
      "outputs": [
        {
          "name": "",
          "type": "uint256"
        }
      ],
      "payable": false,
      "stateMutability": "view",
      "type": "function"
    },
    {
      "constant": true,
      "inputs": [
        {
          "name": "",
          "type": "uint256"
        }
      ],
      "name": "tokenToTimeCreated",
      "outputs": [
        {
          "name": "",
          "type": "uint256"
        }
      ],
      "payable": false,
      "stateMutability": "view",
      "type": "function"
    },
    {
      "constant": true,
      "inputs": [
        {
          "name": "",
          "type": "uint256"
        }
      ],
      "name": "tokenToRoyaltyPercentage",
      "outputs": [
        {
          "name": "",
          "type": "uint8"
        }
      ],
      "payable": false,
      "stateMutability": "view",
      "type": "function"
    },
    {
      "constant": false,
      "inputs": [
        {
          "name": "_name",
          "type": "string"
        },
        {
          "name": "_description",
          "type": "string"
        },
        {
          "name": "_numToken",
          "type": "uint8"
        }
      ],
      "name": "batchMint",
      "outputs": [],
      "payable": false,
      "stateMutability": "nonpayable",
      "type": "function"
    },
    {
      "constant": false,
      "inputs": [
        {
          "name": "_from",
          "type": "address"
        },
        {
          "name": "_to",
          "type": "address"
        },
        {
          "name": "_tokenId",
          "type": "uint256"
        }
      ],
      "name": "safeTransferFrom",
      "outputs": [],
      "payable": false,
      "stateMutability": "nonpayable",
      "type": "function"
    },
    {
      "constant": true,
      "inputs": [
        {
          "name": "_tokenId",
          "type": "uint256"
        }
      ],
      "name": "exists",
      "outputs": [
        {
          "name": "",
          "type": "bool"
        }
      ],
      "payable": false,
      "stateMutability": "view",
      "type": "function"
    },
    {
      "constant": true,
      "inputs": [
        {
          "name": "_index",
          "type": "uint256"
        }
      ],
      "name": "tokenByIndex",
      "outputs": [
        {
          "name": "",
          "type": "uint256"
        }
      ],
      "payable": false,
      "stateMutability": "view",
      "type": "function"
    },
    {
      "constant": true,
      "inputs": [
        {
          "name": "_index",
          "type": "uint256"
        }
      ],
      "name": "tokenDataByIndex",
      "outputs": [
        {
          "name": "",
          "type": "string"
        },
        {
          "name": "",
          "type": "string"
        },
        {
          "name": "",
          "type": "address"
        },
        {
          "name": "",
          "type": "uint256"
        },
        {
          "name": "",
          "type": "uint256"
        },
        {
          "name": "",
          "type": "uint8"
        }
      ],
      "payable": false,
      "stateMutability": "view",
      "type": "function"
    },
    {
      "constant": true,
      "inputs": [
        {
          "name": "",
          "type": "uint256"
        }
      ],
      "name": "completedAuctions",
      "outputs": [
        {
          "name": "seller",
          "type": "address"
        },
        {
          "name": "artist",
          "type": "address"
        },
        {
          "name": "topBidder",
          "type": "address"
        },
        {
          "name": "startPrice",
          "type": "uint256"
        },
        {
          "name": "endPrice",
          "type": "uint256"
        },
        {
          "name": "auctionStart",
          "type": "uint64"
        },
        {
          "name": "auctionClose",
          "type": "uint64"
        },
        {
          "name": "royaltyPercentage",
          "type": "uint8"
        }
      ],
      "payable": false,
      "stateMutability": "view",
      "type": "function"
    },
    {
      "constant": true,
      "inputs": [
        {
          "name": "_tokenId",
          "type": "uint256"
        }
      ],
      "name": "ownerOf",
      "outputs": [
        {
          "name": "",
          "type": "address"
        }
      ],
      "payable": false,
      "stateMutability": "view",
      "type": "function"
    },
    {
      "constant": true,
      "inputs": [
        {
          "name": "_owner",
          "type": "address"
        }
      ],
      "name": "balanceOf",
      "outputs": [
        {
          "name": "",
          "type": "uint256"
        }
      ],
      "payable": false,
      "stateMutability": "view",
      "type": "function"
    },
    {
      "constant": true,
      "inputs": [
        {
          "name": "_tokenId",
          "type": "uint256"
        }
      ],
      "name": "getRoyaltyPercentage",
      "outputs": [
        {
          "name": "",
          "type": "uint8"
        }
      ],
      "payable": false,
      "stateMutability": "view",
      "type": "function"
    },
    {
      "constant": true,
      "inputs": [
        {
          "name": "_tokenId",
          "type": "uint256"
        }
      ],
      "name": "getArtistAddress",
      "outputs": [
        {
          "name": "",
          "type": "address"
        }
      ],
      "payable": false,
      "stateMutability": "view",
      "type": "function"
    },
    {
      "constant": true,
      "inputs": [
        {
          "name": "",
          "type": "uint256"
        }
      ],
      "name": "tokenToArtistAddress",
      "outputs": [
        {
          "name": "",
          "type": "address"
        }
      ],
      "payable": false,
      "stateMutability": "view",
      "type": "function"
    },
    {
      "constant": false,
      "inputs": [
        {
          "name": "_name",
          "type": "string"
        },
        {
          "name": "_description",
          "type": "string"
        }
      ],
      "name": "mint",
      "outputs": [],
      "payable": false,
      "stateMutability": "nonpayable",
      "type": "function"
    },
    {
      "constant": false,
      "inputs": [
        {
          "name": "_to",
          "type": "address"
        },
        {
          "name": "_approved",
          "type": "bool"
        }
      ],
      "name": "setApprovalForAll",
      "outputs": [],
      "payable": false,
      "stateMutability": "nonpayable",
      "type": "function"
    },
    {
      "constant": false,
      "inputs": [
        {
          "name": "_from",
          "type": "address"
        },
        {
          "name": "_to",
          "type": "address"
        },
        {
          "name": "_tokenId",
          "type": "uint256"
        },
        {
          "name": "_data",
          "type": "bytes"
        }
      ],
      "name": "safeTransferFrom",
      "outputs": [],
      "payable": false,
      "stateMutability": "nonpayable",
      "type": "function"
    },
    {
      "constant": true,
      "inputs": [
        {
          "name": "",
          "type": "address"
        }
      ],
      "name": "addrToArtistTokenNumber",
      "outputs": [
        {
          "name": "",
          "type": "uint256"
        }
      ],
      "payable": false,
      "stateMutability": "view",
      "type": "function"
    },
    {
      "constant": true,
      "inputs": [
        {
          "name": "",
          "type": "uint256"
        }
      ],
      "name": "tokenIdToAuction",
      "outputs": [
        {
          "name": "seller",
          "type": "address"
        },
        {
          "name": "artist",
          "type": "address"
        },
        {
          "name": "topBidder",
          "type": "address"
        },
        {
          "name": "startPrice",
          "type": "uint256"
        },
        {
          "name": "endPrice",
          "type": "uint256"
        },
        {
          "name": "auctionStart",
          "type": "uint64"
        },
        {
          "name": "auctionClose",
          "type": "uint64"
        },
        {
          "name": "royaltyPercentage",
          "type": "uint8"
        }
      ],
      "payable": false,
      "stateMutability": "view",
      "type": "function"
    },
    {
      "constant": true,
      "inputs": [
        {
          "name": "",
          "type": "uint256"
        }
      ],
      "name": "tokenToArtistTokenNumber",
      "outputs": [
        {
          "name": "",
          "type": "uint256"
        }
      ],
      "payable": false,
      "stateMutability": "view",
      "type": "function"
    },
    {
      "constant": true,
      "inputs": [
        {
          "name": "_owner",
          "type": "address"
        },
        {
          "name": "_operator",
          "type": "address"
        }
      ],
      "name": "isApprovedForAll",
      "outputs": [
        {
          "name": "",
          "type": "bool"
        }
      ],
      "payable": false,
      "stateMutability": "view",
      "type": "function"
    },
    {
      "anonymous": false,
      "inputs": [
        {
          "indexed": false,
          "name": "tokenId",
          "type": "uint256"
        },
        {
          "indexed": false,
          "name": "artist",
          "type": "address"
        },
        {
          "indexed": false,
          "name": "startPrice",
          "type": "uint256"
        },
        {
          "indexed": false,
          "name": "auctionStart",
          "type": "uint64"
        },
        {
          "indexed": false,
          "name": "auctionClose",
          "type": "uint64"
        }
      ],
      "name": "AuctionCreated",
      "type": "event"
    },
    {
      "anonymous": false,
      "inputs": [
        {
          "indexed": false,
          "name": "tokenId",
          "type": "uint256"
        },
        {
          "indexed": false,
          "name": "artist",
          "type": "address"
        },
        {
          "indexed": false,
          "name": "bidder",
          "type": "address"
        },
        {
          "indexed": false,
          "name": "startPrice",
          "type": "uint256"
        },
        {
          "indexed": false,
          "name": "endPrice",
          "type": "uint256"
        }
      ],
      "name": "AuctionBidIncreased",
      "type": "event"
    },
    {
      "anonymous": false,
      "inputs": [
        {
          "indexed": false,
          "name": "tokenId",
          "type": "uint256"
        },
        {
          "indexed": false,
          "name": "artist",
          "type": "address"
        },
        {
          "indexed": false,
          "name": "endPrice",
          "type": "uint256"
        },
        {
          "indexed": false,
          "name": "winner",
          "type": "address"
        }
      ],
      "name": "AuctionSuccessful",
      "type": "event"
    },
    {
      "anonymous": false,
      "inputs": [
        {
          "indexed": false,
          "name": "tokenId",
          "type": "uint256"
        }
      ],
      "name": "AuctionCancelled",
      "type": "event"
    },
    {
      "anonymous": false,
      "inputs": [
        {
          "indexed": true,
          "name": "_from",
          "type": "address"
        },
        {
          "indexed": true,
          "name": "_to",
          "type": "address"
        },
        {
          "indexed": false,
          "name": "_tokenId",
          "type": "uint256"
        }
      ],
      "name": "Transfer",
      "type": "event"
    },
    {
      "anonymous": false,
      "inputs": [
        {
          "indexed": true,
          "name": "_owner",
          "type": "address"
        },
        {
          "indexed": true,
          "name": "_approved",
          "type": "address"
        },
        {
          "indexed": false,
          "name": "_tokenId",
          "type": "uint256"
        }
      ],
      "name": "Approval",
      "type": "event"
    },
    {
      "anonymous": false,
      "inputs": [
        {
          "indexed": true,
          "name": "_owner",
          "type": "address"
        },
        {
          "indexed": true,
          "name": "_operator",
          "type": "address"
        },
        {
          "indexed": false,
          "name": "_approved",
          "type": "bool"
        }
      ],
      "name": "ApprovalForAll",
      "type": "event"
    },
    {
      "constant": false,
      "inputs": [
        {
          "name": "_tokenId",
          "type": "uint256"
        },
        {
          "name": "_startPrice",
          "type": "uint256"
        },
        {
          "name": "_duration",
          "type": "uint64"
        }
      ],
      "name": "createAuction",
      "outputs": [],
      "payable": false,
      "stateMutability": "nonpayable",
      "type": "function"
    },
    {
      "constant": false,
      "inputs": [
        {
          "name": "_tokenId",
          "type": "uint256"
        }
      ],
      "name": "cancelAuction",
      "outputs": [],
      "payable": false,
      "stateMutability": "nonpayable",
      "type": "function"
    },
    {
      "constant": false,
      "inputs": [
        {
          "name": "_tokenId",
          "type": "uint256"
        }
      ],
      "name": "bid",
      "outputs": [],
      "payable": true,
      "stateMutability": "payable",
      "type": "function"
    },
    {
      "constant": false,
      "inputs": [
        {
          "name": "_tokenId",
          "type": "uint256"
        }
      ],
      "name": "auctionClose",
      "outputs": [],
      "payable": false,
      "stateMutability": "nonpayable",
      "type": "function"
    },
    {
      "constant": false,
      "inputs": [],
      "name": "withdraw",
      "outputs": [],
      "payable": false,
      "stateMutability": "nonpayable",
      "type": "function"
    },
    {
      "constant": true,
      "inputs": [
        {
          "name": "_tokenId",
          "type": "uint256"
        }
      ],
      "name": "getOpenAuction",
      "outputs": [
        {
          "name": "",
          "type": "address"
        },
        {
          "name": "",
          "type": "address"
        },
        {
          "name": "",
          "type": "address"
        },
        {
          "name": "",
          "type": "uint256"
        },
        {
          "name": "",
          "type": "uint256"
        },
        {
          "name": "",
          "type": "uint64"
        },
        {
          "name": "",
          "type": "uint64"
        },
        {
          "name": "",
          "type": "uint8"
        }
      ],
      "payable": false,
      "stateMutability": "view",
      "type": "function"
    },
    {
      "constant": true,
      "inputs": [
        {
          "name": "index",
          "type": "uint256"
        }
      ],
      "name": "getCompletedAuction",
      "outputs": [
        {
          "name": "",
          "type": "address"
        },
        {
          "name": "",
          "type": "address"
        },
        {
          "name": "",
          "type": "address"
        },
        {
          "name": "",
          "type": "uint256"
        },
        {
          "name": "",
          "type": "uint256"
        },
        {
          "name": "",
          "type": "uint64"
        },
        {
          "name": "",
          "type": "uint64"
        },
        {
          "name": "",
          "type": "uint8"
        }
      ],
      "payable": false,
      "stateMutability": "view",
      "type": "function"
    }
  ],
  "bytecode": "0x608060405234801561001057600080fd5b506146d1806100206000396000f3006080604052600436106101ac576000357c0100000000000000000000000000000000000000000000000000000000900463ffffffff168063081812fc146101b1578063095ea7b31461021e5780630ee8d85a1461026b5780630f8f9ee11461031157806318160ddd146103b757806323b872dd146103e25780632e39000f1461044f5780632f745c591461049a5780633239c60d146104fb57806336b848951461053c5780633ccfd60b1461058357806341672a461461059a57806342842e0e14610656578063454a2ab3146106c35780634f558e79146106e35780634f6ccce71461072857806350ec5ace14610769578063568e32f3146108c9578063577555d6146109ed5780636352211e14610a1a57806370a0823114610a8757806376a1751014610ade57806376c192bf14610b255780637baca6cd14610c495780637fc8591714610cb65780638aa0fdad14610d2357806396b5a75514610dd2578063a22cb46514610dff578063b88d4fde14610e4e578063d47ada7014610f01578063e3b1475714610f58578063e6bea7941461107c578063e985e9c5146110bd578063f934f7f914611138575b600080fd5b3480156101bd57600080fd5b506101dc6004803603810190808035906020019092919050505061125c565b604051808273ffffffffffffffffffffffffffffffffffffffff1673ffffffffffffffffffffffffffffffffffffffff16815260200191505060405180910390f35b34801561022a57600080fd5b50610269600480360381019080803573ffffffffffffffffffffffffffffffffffffffff16906020019092919080359060200190929190505050611299565b005b34801561027757600080fd5b506102966004803603810190808035906020019092919050505061145f565b6040518080602001828103825283818151815260200191508051906020019080838360005b838110156102d65780820151818401526020810190506102bb565b50505050905090810190601f1680156103035780820380516001836020036101000a031916815260200191505b509250505060405180910390f35b34801561031d57600080fd5b5061033c6004803603810190808035906020019092919050505061150f565b6040518080602001828103825283818151815260200191508051906020019080838360005b8381101561037c578082015181840152602081019050610361565b50505050905090810190601f1680156103a95780820380516001836020036101000a031916815260200191505b509250505060405180910390f35b3480156103c357600080fd5b506103cc6115bf565b6040518082815260200191505060405180910390f35b3480156103ee57600080fd5b5061044d600480360381019080803573ffffffffffffffffffffffffffffffffffffffff169060200190929190803573ffffffffffffffffffffffffffffffffffffffff169060200190929190803590602001909291905050506115cc565b005b34801561045b57600080fd5b506104986004803603810190808035906020019092919080359060200190929190803567ffffffffffffffff1690602001909291905050506116e3565b005b3480156104a657600080fd5b506104e5600480360381019080803573ffffffffffffffffffffffffffffffffffffffff16906020019092919080359060200190929190505050611a47565b6040518082815260200191505060405180910390f35b34801561050757600080fd5b5061052660048036038101908080359060200190929190505050611abe565b6040518082815260200191505060405180910390f35b34801561054857600080fd5b5061056760048036038101908080359060200190929190505050611ad6565b604051808260ff1660ff16815260200191505060405180910390f35b34801561058f57600080fd5b50610598611af6565b005b3480156105a657600080fd5b50610654600480360381019080803590602001908201803590602001908080601f0160208091040260200160405190810160405280939291908181526020018383808284378201915050505050509192919290803590602001908201803590602001908080601f0160208091040260200160405190810160405280939291908181526020018383808284378201915050505050509192919290803560ff169060200190929190505050611bc9565b005b34801561066257600080fd5b506106c1600480360381019080803573ffffffffffffffffffffffffffffffffffffffff169060200190929190803573ffffffffffffffffffffffffffffffffffffffff16906020019092919080359060200190929190505050611c20565b005b6106e160048036038101908080359060200190929190505050611c58565b005b3480156106ef57600080fd5b5061070e600480360381019080803590602001909291905050506120e8565b604051808215151515815260200191505060405180910390f35b34801561073457600080fd5b5061075360048036038101908080359060200190929190505050612159565b6040518082815260200191505060405180910390f35b34801561077557600080fd5b5061079460048036038101908080359060200190929190505050612191565b6040518080602001806020018773ffffffffffffffffffffffffffffffffffffffff1673ffffffffffffffffffffffffffffffffffffffff1681526020018681526020018581526020018460ff1660ff168152602001838103835289818151815260200191508051906020019080838360005b83811015610822578082015181840152602081019050610807565b50505050905090810190601f16801561084f5780820380516001836020036101000a031916815260200191505b50838103825288818151815260200191508051906020019080838360005b8381101561088857808201518184015260208101905061086d565b50505050905090810190601f1680156108b55780820380516001836020036101000a031916815260200191505b509850505050505050505060405180910390f35b3480156108d557600080fd5b506108f46004803603810190808035906020019092919050505061239f565b604051808973ffffffffffffffffffffffffffffffffffffffff1673ffffffffffffffffffffffffffffffffffffffff1681526020018873ffffffffffffffffffffffffffffffffffffffff1673ffffffffffffffffffffffffffffffffffffffff1681526020018773ffffffffffffffffffffffffffffffffffffffff1673ffffffffffffffffffffffffffffffffffffffff1681526020018681526020018581526020018467ffffffffffffffff1667ffffffffffffffff1681526020018367ffffffffffffffff1667ffffffffffffffff1681526020018260ff1660ff1681526020019850505050505050505060405180910390f35b3480156109f957600080fd5b50610a186004803603810190808035906020019092919050505061248b565b005b348015610a2657600080fd5b50610a4560048036038101908080359060200190929190505050612a5e565b604051808273ffffffffffffffffffffffffffffffffffffffff1673ffffffffffffffffffffffffffffffffffffffff16815260200191505060405180910390f35b348015610a9357600080fd5b50610ac8600480360381019080803573ffffffffffffffffffffffffffffffffffffffff169060200190929190505050612adb565b6040518082815260200191505060405180910390f35b348015610aea57600080fd5b50610b0960048036038101908080359060200190929190505050612b5f565b604051808260ff1660ff16815260200191505060405180910390f35b348015610b3157600080fd5b50610b5060048036038101908080359060200190929190505050612b89565b604051808973ffffffffffffffffffffffffffffffffffffffff1673ffffffffffffffffffffffffffffffffffffffff1681526020018873ffffffffffffffffffffffffffffffffffffffff1673ffffffffffffffffffffffffffffffffffffffff1681526020018773ffffffffffffffffffffffffffffffffffffffff1673ffffffffffffffffffffffffffffffffffffffff1681526020018681526020018581526020018467ffffffffffffffff1667ffffffffffffffff1681526020018367ffffffffffffffff1667ffffffffffffffff1681526020018260ff1660ff1681526020019850505050505050505060405180910390f35b348015610c5557600080fd5b50610c7460048036038101908080359060200190929190505050612c8f565b604051808273ffffffffffffffffffffffffffffffffffffffff1673ffffffffffffffffffffffffffffffffffffffff16815260200191505060405180910390f35b348015610cc257600080fd5b50610ce160048036038101908080359060200190929190505050612ccc565b604051808273ffffffffffffffffffffffffffffffffffffffff1673ffffffffffffffffffffffffffffffffffffffff16815260200191505060405180910390f35b348015610d2f57600080fd5b50610dd0600480360381019080803590602001908201803590602001908080601f0160208091040260200160405190810160405280939291908181526020018383808284378201915050505050509192919290803590602001908201803590602001908080601f0160208091040260200160405190810160405280939291908181526020018383808284378201915050505050509192919290505050612cff565b005b348015610dde57600080fd5b50610dfd60048036038101908080359060200190929190505050613083565b005b348015610e0b57600080fd5b50610e4c600480360381019080803573ffffffffffffffffffffffffffffffffffffffff169060200190929190803515159060200190929190505050613326565b005b348015610e5a57600080fd5b50610eff600480360381019080803573ffffffffffffffffffffffffffffffffffffffff169060200190929190803573ffffffffffffffffffffffffffffffffffffffff16906020019092919080359060200190929190803590602001908201803590602001908080601f0160208091040260200160405190810160405280939291908181526020018383808284378201915050505050509192919290505050613462565b005b348015610f0d57600080fd5b50610f42600480360381019080803573ffffffffffffffffffffffffffffffffffffffff1690602001909291905050506134a1565b6040518082815260200191505060405180910390f35b348015610f6457600080fd5b50610f83600480360381019080803590602001909291905050506134b9565b604051808973ffffffffffffffffffffffffffffffffffffffff1673ffffffffffffffffffffffffffffffffffffffff1681526020018873ffffffffffffffffffffffffffffffffffffffff1673ffffffffffffffffffffffffffffffffffffffff1681526020018773ffffffffffffffffffffffffffffffffffffffff1673ffffffffffffffffffffffffffffffffffffffff1681526020018681526020018581526020018467ffffffffffffffff1667ffffffffffffffff1681526020018367ffffffffffffffff1667ffffffffffffffff1681526020018260ff1660ff1681526020019850505050505050505060405180910390f35b34801561108857600080fd5b506110a760048036038101908080359060200190929190505050613596565b6040518082815260200191505060405180910390f35b3480156110c957600080fd5b5061111e600480360381019080803573ffffffffffffffffffffffffffffffffffffffff169060200190929190803573ffffffffffffffffffffffffffffffffffffffff1690602001909291905050506135ae565b604051808215151515815260200191505060405180910390f35b34801561114457600080fd5b5061116360048036038101908080359060200190929190505050613642565b604051808973ffffffffffffffffffffffffffffffffffffffff1673ffffffffffffffffffffffffffffffffffffffff1681526020018873ffffffffffffffffffffffffffffffffffffffff1673ffffffffffffffffffffffffffffffffffffffff1681526020018773ffffffffffffffffffffffffffffffffffffffff1673ffffffffffffffffffffffffffffffffffffffff1681526020018681526020018581526020018467ffffffffffffffff1667ffffffffffffffff1681526020018367ffffffffffffffff1667ffffffffffffffff1681526020018260ff1660ff1681526020019850505050505050505060405180910390f35b60006001600083815260200190815260200160002060009054906101000a900473ffffffffffffffffffffffffffffffffffffffff169050919050565b60006112a482612a5e565b90508073ffffffffffffffffffffffffffffffffffffffff168373ffffffffffffffffffffffffffffffffffffffff16141515156112e157600080fd5b8073ffffffffffffffffffffffffffffffffffffffff163373ffffffffffffffffffffffffffffffffffffffff161480611321575061132081336135ae565b5b151561132c57600080fd5b600073ffffffffffffffffffffffffffffffffffffffff1661134d8361125c565b73ffffffffffffffffffffffffffffffffffffffff1614158061139d5750600073ffffffffffffffffffffffffffffffffffffffff168373ffffffffffffffffffffffffffffffffffffffff1614155b1561145a57826001600084815260200190815260200160002060006101000a81548173ffffffffffffffffffffffffffffffffffffffff021916908373ffffffffffffffffffffffffffffffffffffffff1602179055508273ffffffffffffffffffffffffffffffffffffffff168173ffffffffffffffffffffffffffffffffffffffff167f8c5be1e5ebec7d5bd14f71427d1e84f3dd0314c0f7b2291e5b200ac8c7c3b925846040518082815260200191505060405180910390a35b505050565b600b6020528060005260406000206000915090508054600181600116156101000203166002900480601f0160208091040260200160405190810160405280929190818152602001828054600181600116156101000203166002900480156115075780601f106114dc57610100808354040283529160200191611507565b820191906000526020600020905b8154815290600101906020018083116114ea57829003601f168201915b505050505081565b600a6020528060005260406000206000915090508054600181600116156101000203166002900480601f0160208091040260200160405190810160405280929190818152602001828054600181600116156101000203166002900480156115b75780601f1061158c576101008083540402835291602001916115b7565b820191906000526020600020905b81548152906001019060200180831161159a57829003601f168201915b505050505081565b6000600780549050905090565b806115d73382613752565b15156115e257600080fd5b600073ffffffffffffffffffffffffffffffffffffffff168473ffffffffffffffffffffffffffffffffffffffff161415151561161e57600080fd5b600073ffffffffffffffffffffffffffffffffffffffff168373ffffffffffffffffffffffffffffffffffffffff161415151561165a57600080fd5b61166484836137e7565b61166e8483613950565b6116788383613b68565b8273ffffffffffffffffffffffffffffffffffffffff168473ffffffffffffffffffffffffffffffffffffffff167fddf252ad1be2c89b69c2b068fc378daa952ba7f163c4a11628f55a4df523b3ef846040518082815260200191505060405180910390a350505050565b6000806000806116f16144b5565b873373ffffffffffffffffffffffffffffffffffffffff1661171282612a5e565b73ffffffffffffffffffffffffffffffffffffffff1614151561173457600080fd5b6064881015151561174457600080fd5b61174e338a613c3f565b61175789612c8f565b955061176289612b5f565b94504293508684019250610100604051908101604052803373ffffffffffffffffffffffffffffffffffffffff1681526020018773ffffffffffffffffffffffffffffffffffffffff1681526020013373ffffffffffffffffffffffffffffffffffffffff1681526020018981526020018981526020018567ffffffffffffffff1681526020018467ffffffffffffffff1681526020018660ff16815250915081601060008b815260200190815260200160002060008201518160000160006101000a81548173ffffffffffffffffffffffffffffffffffffffff021916908373ffffffffffffffffffffffffffffffffffffffff16021790555060208201518160010160006101000a81548173ffffffffffffffffffffffffffffffffffffffff021916908373ffffffffffffffffffffffffffffffffffffffff16021790555060408201518160020160006101000a81548173ffffffffffffffffffffffffffffffffffffffff021916908373ffffffffffffffffffffffffffffffffffffffff160217905550606082015181600301556080820151816004015560a08201518160050160006101000a81548167ffffffffffffffff021916908367ffffffffffffffff16021790555060c08201518160050160086101000a81548167ffffffffffffffff021916908367ffffffffffffffff16021790555060e08201518160050160106101000a81548160ff021916908360ff1602179055509050507f7fee9a8109a2ad8a5bd278ef50939ed22fdbafc65a2999447607c83cc62613b989836020015184606001518560a001518660c00151604051808681526020018573ffffffffffffffffffffffffffffffffffffffff1673ffffffffffffffffffffffffffffffffffffffff1681526020018481526020018367ffffffffffffffff1667ffffffffffffffff1681526020018267ffffffffffffffff1667ffffffffffffffff1681526020019550505050505060405180910390a1505050505050505050565b6000611a5283612adb565b82101515611a5f57600080fd5b600560008473ffffffffffffffffffffffffffffffffffffffff1673ffffffffffffffffffffffffffffffffffffffff16815260200190815260200160002082815481101515611aab57fe5b9060005260206000200154905092915050565b600e6020528060005260406000206000915090505481565b600f6020528060005260406000206000915054906101000a900460ff1681565b6000601360003373ffffffffffffffffffffffffffffffffffffffff1673ffffffffffffffffffffffffffffffffffffffff1681526020019081526020016000205490506000601360003373ffffffffffffffffffffffffffffffffffffffff1673ffffffffffffffffffffffffffffffffffffffff168152602001908152602001600020819055503373ffffffffffffffffffffffffffffffffffffffff166108fc829081150290604051600060405180830381858888f19350505050158015611bc5573d6000803e3d6000fd5b5050565b600060058260ff1611151515611bde57600080fd5b60008260ff16111515611bf057600080fd5b600090505b8160ff168160ff161015611c1a57611c0d8484612cff565b8080600101915050611bf5565b50505050565b80611c2b3382613752565b1515611c3657600080fd5b611c528484846020604051908101604052806000815250613462565b50505050565b6000611c626144b5565b601060008481526020019081526020016000209150611c8082613dad565b1515611c8b57600080fd5b8160050160089054906101000a900467ffffffffffffffff1667ffffffffffffffff164211151515611cbc57600080fd5b816004015434111515611cce57600080fd5b6012600084815260200190815260200160002054601360008460020160009054906101000a900473ffffffffffffffffffffffffffffffffffffffff1673ffffffffffffffffffffffffffffffffffffffff1673ffffffffffffffffffffffffffffffffffffffff16815260200190815260200160002060008282540192505081905550346012600085815260200190815260200160002081905550610100604051908101604052808360000160009054906101000a900473ffffffffffffffffffffffffffffffffffffffff1673ffffffffffffffffffffffffffffffffffffffff1681526020018360010160009054906101000a900473ffffffffffffffffffffffffffffffffffffffff1673ffffffffffffffffffffffffffffffffffffffff1681526020013373ffffffffffffffffffffffffffffffffffffffff168152602001836003015481526020013481526020018360050160009054906101000a900467ffffffffffffffff1667ffffffffffffffff1681526020018360050160089054906101000a900467ffffffffffffffff1667ffffffffffffffff1681526020018360050160109054906101000a900460ff1660ff168152509050806010600085815260200190815260200160002060008201518160000160006101000a81548173ffffffffffffffffffffffffffffffffffffffff021916908373ffffffffffffffffffffffffffffffffffffffff16021790555060208201518160010160006101000a81548173ffffffffffffffffffffffffffffffffffffffff021916908373ffffffffffffffffffffffffffffffffffffffff16021790555060408201518160020160006101000a81548173ffffffffffffffffffffffffffffffffffffffff021916908373ffffffffffffffffffffffffffffffffffffffff160217905550606082015181600301556080820151816004015560a08201518160050160006101000a81548167ffffffffffffffff021916908367ffffffffffffffff16021790555060c08201518160050160086101000a81548167ffffffffffffffff021916908367ffffffffffffffff16021790555060e08201518160050160106101000a81548160ff021916908360ff1602179055509050507f2f5260b20758958466bdbc91766857fc92bb0b4991c70df624895a52b3c78a18838360010160009054906101000a900473ffffffffffffffffffffffffffffffffffffffff1633856003015434604051808681526020018573ffffffffffffffffffffffffffffffffffffffff1673ffffffffffffffffffffffffffffffffffffffff1681526020018473ffffffffffffffffffffffffffffffffffffffff1673ffffffffffffffffffffffffffffffffffffffff1681526020018381526020018281526020019550505050505060405180910390a1505050565b60008060008084815260200190815260200160002060009054906101000a900473ffffffffffffffffffffffffffffffffffffffff169050600073ffffffffffffffffffffffffffffffffffffffff168173ffffffffffffffffffffffffffffffffffffffff161415915050919050565b60006121636115bf565b8210151561217057600080fd5b60078281548110151561217f57fe5b90600052602060002001549050919050565b6060806000806000806121a26115bf565b871015156121af57600080fd5b600a6000888152602001908152602001600020600b6000898152602001908152602001600020600c60008a815260200190815260200160002060009054906101000a900473ffffffffffffffffffffffffffffffffffffffff16600d60008b815260200190815260200160002054600e60008c815260200190815260200160002054600f60008d815260200190815260200160002060009054906101000a900460ff16858054600181600116156101000203166002900480601f0160208091040260200160405190810160405280929190818152602001828054600181600116156101000203166002900480156122e75780601f106122bc576101008083540402835291602001916122e7565b820191906000526020600020905b8154815290600101906020018083116122ca57829003601f168201915b50505050509550848054600181600116156101000203166002900480601f0160208091040260200160405190810160405280929190818152602001828054600181600116156101000203166002900480156123835780601f1061235857610100808354040283529160200191612383565b820191906000526020600020905b81548152906001019060200180831161236657829003601f168201915b5050505050945095509550955095509550955091939550919395565b6011818154811015156123ae57fe5b90600052602060002090600602016000915090508060000160009054906101000a900473ffffffffffffffffffffffffffffffffffffffff16908060010160009054906101000a900473ffffffffffffffffffffffffffffffffffffffff16908060020160009054906101000a900473ffffffffffffffffffffffffffffffffffffffff16908060030154908060040154908060050160009054906101000a900467ffffffffffffffff16908060050160089054906101000a900467ffffffffffffffff16908060050160109054906101000a900460ff16905088565b6000806000806010600086815260200190815260200160002093508360050160089054906101000a900467ffffffffffffffff1667ffffffffffffffff16421115156124d657600080fd5b6124df84613dad565b15156124ea57600080fd5b601184908060018154018082558091505090600182039060005260206000209060060201600090919290919091506000820160009054906101000a900473ffffffffffffffffffffffffffffffffffffffff168160000160006101000a81548173ffffffffffffffffffffffffffffffffffffffff021916908373ffffffffffffffffffffffffffffffffffffffff1602179055506001820160009054906101000a900473ffffffffffffffffffffffffffffffffffffffff168160010160006101000a81548173ffffffffffffffffffffffffffffffffffffffff021916908373ffffffffffffffffffffffffffffffffffffffff1602179055506002820160009054906101000a900473ffffffffffffffffffffffffffffffffffffffff168160020160006101000a81548173ffffffffffffffffffffffffffffffffffffffff021916908373ffffffffffffffffffffffffffffffffffffffff16021790555060038201548160030155600482015481600401556005820160009054906101000a900467ffffffffffffffff168160050160006101000a81548167ffffffffffffffff021916908367ffffffffffffffff1602179055506005820160089054906101000a900467ffffffffffffffff168160050160086101000a81548167ffffffffffffffff021916908367ffffffffffffffff1602179055506005820160109054906101000a900460ff168160050160106101000a81548160ff021916908360ff1602179055505050506127468460020160009054906101000a900473ffffffffffffffffffffffffffffffffffffffff1686613ddb565b6012600086815260200190815260200160002054925060648460050160109054906101000a900460ff1660ff16840281151561277e57fe5b049150818303905081601360008660010160009054906101000a900473ffffffffffffffffffffffffffffffffffffffff1673ffffffffffffffffffffffffffffffffffffffff1673ffffffffffffffffffffffffffffffffffffffff1681526020019081526020016000206000828254019250508190555080601360008660000160009054906101000a900473ffffffffffffffffffffffffffffffffffffffff1673ffffffffffffffffffffffffffffffffffffffff1673ffffffffffffffffffffffffffffffffffffffff1681526020019081526020016000206000828254019250508190555060106000868152602001908152602001600020600080820160006101000a81549073ffffffffffffffffffffffffffffffffffffffff02191690556001820160006101000a81549073ffffffffffffffffffffffffffffffffffffffff02191690556002820160006101000a81549073ffffffffffffffffffffffffffffffffffffffff0219169055600382016000905560048201600090556005820160006101000a81549067ffffffffffffffff02191690556005820160086101000a81549067ffffffffffffffff02191690556005820160106101000a81549060ff0219169055505060126000868152602001908152602001600020600090557fafdeeac496c85b58d5787e2bdf4629388231070f6b20208fc37abbf14e7504c1858560010160009054906101000a900473ffffffffffffffffffffffffffffffffffffffff1686600401548760020160009054906101000a900473ffffffffffffffffffffffffffffffffffffffff16604051808581526020018473ffffffffffffffffffffffffffffffffffffffff1673ffffffffffffffffffffffffffffffffffffffff1681526020018381526020018273ffffffffffffffffffffffffffffffffffffffff1673ffffffffffffffffffffffffffffffffffffffff16815260200194505050505060405180910390a15050505050565b60008060008084815260200190815260200160002060009054906101000a900473ffffffffffffffffffffffffffffffffffffffff169050600073ffffffffffffffffffffffffffffffffffffffff168173ffffffffffffffffffffffffffffffffffffffff1614151515612ad257600080fd5b80915050919050565b60008073ffffffffffffffffffffffffffffffffffffffff168273ffffffffffffffffffffffffffffffffffffffff1614151515612b1857600080fd5b600260008373ffffffffffffffffffffffffffffffffffffffff1673ffffffffffffffffffffffffffffffffffffffff168152602001908152602001600020549050919050565b6000600f600083815260200190815260200160002060009054906101000a900460ff169050919050565b600080600080600080600080600060118a815481101515612ba657fe5b906000526020600020906006020190508060000160009054906101000a900473ffffffffffffffffffffffffffffffffffffffff168160010160009054906101000a900473ffffffffffffffffffffffffffffffffffffffff168260020160009054906101000a900473ffffffffffffffffffffffffffffffffffffffff16836003015484600401548560050160009054906101000a900467ffffffffffffffff168660050160089054906101000a900467ffffffffffffffff168760050160109054906101000a900460ff169850985098509850985098509850985050919395975091939597565b6000600c600083815260200190815260200160002060009054906101000a900473ffffffffffffffffffffffffffffffffffffffff169050919050565b600c6020528060005260406000206000915054906101000a900473ffffffffffffffffffffffffffffffffffffffff1681565b600080600080612d1433600480549050613f49565b429350600960003373ffffffffffffffffffffffffffffffffffffffff1673ffffffffffffffffffffffffffffffffffffffff1681526020019081526020016000205492506007805490506008600083815260200190815260200160002081905550600781908060018154018082558091505090600182039060005260206000200160009091929091909150555060059150612ee56001600460c0604051908101604052808a81526020018981526020013373ffffffffffffffffffffffffffffffffffffffff1681526020018781526020018881526020018660ff16815250908060018154018082558091505090600182039060005260206000209060060201600090919290919091506000820151816000019080519060200190612e3b929190614554565b506020820151816001019080519060200190612e58929190614554565b5060408201518160020160006101000a81548173ffffffffffffffffffffffffffffffffffffffff021916908373ffffffffffffffffffffffffffffffffffffffff160217905550606082015181600301556080820151816004015560a08201518160050160006101000a81548160ff021916908360ff1602179055505050613ff990919063ffffffff16565b9050612f3a6001600960003373ffffffffffffffffffffffffffffffffffffffff1673ffffffffffffffffffffffffffffffffffffffff1681526020019081526020016000205461401290919063ffffffff16565b600960003373ffffffffffffffffffffffffffffffffffffffff1673ffffffffffffffffffffffffffffffffffffffff1681526020019081526020016000208190555085600a60008381526020019081526020016000209080519060200190612fa49291906145d4565b5084600b60008381526020019081526020016000209080519060200190612fcc9291906145d4565b5033600c600083815260200190815260200160002060006101000a81548173ffffffffffffffffffffffffffffffffffffffff021916908373ffffffffffffffffffffffffffffffffffffffff16021790555082600d60008381526020019081526020016000208190555083600e60008381526020019081526020016000208190555081600f600083815260200190815260200160002060006101000a81548160ff021916908360ff160217905550505050505050565b60006010600083815260200190815260200160002090508060000160009054906101000a900473ffffffffffffffffffffffffffffffffffffffff1673ffffffffffffffffffffffffffffffffffffffff163373ffffffffffffffffffffffffffffffffffffffff161415156130f857600080fd5b61310181613dad565b151561310c57600080fd5b428160050160089054906101000a900467ffffffffffffffff1667ffffffffffffffff161015151561313d57600080fd5b61316b8160000160009054906101000a900473ffffffffffffffffffffffffffffffffffffffff1683613ddb565b6012600083815260200190815260200160002054601360008360020160009054906101000a900473ffffffffffffffffffffffffffffffffffffffff1673ffffffffffffffffffffffffffffffffffffffff1673ffffffffffffffffffffffffffffffffffffffff16815260200190815260200160002060008282540192505081905550601260008381526020019081526020016000206000905560106000838152602001908152602001600020600080820160006101000a81549073ffffffffffffffffffffffffffffffffffffffff02191690556001820160006101000a81549073ffffffffffffffffffffffffffffffffffffffff02191690556002820160006101000a81549073ffffffffffffffffffffffffffffffffffffffff0219169055600382016000905560048201600090556005820160006101000a81549067ffffffffffffffff02191690556005820160086101000a81549067ffffffffffffffff02191690556005820160106101000a81549060ff021916905550507f2809c7e17bf978fbc7194c0a694b638c4215e9140cacc6c38ca36010b45697df826040518082815260200191505060405180910390a15050565b3373ffffffffffffffffffffffffffffffffffffffff168273ffffffffffffffffffffffffffffffffffffffff161415151561336157600080fd5b80600360003373ffffffffffffffffffffffffffffffffffffffff1673ffffffffffffffffffffffffffffffffffffffff16815260200190815260200160002060008473ffffffffffffffffffffffffffffffffffffffff1673ffffffffffffffffffffffffffffffffffffffff16815260200190815260200160002060006101000a81548160ff0219169083151502179055508173ffffffffffffffffffffffffffffffffffffffff163373ffffffffffffffffffffffffffffffffffffffff167f17307eab39ab6107e8899845ad3d59bd9653f200f220920489ca2b5937696c3183604051808215151515815260200191505060405180910390a35050565b8161346d3382613752565b151561347857600080fd5b6134838585856115cc565b61348f8585858561402e565b151561349a57600080fd5b5050505050565b60096020528060005260406000206000915090505481565b60106020528060005260406000206000915090508060000160009054906101000a900473ffffffffffffffffffffffffffffffffffffffff16908060010160009054906101000a900473ffffffffffffffffffffffffffffffffffffffff16908060020160009054906101000a900473ffffffffffffffffffffffffffffffffffffffff16908060030154908060040154908060050160009054906101000a900467ffffffffffffffff16908060050160089054906101000a900467ffffffffffffffff16908060050160109054906101000a900460ff16905088565b600d6020528060005260406000206000915090505481565b6000600360008473ffffffffffffffffffffffffffffffffffffffff1673ffffffffffffffffffffffffffffffffffffffff16815260200190815260200160002060008373ffffffffffffffffffffffffffffffffffffffff1673ffffffffffffffffffffffffffffffffffffffff16815260200190815260200160002060009054906101000a900460ff16905092915050565b6000806000806000806000806000601060008b8152602001908152602001600020905061366e81613dad565b151561367957600080fd5b8060000160009054906101000a900473ffffffffffffffffffffffffffffffffffffffff168160010160009054906101000a900473ffffffffffffffffffffffffffffffffffffffff168260020160009054906101000a900473ffffffffffffffffffffffffffffffffffffffff16836003015484600401548560050160009054906101000a900467ffffffffffffffff168660050160089054906101000a900467ffffffffffffffff168760050160109054906101000a900460ff169850985098509850985098509850985050919395975091939597565b60008061375e83612a5e565b90508073ffffffffffffffffffffffffffffffffffffffff168473ffffffffffffffffffffffffffffffffffffffff1614806137cd57508373ffffffffffffffffffffffffffffffffffffffff166137b58461125c565b73ffffffffffffffffffffffffffffffffffffffff16145b806137de57506137dd81856135ae565b5b91505092915050565b8173ffffffffffffffffffffffffffffffffffffffff1661380782612a5e565b73ffffffffffffffffffffffffffffffffffffffff1614151561382957600080fd5b600073ffffffffffffffffffffffffffffffffffffffff166001600083815260200190815260200160002060009054906101000a900473ffffffffffffffffffffffffffffffffffffffff1673ffffffffffffffffffffffffffffffffffffffff1614151561394c5760006001600083815260200190815260200160002060006101000a81548173ffffffffffffffffffffffffffffffffffffffff021916908373ffffffffffffffffffffffffffffffffffffffff160217905550600073ffffffffffffffffffffffffffffffffffffffff168273ffffffffffffffffffffffffffffffffffffffff167f8c5be1e5ebec7d5bd14f71427d1e84f3dd0314c0f7b2291e5b200ac8c7c3b925836040518082815260200191505060405180910390a35b5050565b600080600061395f858561421c565b600660008581526020019081526020016000205492506139cb6001600560008873ffffffffffffffffffffffffffffffffffffffff1673ffffffffffffffffffffffffffffffffffffffff16815260200190815260200160002080549050613ff990919063ffffffff16565b9150600560008673ffffffffffffffffffffffffffffffffffffffff1673ffffffffffffffffffffffffffffffffffffffff16815260200190815260200160002082815481101515613a1957fe5b9060005260206000200154905080600560008773ffffffffffffffffffffffffffffffffffffffff1673ffffffffffffffffffffffffffffffffffffffff16815260200190815260200160002084815481101515613a7357fe5b90600052602060002001819055506000600560008773ffffffffffffffffffffffffffffffffffffffff1673ffffffffffffffffffffffffffffffffffffffff16815260200190815260200160002083815481101515613acf57fe5b9060005260206000200181905550600560008673ffffffffffffffffffffffffffffffffffffffff1673ffffffffffffffffffffffffffffffffffffffff168152602001908152602001600020805480919060019003613b2f9190614654565b50600060066000868152602001908152602001600020819055508260066000838152602001908152602001600020819055505050505050565b6000613b74838361434a565b600560008473ffffffffffffffffffffffffffffffffffffffff1673ffffffffffffffffffffffffffffffffffffffff168152602001908152602001600020805490509050600560008473ffffffffffffffffffffffffffffffffffffffff1673ffffffffffffffffffffffffffffffffffffffff168152602001908152602001600020829080600181540180825580915050906001820390600052602060002001600090919290919091505550806006600084815260200190815260200160002081905550505050565b613c4982826137e7565b613c538282613950565b613c5d3082613b68565b3060008083815260200190815260200160002060006101000a81548173ffffffffffffffffffffffffffffffffffffffff021916908373ffffffffffffffffffffffffffffffffffffffff160217905550613d016001600260003073ffffffffffffffffffffffffffffffffffffffff1673ffffffffffffffffffffffffffffffffffffffff1681526020019081526020016000205461401290919063ffffffff16565b600260003073ffffffffffffffffffffffffffffffffffffffff1673ffffffffffffffffffffffffffffffffffffffff168152602001908152602001600020819055503073ffffffffffffffffffffffffffffffffffffffff168273ffffffffffffffffffffffffffffffffffffffff167fddf252ad1be2c89b69c2b068fc378daa952ba7f163c4a11628f55a4df523b3ef836040518082815260200191505060405180910390a35050565b6000808260050160009054906101000a900467ffffffffffffffff1667ffffffffffffffff16119050919050565b613de530826137e7565b613def3082613950565b613df98282613b68565b8160008083815260200190815260200160002060006101000a81548173ffffffffffffffffffffffffffffffffffffffff021916908373ffffffffffffffffffffffffffffffffffffffff160217905550613e9d6001600260008573ffffffffffffffffffffffffffffffffffffffff1673ffffffffffffffffffffffffffffffffffffffff1681526020019081526020016000205461401290919063ffffffff16565b600260008473ffffffffffffffffffffffffffffffffffffffff1673ffffffffffffffffffffffffffffffffffffffff168152602001908152602001600020819055508173ffffffffffffffffffffffffffffffffffffffff163073ffffffffffffffffffffffffffffffffffffffff167fddf252ad1be2c89b69c2b068fc378daa952ba7f163c4a11628f55a4df523b3ef836040518082815260200191505060405180910390a35050565b600073ffffffffffffffffffffffffffffffffffffffff168273ffffffffffffffffffffffffffffffffffffffff1614151515613f8557600080fd5b613f8f8282613b68565b8173ffffffffffffffffffffffffffffffffffffffff16600073ffffffffffffffffffffffffffffffffffffffff167fddf252ad1be2c89b69c2b068fc378daa952ba7f163c4a11628f55a4df523b3ef836040518082815260200191505060405180910390a35050565b600082821115151561400757fe5b818303905092915050565b6000818301905082811015151561402557fe5b80905092915050565b6000806140508573ffffffffffffffffffffffffffffffffffffffff166144a2565b151561405f5760019150614213565b8473ffffffffffffffffffffffffffffffffffffffff1663f0b9e5ba8786866040518463ffffffff167c0100000000000000000000000000000000000000000000000000000000028152600401808473ffffffffffffffffffffffffffffffffffffffff1673ffffffffffffffffffffffffffffffffffffffff16815260200183815260200180602001828103825283818151815260200191508051906020019080838360005b83811015614121578082015181840152602081019050614106565b50505050905090810190601f16801561414e5780820380516001836020036101000a031916815260200191505b50945050505050602060405180830381600087803b15801561416f57600080fd5b505af1158015614183573d6000803e3d6000fd5b505050506040513d602081101561419957600080fd5b8101908080519060200190929190505050905063f0b9e5ba7c0100000000000000000000000000000000000000000000000000000000027bffffffffffffffffffffffffffffffffffffffffffffffffffffffff1916817bffffffffffffffffffffffffffffffffffffffffffffffffffffffff19161491505b50949350505050565b8173ffffffffffffffffffffffffffffffffffffffff1661423c82612a5e565b73ffffffffffffffffffffffffffffffffffffffff1614151561425e57600080fd5b6142b16001600260008573ffffffffffffffffffffffffffffffffffffffff1673ffffffffffffffffffffffffffffffffffffffff16815260200190815260200160002054613ff990919063ffffffff16565b600260008473ffffffffffffffffffffffffffffffffffffffff1673ffffffffffffffffffffffffffffffffffffffff16815260200190815260200160002081905550600080600083815260200190815260200160002060006101000a81548173ffffffffffffffffffffffffffffffffffffffff021916908373ffffffffffffffffffffffffffffffffffffffff1602179055505050565b600073ffffffffffffffffffffffffffffffffffffffff1660008083815260200190815260200160002060009054906101000a900473ffffffffffffffffffffffffffffffffffffffff1673ffffffffffffffffffffffffffffffffffffffff161415156143b757600080fd5b8160008083815260200190815260200160002060006101000a81548173ffffffffffffffffffffffffffffffffffffffff021916908373ffffffffffffffffffffffffffffffffffffffff16021790555061445b6001600260008573ffffffffffffffffffffffffffffffffffffffff1673ffffffffffffffffffffffffffffffffffffffff1681526020019081526020016000205461401290919063ffffffff16565b600260008473ffffffffffffffffffffffffffffffffffffffff1673ffffffffffffffffffffffffffffffffffffffff168152602001908152602001600020819055505050565b600080823b905060008111915050919050565b61010060405190810160405280600073ffffffffffffffffffffffffffffffffffffffff168152602001600073ffffffffffffffffffffffffffffffffffffffff168152602001600073ffffffffffffffffffffffffffffffffffffffff1681526020016000815260200160008152602001600067ffffffffffffffff168152602001600067ffffffffffffffff168152602001600060ff1681525090565b828054600181600116156101000203166002900490600052602060002090601f016020900481019282601f1061459557805160ff19168380011785556145c3565b828001600101855582156145c3579182015b828111156145c25782518255916020019190600101906145a7565b5b5090506145d09190614680565b5090565b828054600181600116156101000203166002900490600052602060002090601f016020900481019282601f1061461557805160ff1916838001178555614643565b82800160010185558215614643579182015b82811115614642578251825591602001919060010190614627565b5b5090506146509190614680565b5090565b81548183558181111561467b5781836000526020600020918201910161467a9190614680565b5b505050565b6146a291905b8082111561469e576000816000905550600101614686565b5090565b905600a165627a7a723058207fd229307a95cbb49e4fbbf0484092016e80ce833ff7432cf65ef8bfeac9e1760029",
  "source": "pragma solidity ^0.4.23;\n\nimport \"./ArtistToken.sol\";\n\ncontract TokenAuction is ArtistToken {\n  \n  struct Auction {\n    address seller;\n    address artist;\n    address topBidder;\n    uint256 startPrice;\n    uint256 endPrice;\n    uint64 auctionStart;\n    uint64 auctionClose;\n    uint8 royaltyPercentage;\n  }\n\n  // Open Auctions\n  mapping (uint256 => Auction) public tokenIdToAuction;\n\n  // Completed auctions\n  Auction[] public completedAuctions;\n  \n  // Auction value storage\n  mapping (uint256 => uint256) internal auctionStore;\n  \n  // Address value storage\n  mapping (address => uint256) internal pendingWithdraw;\n\n  event AuctionCreated(uint256 tokenId, address artist, uint256 startPrice, uint64 auctionStart, uint64 auctionClose);\n  event AuctionBidIncreased(uint256 tokenId, address artist, address bidder, uint256 startPrice, uint256 endPrice);\n  event AuctionSuccessful(uint256 tokenId, address artist, uint256 endPrice, address winner);\n  event AuctionCancelled(uint256 tokenId);\n\n  // escrow the NFT assigns ownership to contract\n  function _escrow(address _owner, uint256 _tokenId) internal {\n    // clear approvals\n    clearApproval(_owner, _tokenId);\n    \n    // remove token from   \n    super.removeTokenFrom(_owner, _tokenId);\n    \n    // transfer ownership\n    super.addTokenTo(this, _tokenId);\n    tokenOwner[_tokenId] = this;\n    ownedTokensCount[this] = ownedTokensCount[this].add(1);\n    \n    emit Transfer(_owner, this, _tokenId);\n  }\n\n  // transfer NFT owned by contract to another address\n  function _transfer(address _receiver, uint256 _tokenId) internal {\n    // clear approvals\n    clearApproval(this, _tokenId);\n    \n    // remove token from   \n    super.removeTokenFrom(this, _tokenId);\n    \n    // transfer ownership\n    addTokenTo(_receiver, _tokenId);\n    tokenOwner[_tokenId] = _receiver;\n    ownedTokensCount[_receiver] = ownedTokensCount[_receiver].add(1);\n    \n    emit Transfer(this, _receiver, _tokenId);\n  }\n\n  // check if the auction is on\n  function _isOnAuction(Auction storage _auction) internal view returns (bool) {\n    return (_auction.auctionStart > 0);\n  }\n\n  // creates an Auction\n  function createAuction(uint256 _tokenId, \n                         uint256 _startPrice,\n                         uint64 _duration) public onlyOwnerOf(_tokenId) {\n    // require non-zero start price\n    require(_startPrice >= 100);\n    // transfer token to this contract\n    _escrow(msg.sender, _tokenId);\n    \n    // get values from inherited contract ArtistToken\n    address _artist = getArtistAddress(_tokenId);\n    uint8 _royaltyPercentage = getRoyaltyPercentage(_tokenId);\n    \n    uint64 _auctionStart = uint64(now);\n    uint64 _auctionEnd = _auctionStart + _duration;\n\n    Auction memory _auction = Auction(\n      msg.sender,\n      _artist,\n      msg.sender,\n      _startPrice,\n      _startPrice,\n      _auctionStart,\n      _auctionEnd,\n      _royaltyPercentage\n    );\n\n    // create mapping\n    tokenIdToAuction[_tokenId] = _auction;\n\n    // broadcast event\n    emit AuctionCreated(\n      uint256(_tokenId),\n      address(_auction.artist),\n      uint256(_auction.startPrice),\n      uint64(_auction.auctionStart),\n      uint64(_auction.auctionClose)\n    );\n  }\n\n  function cancelAuction(uint256 _tokenId) public {\n    Auction storage auction = tokenIdToAuction[_tokenId];\n    require(msg.sender == auction.seller);\n    require(_isOnAuction(auction));\n    require(auction.auctionClose >= now);\n    \n    // return token back to seller\n    _transfer(auction.seller, _tokenId);\n    \n    // return funds back to top bidder\n    pendingWithdraw[auction.topBidder] += auctionStore[_tokenId];\n    \n    // delete mappings\n    delete auctionStore[_tokenId];\n    delete tokenIdToAuction[_tokenId];\n    emit AuctionCancelled(_tokenId);\n  }\n\n  function bid(uint256 _tokenId) public payable {\n    Auction storage auction = tokenIdToAuction[_tokenId];\n    require(_isOnAuction(auction));\n    require(now <= auction.auctionClose);\n    require(msg.value > auction.endPrice); \n    \n    // return money to previous top bidder\n    pendingWithdraw[auction.topBidder] += auctionStore[_tokenId];\n    \n    // update auctionStore\n    auctionStore[_tokenId] = msg.value;\n    \n    // update mapping\n    Auction memory _auction = Auction(\n      auction.seller,\n      auction.artist,\n      msg.sender,\n      auction.startPrice,\n      msg.value,\n      auction.auctionStart,\n      auction.auctionClose,\n      auction.royaltyPercentage\n    );\n\n    tokenIdToAuction[_tokenId] = _auction;\n\n    emit AuctionBidIncreased(_tokenId, auction.artist, msg.sender, auction.startPrice, msg.value);\n  }\n\n  function auctionClose(uint256 _tokenId) public {\n    Auction storage auction = tokenIdToAuction[_tokenId];\n    require(now > auction.auctionClose);\n    require(_isOnAuction(auction));\n    \n    // add to completedAuctions\n    completedAuctions.push(auction);\n    \n    // transfer token\n    _transfer(auction.topBidder, _tokenId);\n    \n    // calculate payout\n    uint256 amount = auctionStore[_tokenId];\n    uint256 artistCut =  amount * auction.royaltyPercentage/100;\n    uint256 sellerProceeds = amount - artistCut;\n\n    // transfer as accordingly\n    pendingWithdraw[auction.artist] += artistCut ;\n    pendingWithdraw[auction.seller] += sellerProceeds;\n\n    // delete auction\n    delete tokenIdToAuction[_tokenId];\n\n    // delete auctionStore mapping\n    delete auctionStore[_tokenId];\n\n    // announce event\n    emit AuctionSuccessful(_tokenId, auction.artist, auction.endPrice, auction.topBidder);\n  }\n  \n  function withdraw() public {\n      uint256 amount = pendingWithdraw[msg.sender];\n      pendingWithdraw[msg.sender] = 0;\n      msg.sender.transfer(amount);\n  }\n  \n  function getOpenAuction(uint256 _tokenId)\n    public\n    view\n    returns\n  (\n    address,\n    address,\n    address,\n    uint256,\n    uint256,\n    uint64,\n    uint64,\n    uint8\n  ) {\n    Auction storage auction = tokenIdToAuction[_tokenId];\n    require(_isOnAuction(auction));\n    return (\n        auction.seller,\n        auction.artist,\n        auction.topBidder,\n        auction.startPrice,\n        auction.endPrice,\n        auction.auctionStart,\n        auction.auctionClose,\n        auction.royaltyPercentage\n    );\n  }\n  \n    function getCompletedAuction(uint256 index)\n    public\n    view\n    returns\n  (\n    address,\n    address,\n    address,\n    uint256,\n    uint256,\n    uint64,\n    uint64,\n    uint8\n  ) {\n    Auction storage auction = completedAuctions[index];\n    return (\n        auction.seller,\n        auction.artist,\n        auction.topBidder,\n        auction.startPrice,\n        auction.endPrice,\n        auction.auctionStart,\n        auction.auctionClose,\n        auction.royaltyPercentage\n    );\n  }\n}\n",
  "sourcePath": "/home/ada/WebApp/smackathon/contracts/TokenAuction.sol",
  "compiler": {
    "name": "solc",
    "version": "0.4.24+commit.e67f0147.Emscripten.clang"
  },
  "schemaVersion": "2.0.1",
  "updatedAt": "2018-07-13T16:00:42.023Z"
}