{
  "contractName": "TokenAuction",
  "abi": [
    {
      "constant": true,
      "inputs": [
        {
          "name": "_tokenId",
          "type": "uint256"
        }
      ],
      "name": "getApproved",
      "outputs": [
        {
          "name": "",
          "type": "address"
        }
      ],
      "payable": false,
      "stateMutability": "view",
      "type": "function"
    },
    {
      "constant": false,
      "inputs": [
        {
          "name": "_to",
          "type": "address"
        },
        {
          "name": "_tokenId",
          "type": "uint256"
        }
      ],
      "name": "approve",
      "outputs": [],
      "payable": false,
      "stateMutability": "nonpayable",
      "type": "function"
    },
    {
      "constant": true,
      "inputs": [
        {
          "name": "",
          "type": "uint256"
        }
      ],
      "name": "tokenToDescription",
      "outputs": [
        {
          "name": "",
          "type": "string"
        }
      ],
      "payable": false,
      "stateMutability": "view",
      "type": "function"
    },
    {
      "constant": true,
      "inputs": [
        {
          "name": "",
          "type": "uint256"
        }
      ],
      "name": "tokenToName",
      "outputs": [
        {
          "name": "",
          "type": "string"
        }
      ],
      "payable": false,
      "stateMutability": "view",
      "type": "function"
    },
    {
      "constant": true,
      "inputs": [],
      "name": "totalSupply",
      "outputs": [
        {
          "name": "",
          "type": "uint256"
        }
      ],
      "payable": false,
      "stateMutability": "view",
      "type": "function"
    },
    {
      "constant": false,
      "inputs": [
        {
          "name": "_from",
          "type": "address"
        },
        {
          "name": "_to",
          "type": "address"
        },
        {
          "name": "_tokenId",
          "type": "uint256"
        }
      ],
      "name": "transferFrom",
      "outputs": [],
      "payable": false,
      "stateMutability": "nonpayable",
      "type": "function"
    },
    {
      "constant": true,
      "inputs": [
        {
          "name": "_owner",
          "type": "address"
        },
        {
          "name": "_index",
          "type": "uint256"
        }
      ],
      "name": "tokenOfOwnerByIndex",
      "outputs": [
        {
          "name": "",
          "type": "uint256"
        }
      ],
      "payable": false,
      "stateMutability": "view",
      "type": "function"
    },
    {
      "constant": true,
      "inputs": [
        {
          "name": "",
          "type": "uint256"
        }
      ],
      "name": "tokenToTimeCreated",
      "outputs": [
        {
          "name": "",
          "type": "uint256"
        }
      ],
      "payable": false,
      "stateMutability": "view",
      "type": "function"
    },
    {
      "constant": true,
      "inputs": [
        {
          "name": "",
          "type": "uint256"
        }
      ],
      "name": "tokenToRoyaltyPercentage",
      "outputs": [
        {
          "name": "",
          "type": "uint8"
        }
      ],
      "payable": false,
      "stateMutability": "view",
      "type": "function"
    },
    {
      "constant": false,
      "inputs": [
        {
          "name": "_name",
          "type": "string"
        },
        {
          "name": "_description",
          "type": "string"
        },
        {
          "name": "_numToken",
          "type": "uint8"
        }
      ],
      "name": "batchMint",
      "outputs": [],
      "payable": false,
      "stateMutability": "nonpayable",
      "type": "function"
    },
    {
      "constant": false,
      "inputs": [
        {
          "name": "_from",
          "type": "address"
        },
        {
          "name": "_to",
          "type": "address"
        },
        {
          "name": "_tokenId",
          "type": "uint256"
        }
      ],
      "name": "safeTransferFrom",
      "outputs": [],
      "payable": false,
      "stateMutability": "nonpayable",
      "type": "function"
    },
    {
      "constant": true,
      "inputs": [
        {
          "name": "_tokenId",
          "type": "uint256"
        }
      ],
      "name": "exists",
      "outputs": [
        {
          "name": "",
          "type": "bool"
        }
      ],
      "payable": false,
      "stateMutability": "view",
      "type": "function"
    },
    {
      "constant": true,
      "inputs": [
        {
          "name": "_index",
          "type": "uint256"
        }
      ],
      "name": "tokenByIndex",
      "outputs": [
        {
          "name": "",
          "type": "uint256"
        }
      ],
      "payable": false,
      "stateMutability": "view",
      "type": "function"
    },
    {
      "constant": true,
      "inputs": [
        {
          "name": "_index",
          "type": "uint256"
        }
      ],
      "name": "tokenDataByIndex",
      "outputs": [
        {
          "name": "",
          "type": "string"
        },
        {
          "name": "",
          "type": "string"
        },
        {
          "name": "",
          "type": "address"
        },
        {
          "name": "",
          "type": "uint256"
        },
        {
          "name": "",
          "type": "uint256"
        },
        {
          "name": "",
          "type": "uint8"
        }
      ],
      "payable": false,
      "stateMutability": "view",
      "type": "function"
    },
    {
      "constant": true,
      "inputs": [
        {
          "name": "_tokenId",
          "type": "uint256"
        }
      ],
      "name": "ownerOf",
      "outputs": [
        {
          "name": "",
          "type": "address"
        }
      ],
      "payable": false,
      "stateMutability": "view",
      "type": "function"
    },
    {
      "constant": true,
      "inputs": [
        {
          "name": "_owner",
          "type": "address"
        }
      ],
      "name": "balanceOf",
      "outputs": [
        {
          "name": "",
          "type": "uint256"
        }
      ],
      "payable": false,
      "stateMutability": "view",
      "type": "function"
    },
    {
      "constant": true,
      "inputs": [
        {
          "name": "",
          "type": "uint256"
        }
      ],
      "name": "tokenToArtistAddress",
      "outputs": [
        {
          "name": "",
          "type": "address"
        }
      ],
      "payable": false,
      "stateMutability": "view",
      "type": "function"
    },
    {
      "constant": true,
      "inputs": [
        {
          "name": "",
          "type": "uint256"
        }
      ],
      "name": "artistStats",
      "outputs": [
        {
          "name": "artist",
          "type": "address"
        },
        {
          "name": "endPrice",
          "type": "uint256"
        },
        {
          "name": "endTime",
          "type": "uint64"
        }
      ],
      "payable": false,
      "stateMutability": "view",
      "type": "function"
    },
    {
      "constant": false,
      "inputs": [
        {
          "name": "_name",
          "type": "string"
        },
        {
          "name": "_description",
          "type": "string"
        }
      ],
      "name": "mint",
      "outputs": [],
      "payable": false,
      "stateMutability": "nonpayable",
      "type": "function"
    },
    {
      "constant": false,
      "inputs": [
        {
          "name": "_to",
          "type": "address"
        },
        {
          "name": "_approved",
          "type": "bool"
        }
      ],
      "name": "setApprovalForAll",
      "outputs": [],
      "payable": false,
      "stateMutability": "nonpayable",
      "type": "function"
    },
    {
      "constant": false,
      "inputs": [
        {
          "name": "_from",
          "type": "address"
        },
        {
          "name": "_to",
          "type": "address"
        },
        {
          "name": "_tokenId",
          "type": "uint256"
        },
        {
          "name": "_data",
          "type": "bytes"
        }
      ],
      "name": "safeTransferFrom",
      "outputs": [],
      "payable": false,
      "stateMutability": "nonpayable",
      "type": "function"
    },
    {
      "constant": true,
      "inputs": [
        {
          "name": "",
          "type": "uint256"
        }
      ],
      "name": "tokenIdToOpenAuction",
      "outputs": [
        {
          "name": "seller",
          "type": "address"
        },
        {
          "name": "artist",
          "type": "address"
        },
        {
          "name": "startPrice",
          "type": "uint256"
        },
        {
          "name": "endPrice",
          "type": "uint256"
        },
        {
          "name": "startedAt",
          "type": "uint64"
        },
        {
          "name": "royaltyPercentage",
          "type": "uint8"
        }
      ],
      "payable": false,
      "stateMutability": "view",
      "type": "function"
    },
    {
      "constant": true,
      "inputs": [
        {
          "name": "",
          "type": "address"
        }
      ],
      "name": "addrToArtistTokenNumber",
      "outputs": [
        {
          "name": "",
          "type": "uint256"
        }
      ],
      "payable": false,
      "stateMutability": "view",
      "type": "function"
    },
    {
      "constant": true,
      "inputs": [
        {
          "name": "",
          "type": "uint256"
        }
      ],
      "name": "tokenToArtistTokenNumber",
      "outputs": [
        {
          "name": "",
          "type": "uint256"
        }
      ],
      "payable": false,
      "stateMutability": "view",
      "type": "function"
    },
    {
      "constant": true,
      "inputs": [
        {
          "name": "_owner",
          "type": "address"
        },
        {
          "name": "_operator",
          "type": "address"
        }
      ],
      "name": "isApprovedForAll",
      "outputs": [
        {
          "name": "",
          "type": "bool"
        }
      ],
      "payable": false,
      "stateMutability": "view",
      "type": "function"
    },
    {
      "anonymous": false,
      "inputs": [
        {
          "indexed": false,
          "name": "tokenId",
          "type": "uint256"
        },
        {
          "indexed": false,
          "name": "artist",
          "type": "address"
        },
        {
          "indexed": false,
          "name": "startingPrice",
          "type": "uint256"
        },
        {
          "indexed": false,
          "name": "endingPrice",
          "type": "uint256"
        }
      ],
      "name": "AuctionCreated",
      "type": "event"
    },
    {
      "anonymous": false,
      "inputs": [
        {
          "indexed": false,
          "name": "tokenId",
          "type": "uint256"
        },
        {
          "indexed": false,
          "name": "artist",
          "type": "address"
        },
        {
          "indexed": false,
          "name": "totalPrice",
          "type": "uint256"
        },
        {
          "indexed": false,
          "name": "winner",
          "type": "address"
        }
      ],
      "name": "AuctionSuccessful",
      "type": "event"
    },
    {
      "anonymous": false,
      "inputs": [
        {
          "indexed": false,
          "name": "tokenId",
          "type": "uint256"
        }
      ],
      "name": "AuctionCancelled",
      "type": "event"
    },
    {
      "anonymous": false,
      "inputs": [
        {
          "indexed": true,
          "name": "_from",
          "type": "address"
        },
        {
          "indexed": true,
          "name": "_to",
          "type": "address"
        },
        {
          "indexed": false,
          "name": "_tokenId",
          "type": "uint256"
        }
      ],
      "name": "Transfer",
      "type": "event"
    },
    {
      "anonymous": false,
      "inputs": [
        {
          "indexed": true,
          "name": "_owner",
          "type": "address"
        },
        {
          "indexed": true,
          "name": "_approved",
          "type": "address"
        },
        {
          "indexed": false,
          "name": "_tokenId",
          "type": "uint256"
        }
      ],
      "name": "Approval",
      "type": "event"
    },
    {
      "anonymous": false,
      "inputs": [
        {
          "indexed": true,
          "name": "_owner",
          "type": "address"
        },
        {
          "indexed": true,
          "name": "_operator",
          "type": "address"
        },
        {
          "indexed": false,
          "name": "_approved",
          "type": "bool"
        }
      ],
      "name": "ApprovalForAll",
      "type": "event"
    },
    {
      "constant": false,
      "inputs": [
        {
          "name": "_tokenId",
          "type": "uint256"
        },
        {
          "name": "_startingPrice",
          "type": "uint256"
        },
        {
          "name": "_endingPrice",
          "type": "uint256"
        }
      ],
      "name": "createAuction",
      "outputs": [],
      "payable": false,
      "stateMutability": "nonpayable",
      "type": "function"
    },
    {
      "constant": false,
      "inputs": [
        {
          "name": "_tokenId",
          "type": "uint256"
        }
      ],
      "name": "bid",
      "outputs": [],
      "payable": true,
      "stateMutability": "payable",
      "type": "function"
    },
    {
      "constant": false,
      "inputs": [
        {
          "name": "_tokenId",
          "type": "uint256"
        }
      ],
      "name": "cancelAuction",
      "outputs": [],
      "payable": false,
      "stateMutability": "nonpayable",
      "type": "function"
    },
    {
      "constant": true,
      "inputs": [
        {
          "name": "_tokenId",
          "type": "uint256"
        }
      ],
      "name": "getOpenAuction",
      "outputs": [
        {
          "name": "seller",
          "type": "address"
        },
        {
          "name": "artist",
          "type": "address"
        },
        {
          "name": "startingPrice",
          "type": "uint256"
        },
        {
          "name": "endingPrice",
          "type": "uint256"
        },
        {
          "name": "startedAt",
          "type": "uint256"
        },
        {
          "name": "royaltyPercentage",
          "type": "uint256"
        }
      ],
      "payable": false,
      "stateMutability": "view",
      "type": "function"
    },
    {
      "constant": true,
      "inputs": [
        {
          "name": "index",
          "type": "uint256"
        }
      ],
      "name": "getArtistStats",
      "outputs": [
        {
          "name": "artist",
          "type": "address"
        },
        {
          "name": "endingPrice",
          "type": "uint256"
        },
        {
          "name": "endTime",
          "type": "uint64"
        }
      ],
      "payable": false,
      "stateMutability": "view",
      "type": "function"
    }
  ],
  "bytecode": "0x608060405234801561001057600080fd5b5061358f806100206000396000f300608060405260043610610180576000357c0100000000000000000000000000000000000000000000000000000000900463ffffffff168063081812fc14610185578063095ea7b3146101f25780630ee8d85a1461023f5780630f8f9ee1146102e557806318160ddd1461038b57806323b872dd146103b65780632f745c59146104235780633239c60d1461048457806336b84895146104c557806341672a461461050c57806342842e0e146105c8578063454a2ab3146106355780634f558e79146106555780634f6ccce71461069a57806350ec5ace146106db5780636352211e1461083b57806370a08231146108a85780637fc85917146108ff57806384a2166f1461096c5780638aa0fdad146109fb57806396b5a75514610aaa5780639df3365814610ad7578063a22cb46514610b66578063b88d4fde14610bb5578063cda4beef14610c68578063d0afcbe714610ca9578063d47ada7014610d7f578063e6bea79414610dd6578063e985e9c514610e17578063f934f7f914610e92575b600080fd5b34801561019157600080fd5b506101b060048036038101908080359060200190929190505050610f4e565b604051808273ffffffffffffffffffffffffffffffffffffffff1673ffffffffffffffffffffffffffffffffffffffff16815260200191505060405180910390f35b3480156101fe57600080fd5b5061023d600480360381019080803573ffffffffffffffffffffffffffffffffffffffff16906020019092919080359060200190929190505050610f8b565b005b34801561024b57600080fd5b5061026a60048036038101908080359060200190929190505050611151565b6040518080602001828103825283818151815260200191508051906020019080838360005b838110156102aa57808201518184015260208101905061028f565b50505050905090810190601f1680156102d75780820380516001836020036101000a031916815260200191505b509250505060405180910390f35b3480156102f157600080fd5b5061031060048036038101908080359060200190929190505050611201565b6040518080602001828103825283818151815260200191508051906020019080838360005b83811015610350578082015181840152602081019050610335565b50505050905090810190601f16801561037d5780820380516001836020036101000a031916815260200191505b509250505060405180910390f35b34801561039757600080fd5b506103a06112b1565b6040518082815260200191505060405180910390f35b3480156103c257600080fd5b50610421600480360381019080803573ffffffffffffffffffffffffffffffffffffffff169060200190929190803573ffffffffffffffffffffffffffffffffffffffff169060200190929190803590602001909291905050506112be565b005b34801561042f57600080fd5b5061046e600480360381019080803573ffffffffffffffffffffffffffffffffffffffff169060200190929190803590602001909291905050506113d5565b6040518082815260200191505060405180910390f35b34801561049057600080fd5b506104af6004803603810190808035906020019092919050505061144c565b6040518082815260200191505060405180910390f35b3480156104d157600080fd5b506104f060048036038101908080359060200190929190505050611464565b604051808260ff1660ff16815260200191505060405180910390f35b34801561051857600080fd5b506105c6600480360381019080803590602001908201803590602001908080601f0160208091040260200160405190810160405280939291908181526020018383808284378201915050505050509192919290803590602001908201803590602001908080601f0160208091040260200160405190810160405280939291908181526020018383808284378201915050505050509192919290803560ff169060200190929190505050611484565b005b3480156105d457600080fd5b50610633600480360381019080803573ffffffffffffffffffffffffffffffffffffffff169060200190929190803573ffffffffffffffffffffffffffffffffffffffff169060200190929190803590602001909291905050506114db565b005b61065360048036038101908080359060200190929190505050611513565b005b34801561066157600080fd5b506106806004803603810190808035906020019092919050505061152b565b604051808215151515815260200191505060405180910390f35b3480156106a657600080fd5b506106c56004803603810190808035906020019092919050505061159c565b6040518082815260200191505060405180910390f35b3480156106e757600080fd5b50610706600480360381019080803590602001909291905050506115d4565b6040518080602001806020018773ffffffffffffffffffffffffffffffffffffffff1673ffffffffffffffffffffffffffffffffffffffff1681526020018681526020018581526020018460ff1660ff168152602001838103835289818151815260200191508051906020019080838360005b83811015610794578082015181840152602081019050610779565b50505050905090810190601f1680156107c15780820380516001836020036101000a031916815260200191505b50838103825288818151815260200191508051906020019080838360005b838110156107fa5780820151818401526020810190506107df565b50505050905090810190601f1680156108275780820380516001836020036101000a031916815260200191505b509850505050505050505060405180910390f35b34801561084757600080fd5b50610866600480360381019080803590602001909291905050506117e2565b604051808273ffffffffffffffffffffffffffffffffffffffff1673ffffffffffffffffffffffffffffffffffffffff16815260200191505060405180910390f35b3480156108b457600080fd5b506108e9600480360381019080803573ffffffffffffffffffffffffffffffffffffffff16906020019092919050505061185f565b6040518082815260200191505060405180910390f35b34801561090b57600080fd5b5061092a600480360381019080803590602001909291905050506118e3565b604051808273ffffffffffffffffffffffffffffffffffffffff1673ffffffffffffffffffffffffffffffffffffffff16815260200191505060405180910390f35b34801561097857600080fd5b5061099760048036038101908080359060200190929190505050611916565b604051808473ffffffffffffffffffffffffffffffffffffffff1673ffffffffffffffffffffffffffffffffffffffff1681526020018381526020018267ffffffffffffffff1667ffffffffffffffff168152602001935050505060405180910390f35b348015610a0757600080fd5b50610aa8600480360381019080803590602001908201803590602001908080601f0160208091040260200160405190810160405280939291908181526020018383808284378201915050505050509192919290803590602001908201803590602001908080601f0160208091040260200160405190810160405280939291908181526020018383808284378201915050505050509192919290505050611983565b005b348015610ab657600080fd5b50610ad560048036038101908080359060200190929190505050611d07565b005b348015610ae357600080fd5b50610b0260048036038101908080359060200190929190505050611da3565b604051808473ffffffffffffffffffffffffffffffffffffffff1673ffffffffffffffffffffffffffffffffffffffff1681526020018381526020018267ffffffffffffffff1667ffffffffffffffff168152602001935050505060405180910390f35b348015610b7257600080fd5b50610bb3600480360381019080803573ffffffffffffffffffffffffffffffffffffffff169060200190929190803515159060200190929190505050611e19565b005b348015610bc157600080fd5b50610c66600480360381019080803573ffffffffffffffffffffffffffffffffffffffff169060200190929190803573ffffffffffffffffffffffffffffffffffffffff16906020019092919080359060200190929190803590602001908201803590602001908080601f0160208091040260200160405190810160405280939291908181526020018383808284378201915050505050509192919290505050611f55565b005b348015610c7457600080fd5b50610ca7600480360381019080803590602001909291908035906020019092919080359060200190929190505050611f94565b005b348015610cb557600080fd5b50610cd460048036038101908080359060200190929190505050612101565b604051808773ffffffffffffffffffffffffffffffffffffffff1673ffffffffffffffffffffffffffffffffffffffff1681526020018673ffffffffffffffffffffffffffffffffffffffff1673ffffffffffffffffffffffffffffffffffffffff1681526020018581526020018481526020018367ffffffffffffffff1667ffffffffffffffff1681526020018260ff1660ff168152602001965050505050505060405180910390f35b348015610d8b57600080fd5b50610dc0600480360381019080803573ffffffffffffffffffffffffffffffffffffffff16906020019092919050505061219e565b6040518082815260200191505060405180910390f35b348015610de257600080fd5b50610e01600480360381019080803590602001909291905050506121b6565b6040518082815260200191505060405180910390f35b348015610e2357600080fd5b50610e78600480360381019080803573ffffffffffffffffffffffffffffffffffffffff169060200190929190803573ffffffffffffffffffffffffffffffffffffffff1690602001909291905050506121ce565b604051808215151515815260200191505060405180910390f35b348015610e9e57600080fd5b50610ebd60048036038101908080359060200190929190505050612262565b604051808773ffffffffffffffffffffffffffffffffffffffff1673ffffffffffffffffffffffffffffffffffffffff1681526020018673ffffffffffffffffffffffffffffffffffffffff1673ffffffffffffffffffffffffffffffffffffffff168152602001858152602001848152602001838152602001828152602001965050505050505060405180910390f35b60006001600083815260200190815260200160002060009054906101000a900473ffffffffffffffffffffffffffffffffffffffff169050919050565b6000610f96826117e2565b90508073ffffffffffffffffffffffffffffffffffffffff168373ffffffffffffffffffffffffffffffffffffffff1614151515610fd357600080fd5b8073ffffffffffffffffffffffffffffffffffffffff163373ffffffffffffffffffffffffffffffffffffffff161480611013575061101281336121ce565b5b151561101e57600080fd5b600073ffffffffffffffffffffffffffffffffffffffff1661103f83610f4e565b73ffffffffffffffffffffffffffffffffffffffff1614158061108f5750600073ffffffffffffffffffffffffffffffffffffffff168373ffffffffffffffffffffffffffffffffffffffff1614155b1561114c57826001600084815260200190815260200160002060006101000a81548173ffffffffffffffffffffffffffffffffffffffff021916908373ffffffffffffffffffffffffffffffffffffffff1602179055508273ffffffffffffffffffffffffffffffffffffffff168173ffffffffffffffffffffffffffffffffffffffff167f8c5be1e5ebec7d5bd14f71427d1e84f3dd0314c0f7b2291e5b200ac8c7c3b925846040518082815260200191505060405180910390a35b505050565b600b6020528060005260406000206000915090508054600181600116156101000203166002900480601f0160208091040260200160405190810160405280929190818152602001828054600181600116156101000203166002900480156111f95780601f106111ce576101008083540402835291602001916111f9565b820191906000526020600020905b8154815290600101906020018083116111dc57829003601f168201915b505050505081565b600a6020528060005260406000206000915090508054600181600116156101000203166002900480601f0160208091040260200160405190810160405280929190818152602001828054600181600116156101000203166002900480156112a95780601f1061127e576101008083540402835291602001916112a9565b820191906000526020600020905b81548152906001019060200180831161128c57829003601f168201915b505050505081565b6000600480549050905090565b806112c9338261233e565b15156112d457600080fd5b600073ffffffffffffffffffffffffffffffffffffffff168473ffffffffffffffffffffffffffffffffffffffff161415151561131057600080fd5b600073ffffffffffffffffffffffffffffffffffffffff168373ffffffffffffffffffffffffffffffffffffffff161415151561134c57600080fd5b61135684836123d3565b611360848361253c565b61136a8383612754565b8273ffffffffffffffffffffffffffffffffffffffff168473ffffffffffffffffffffffffffffffffffffffff167fddf252ad1be2c89b69c2b068fc378daa952ba7f163c4a11628f55a4df523b3ef846040518082815260200191505060405180910390a350505050565b60006113e08361185f565b821015156113ed57600080fd5b600560008473ffffffffffffffffffffffffffffffffffffffff1673ffffffffffffffffffffffffffffffffffffffff1681526020019081526020016000208281548110151561143957fe5b9060005260206000200154905092915050565b600e6020528060005260406000206000915090505481565b600f6020528060005260406000206000915054906101000a900460ff1681565b600060058260ff161115151561149957600080fd5b60008260ff161115156114ab57600080fd5b600090505b8160ff168160ff1610156114d5576114c88484611983565b80806001019150506114b0565b50505050565b806114e6338261233e565b15156114f157600080fd5b61150d8484846020604051908101604052806000815250611f55565b50505050565b61151d813461282b565b506115283382612b62565b50565b60008060008084815260200190815260200160002060009054906101000a900473ffffffffffffffffffffffffffffffffffffffff169050600073ffffffffffffffffffffffffffffffffffffffff168173ffffffffffffffffffffffffffffffffffffffff161415915050919050565b60006115a66112b1565b821015156115b357600080fd5b6007828154811015156115c257fe5b90600052602060002001549050919050565b6060806000806000806115e56112b1565b871015156115f257600080fd5b600a6000888152602001908152602001600020600b6000898152602001908152602001600020600c60008a815260200190815260200160002060009054906101000a900473ffffffffffffffffffffffffffffffffffffffff16600d60008b815260200190815260200160002054600e60008c815260200190815260200160002054600f60008d815260200190815260200160002060009054906101000a900460ff16858054600181600116156101000203166002900480601f01602080910402602001604051908101604052809291908181526020018280546001816001161561010002031660029004801561172a5780601f106116ff5761010080835404028352916020019161172a565b820191906000526020600020905b81548152906001019060200180831161170d57829003601f168201915b50505050509550848054600181600116156101000203166002900480601f0160208091040260200160405190810160405280929190818152602001828054600181600116156101000203166002900480156117c65780601f1061179b576101008083540402835291602001916117c6565b820191906000526020600020905b8154815290600101906020018083116117a957829003601f168201915b5050505050945095509550955095509550955091939550919395565b60008060008084815260200190815260200160002060009054906101000a900473ffffffffffffffffffffffffffffffffffffffff169050600073ffffffffffffffffffffffffffffffffffffffff168173ffffffffffffffffffffffffffffffffffffffff161415151561185657600080fd5b80915050919050565b60008073ffffffffffffffffffffffffffffffffffffffff168273ffffffffffffffffffffffffffffffffffffffff161415151561189c57600080fd5b600260008373ffffffffffffffffffffffffffffffffffffffff1673ffffffffffffffffffffffffffffffffffffffff168152602001908152602001600020549050919050565b600c6020528060005260406000206000915054906101000a900473ffffffffffffffffffffffffffffffffffffffff1681565b60118181548110151561192557fe5b90600052602060002090600302016000915090508060000160009054906101000a900473ffffffffffffffffffffffffffffffffffffffff16908060010154908060020160009054906101000a900467ffffffffffffffff16905083565b60008060008061199833600480549050612b71565b429350600960003373ffffffffffffffffffffffffffffffffffffffff1673ffffffffffffffffffffffffffffffffffffffff1681526020019081526020016000205492506004805490506008600083815260200190815260200160002081905550600781908060018154018082558091505090600182039060005260206000200160009091929091909150555060059150611b696001600460c0604051908101604052808a81526020018981526020013373ffffffffffffffffffffffffffffffffffffffff1681526020018781526020018881526020018660ff16815250908060018154018082558091505090600182039060005260206000209060060201600090919290919091506000820151816000019080519060200190611abf9291906133a2565b506020820151816001019080519060200190611adc9291906133a2565b5060408201518160020160006101000a81548173ffffffffffffffffffffffffffffffffffffffff021916908373ffffffffffffffffffffffffffffffffffffffff160217905550606082015181600301556080820151816004015560a08201518160050160006101000a81548160ff021916908360ff1602179055505050612c2190919063ffffffff16565b9050611bbe6001600960003373ffffffffffffffffffffffffffffffffffffffff1673ffffffffffffffffffffffffffffffffffffffff16815260200190815260200160002054612c3a90919063ffffffff16565b600960003373ffffffffffffffffffffffffffffffffffffffff1673ffffffffffffffffffffffffffffffffffffffff1681526020019081526020016000208190555085600a60008381526020019081526020016000209080519060200190611c28929190613422565b5084600b60008381526020019081526020016000209080519060200190611c50929190613422565b5033600c600083815260200190815260200160002060006101000a81548173ffffffffffffffffffffffffffffffffffffffff021916908373ffffffffffffffffffffffffffffffffffffffff16021790555082600d60008381526020019081526020016000208190555083600e60008381526020019081526020016000208190555081600f600083815260200190815260200160002060006101000a81548160ff021916908360ff160217905550505050505050565b600080601060008481526020019081526020016000209150611d2882612c56565b1515611d3357600080fd5b8160000160009054906101000a900473ffffffffffffffffffffffffffffffffffffffff1690508073ffffffffffffffffffffffffffffffffffffffff163373ffffffffffffffffffffffffffffffffffffffff16141515611d9457600080fd5b611d9e8382612c84565b505050565b600080600080601185815481101515611db857fe5b906000526020600020906003020190508060000160009054906101000a900473ffffffffffffffffffffffffffffffffffffffff1681600101548260020160009054906101000a900467ffffffffffffffff16935093509350509193909250565b3373ffffffffffffffffffffffffffffffffffffffff168273ffffffffffffffffffffffffffffffffffffffff1614151515611e5457600080fd5b80600360003373ffffffffffffffffffffffffffffffffffffffff1673ffffffffffffffffffffffffffffffffffffffff16815260200190815260200160002060008473ffffffffffffffffffffffffffffffffffffffff1673ffffffffffffffffffffffffffffffffffffffff16815260200190815260200160002060006101000a81548160ff0219169083151502179055508173ffffffffffffffffffffffffffffffffffffffff163373ffffffffffffffffffffffffffffffffffffffff167f17307eab39ab6107e8899845ad3d59bd9653f200f220920489ca2b5937696c3183604051808215151515815260200191505060405180910390a35050565b81611f60338261233e565b1515611f6b57600080fd5b611f768585856112be565b611f8285858585612cd2565b1515611f8d57600080fd5b5050505050565b600080611f9f6134a2565b853373ffffffffffffffffffffffffffffffffffffffff16611fc0826117e2565b73ffffffffffffffffffffffffffffffffffffffff16141515611fe257600080fd5b856fffffffffffffffffffffffffffffffff168614151561200257600080fd5b846fffffffffffffffffffffffffffffffff168514151561202257600080fd5b61202c3388612ec0565b600c600088815260200190815260200160002060009054906101000a900473ffffffffffffffffffffffffffffffffffffffff169350600f600088815260200190815260200160002060009054906101000a900460ff16925060c0604051908101604052803373ffffffffffffffffffffffffffffffffffffffff1681526020018573ffffffffffffffffffffffffffffffffffffffff1681526020018781526020018681526020014267ffffffffffffffff1681526020018460ff1681525091506120f88783612ecf565b50505050505050565b60106020528060005260406000206000915090508060000160009054906101000a900473ffffffffffffffffffffffffffffffffffffffff16908060010160009054906101000a900473ffffffffffffffffffffffffffffffffffffffff16908060020154908060030154908060040160009054906101000a900467ffffffffffffffff16908060040160089054906101000a900460ff16905086565b60096020528060005260406000206000915090505481565b600d6020528060005260406000206000915090505481565b6000600360008473ffffffffffffffffffffffffffffffffffffffff1673ffffffffffffffffffffffffffffffffffffffff16815260200190815260200160002060008373ffffffffffffffffffffffffffffffffffffffff1673ffffffffffffffffffffffffffffffffffffffff16815260200190815260200160002060009054906101000a900460ff16905092915050565b600080600080600080600060106000898152602001908152602001600020905061228b81612c56565b151561229657600080fd5b8060000160009054906101000a900473ffffffffffffffffffffffffffffffffffffffff168160010160009054906101000a900473ffffffffffffffffffffffffffffffffffffffff16826002015483600301548460040160009054906101000a900467ffffffffffffffff168560040160089054906101000a900460ff168167ffffffffffffffff1691508060ff1690509650965096509650965096505091939550919395565b60008061234a836117e2565b90508073ffffffffffffffffffffffffffffffffffffffff168473ffffffffffffffffffffffffffffffffffffffff1614806123b957508373ffffffffffffffffffffffffffffffffffffffff166123a184610f4e565b73ffffffffffffffffffffffffffffffffffffffff16145b806123ca57506123c981856121ce565b5b91505092915050565b8173ffffffffffffffffffffffffffffffffffffffff166123f3826117e2565b73ffffffffffffffffffffffffffffffffffffffff1614151561241557600080fd5b600073ffffffffffffffffffffffffffffffffffffffff166001600083815260200190815260200160002060009054906101000a900473ffffffffffffffffffffffffffffffffffffffff1673ffffffffffffffffffffffffffffffffffffffff161415156125385760006001600083815260200190815260200160002060006101000a81548173ffffffffffffffffffffffffffffffffffffffff021916908373ffffffffffffffffffffffffffffffffffffffff160217905550600073ffffffffffffffffffffffffffffffffffffffff168273ffffffffffffffffffffffffffffffffffffffff167f8c5be1e5ebec7d5bd14f71427d1e84f3dd0314c0f7b2291e5b200ac8c7c3b925836040518082815260200191505060405180910390a35b5050565b600080600061254b8585613063565b600660008581526020019081526020016000205492506125b76001600560008873ffffffffffffffffffffffffffffffffffffffff1673ffffffffffffffffffffffffffffffffffffffff16815260200190815260200160002080549050612c2190919063ffffffff16565b9150600560008673ffffffffffffffffffffffffffffffffffffffff1673ffffffffffffffffffffffffffffffffffffffff1681526020019081526020016000208281548110151561260557fe5b9060005260206000200154905080600560008773ffffffffffffffffffffffffffffffffffffffff1673ffffffffffffffffffffffffffffffffffffffff1681526020019081526020016000208481548110151561265f57fe5b90600052602060002001819055506000600560008773ffffffffffffffffffffffffffffffffffffffff1673ffffffffffffffffffffffffffffffffffffffff168152602001908152602001600020838154811015156126bb57fe5b9060005260206000200181905550600560008673ffffffffffffffffffffffffffffffffffffffff1673ffffffffffffffffffffffffffffffffffffffff16815260200190815260200160002080548091906001900361271b9190613512565b50600060066000868152602001908152602001600020819055508260066000838152602001908152602001600020819055505050505050565b60006127608383613191565b600560008473ffffffffffffffffffffffffffffffffffffffff1673ffffffffffffffffffffffffffffffffffffffff168152602001908152602001600020805490509050600560008473ffffffffffffffffffffffffffffffffffffffff1673ffffffffffffffffffffffffffffffffffffffff168152602001908152602001600020829080600181540180825580915050906001820390600052602060002001600090919290919091505550806006600084815260200190815260200160002081905550505050565b600080600080600080600080600080601060008d8152602001908152602001600020985061285889612c56565b151561286357600080fd5b88600201549750878b1015151561287957600080fd5b8860000160009054906101000a900473ffffffffffffffffffffffffffffffffffffffff1696508860010160009054906101000a900473ffffffffffffffffffffffffffffffffffffffff1695508a94508860040160009054906101000a900467ffffffffffffffff1667ffffffffffffffff1693508860040160089054906101000a900460ff1660ff16925061290f8c6132e9565b6000881115612aa957606483890281151561292657fe5b04915081880390508673ffffffffffffffffffffffffffffffffffffffff166108fc829081150290604051600060405180830381858888f19350505050158015612974573d6000803e3d6000fd5b508573ffffffffffffffffffffffffffffffffffffffff166108fc839081150290604051600060405180830381858888f193505050501580156129bb573d6000803e3d6000fd5b5060116060604051908101604052808873ffffffffffffffffffffffffffffffffffffffff1681526020018781526020014267ffffffffffffffff168152509080600181540180825580915050906001820390600052602060002090600302016000909192909190915060008201518160000160006101000a81548173ffffffffffffffffffffffffffffffffffffffff021916908373ffffffffffffffffffffffffffffffffffffffff1602179055506020820151816001015560408201518160020160006101000a81548167ffffffffffffffff021916908367ffffffffffffffff1602179055505050505b7fafdeeac496c85b58d5787e2bdf4629388231070f6b20208fc37abbf14e7504c18c878733604051808581526020018473ffffffffffffffffffffffffffffffffffffffff1673ffffffffffffffffffffffffffffffffffffffff1681526020018381526020018273ffffffffffffffffffffffffffffffffffffffff1673ffffffffffffffffffffffffffffffffffffffff16815260200194505050505060405180910390a184995050505050505050505092915050565b612b6d3083836112be565b5050565b600073ffffffffffffffffffffffffffffffffffffffff168273ffffffffffffffffffffffffffffffffffffffff1614151515612bad57600080fd5b612bb78282612754565b8173ffffffffffffffffffffffffffffffffffffffff16600073ffffffffffffffffffffffffffffffffffffffff167fddf252ad1be2c89b69c2b068fc378daa952ba7f163c4a11628f55a4df523b3ef836040518082815260200191505060405180910390a35050565b6000828211151515612c2f57fe5b818303905092915050565b60008183019050828110151515612c4d57fe5b80905092915050565b6000808260040160009054906101000a900467ffffffffffffffff1667ffffffffffffffff16119050919050565b612c8d826132e9565b612c978183612b62565b7f2809c7e17bf978fbc7194c0a694b638c4215e9140cacc6c38ca36010b45697df826040518082815260200191505060405180910390a15050565b600080612cf48573ffffffffffffffffffffffffffffffffffffffff1661338f565b1515612d035760019150612eb7565b8473ffffffffffffffffffffffffffffffffffffffff1663f0b9e5ba8786866040518463ffffffff167c0100000000000000000000000000000000000000000000000000000000028152600401808473ffffffffffffffffffffffffffffffffffffffff1673ffffffffffffffffffffffffffffffffffffffff16815260200183815260200180602001828103825283818151815260200191508051906020019080838360005b83811015612dc5578082015181840152602081019050612daa565b50505050905090810190601f168015612df25780820380516001836020036101000a031916815260200191505b50945050505050602060405180830381600087803b158015612e1357600080fd5b505af1158015612e27573d6000803e3d6000fd5b505050506040513d6020811015612e3d57600080fd5b8101908080519060200190929190505050905063f0b9e5ba7c0100000000000000000000000000000000000000000000000000000000027bffffffffffffffffffffffffffffffffffffffffffffffffffffffff1916817bffffffffffffffffffffffffffffffffffffffffffffffffffffffff19161491505b50949350505050565b612ecb8230836112be565b5050565b806010600084815260200190815260200160002060008201518160000160006101000a81548173ffffffffffffffffffffffffffffffffffffffff021916908373ffffffffffffffffffffffffffffffffffffffff16021790555060208201518160010160006101000a81548173ffffffffffffffffffffffffffffffffffffffff021916908373ffffffffffffffffffffffffffffffffffffffff160217905550604082015181600201556060820151816003015560808201518160040160006101000a81548167ffffffffffffffff021916908367ffffffffffffffff16021790555060a08201518160040160086101000a81548160ff021916908360ff1602179055509050507fc9050d42180a61cb0d9ebb8ad118b62fe6eab12cf12ff752c4a0cc7da9ddf62782826020015183604001518460600151604051808581526020018473ffffffffffffffffffffffffffffffffffffffff1673ffffffffffffffffffffffffffffffffffffffff16815260200183815260200182815260200194505050505060405180910390a15050565b8173ffffffffffffffffffffffffffffffffffffffff16613083826117e2565b73ffffffffffffffffffffffffffffffffffffffff161415156130a557600080fd5b6130f86001600260008573ffffffffffffffffffffffffffffffffffffffff1673ffffffffffffffffffffffffffffffffffffffff16815260200190815260200160002054612c2190919063ffffffff16565b600260008473ffffffffffffffffffffffffffffffffffffffff1673ffffffffffffffffffffffffffffffffffffffff16815260200190815260200160002081905550600080600083815260200190815260200160002060006101000a81548173ffffffffffffffffffffffffffffffffffffffff021916908373ffffffffffffffffffffffffffffffffffffffff1602179055505050565b600073ffffffffffffffffffffffffffffffffffffffff1660008083815260200190815260200160002060009054906101000a900473ffffffffffffffffffffffffffffffffffffffff1673ffffffffffffffffffffffffffffffffffffffff161415156131fe57600080fd5b8160008083815260200190815260200160002060006101000a81548173ffffffffffffffffffffffffffffffffffffffff021916908373ffffffffffffffffffffffffffffffffffffffff1602179055506132a26001600260008573ffffffffffffffffffffffffffffffffffffffff1673ffffffffffffffffffffffffffffffffffffffff16815260200190815260200160002054612c3a90919063ffffffff16565b600260008473ffffffffffffffffffffffffffffffffffffffff1673ffffffffffffffffffffffffffffffffffffffff168152602001908152602001600020819055505050565b60106000828152602001908152602001600020600080820160006101000a81549073ffffffffffffffffffffffffffffffffffffffff02191690556001820160006101000a81549073ffffffffffffffffffffffffffffffffffffffff0219169055600282016000905560038201600090556004820160006101000a81549067ffffffffffffffff02191690556004820160086101000a81549060ff0219169055505050565b600080823b905060008111915050919050565b828054600181600116156101000203166002900490600052602060002090601f016020900481019282601f106133e357805160ff1916838001178555613411565b82800160010185558215613411579182015b828111156134105782518255916020019190600101906133f5565b5b50905061341e919061353e565b5090565b828054600181600116156101000203166002900490600052602060002090601f016020900481019282601f1061346357805160ff1916838001178555613491565b82800160010185558215613491579182015b82811115613490578251825591602001919060010190613475565b5b50905061349e919061353e565b5090565b60c060405190810160405280600073ffffffffffffffffffffffffffffffffffffffff168152602001600073ffffffffffffffffffffffffffffffffffffffff1681526020016000815260200160008152602001600067ffffffffffffffff168152602001600060ff1681525090565b81548183558181111561353957818360005260206000209182019101613538919061353e565b5b505050565b61356091905b8082111561355c576000816000905550600101613544565b5090565b905600a165627a7a723058200061c0bad4924483b49f85aa6aac561ff6ab0b2ca73d8f3ab2900da256d674330029",
  "source": "pragma solidity ^0.4.21;\n\nimport \"./ERC721Basic.sol\";\nimport \"./ArtistToken.sol\";\n\ncontract TokenAuction is ArtistToken {\n  \n  struct Auction {\n    address seller;\n    address artist;\n    uint256 startPrice;\n    uint256 endPrice;\n    uint64 startedAt;\n    uint8 royaltyPercentage;\n  }\n\n\tstruct ArtistStats {\n\t\taddress artist;\n\t\tuint256 endPrice;\n\t\tuint64 endTime;\n\t}\n\n  // Open Auctions\n  mapping (uint256 => Auction) public tokenIdToOpenAuction;\n\n\tArtistStats[] public artistStats;\n  \n\n  event AuctionCreated(uint256 tokenId, address artist, uint256 startingPrice, uint256 endingPrice);\n  event AuctionSuccessful(uint256 tokenId, address artist, uint256 totalPrice, address winner);\n  event AuctionCancelled(uint256 tokenId);\n\n  // escrow the NFT assigns ownership to contract\n  function _escrow(address _owner, uint256 _tokenId) internal {\n  ERC721BasicToken.transferFrom(_owner, this, _tokenId);\n  }\n\n  // transfer NFT owned by contract to another address\n  function _transfer(address _receiver, uint256 _tokenId) internal {\n    ERC721BasicToken.transferFrom(this, _receiver, _tokenId);\n  }\n\n  // add auction\n  function _addAuction(uint256 _tokenId, Auction _auction) internal {\n    tokenIdToOpenAuction[_tokenId] = _auction;\n    emit AuctionCreated(\n      uint256(_tokenId),\n      address(_auction.artist),\n      uint256(_auction.startPrice),\n      uint256(_auction.endPrice)\n    );\n  }\n\n  function _removeAuction(uint256 _tokenId) internal {\n    delete tokenIdToOpenAuction[_tokenId];\n  }\n\n  function _cancelAuction(uint256 _tokenId, address _seller) internal {\n    _removeAuction(_tokenId);\n    _transfer(_seller, _tokenId);\n    emit AuctionCancelled(_tokenId);\n  } \n\n  function _isOnAuction(Auction storage _auction) internal view returns (bool) {\n    return (_auction.startedAt > 0);\n  }\n\n  function _bid(uint256 _tokenId, uint256 _bidAmount)\n    internal returns (uint256) {\n\n    Auction storage auction = tokenIdToOpenAuction[_tokenId];\n    require(_isOnAuction(auction));\n    uint256 price = auction.startPrice;\n    require(_bidAmount >= price);\n    // save values\n    address seller = auction.seller;\n    address artist = auction.artist; \n    uint256 endPrice = _bidAmount;\n    uint256 startedAt = uint256(auction.startedAt);\n    uint256 royaltyPercentage = uint256(auction.royaltyPercentage);\n    _removeAuction(_tokenId);\n\n    if (price > 0) {\n      uint256 artistCut = price * royaltyPercentage/100; \n      uint256 sellerProceeds = price - artistCut;\n      seller.transfer(sellerProceeds);\n      artist.transfer(artistCut);\n\n\t  artistStats.push(ArtistStats(artist, endPrice, uint64(now)));\n    }\n    \n    emit AuctionSuccessful(_tokenId, artist, endPrice, msg.sender);\n\n    return endPrice;\n    \n  }\n\n\n  function createAuction(\n    uint256 _tokenId,\n    uint256 _startingPrice,\n    uint256 _endingPrice\n  ) public onlyOwnerOf(_tokenId) {\n\n\t\trequire(_startingPrice == uint256(uint128(_startingPrice)));\n\t\trequire(_endingPrice == uint256(uint128(_endingPrice)));\n\n\t\t_escrow(msg.sender, _tokenId);\n\t\taddress _artist = ArtistToken.tokenToArtistAddress[_tokenId];\n\t\tuint8 _royaltyPercentage = ArtistToken.tokenToRoyaltyPercentage[_tokenId];\n\n\t\tAuction memory auction = Auction(\n\t\t\tmsg.sender,\n\t\t\t_artist,\n\t\t\t_startingPrice,\n\t\t\t_endingPrice,\n\t\t\tuint64(now),\n\t\t\tuint8(_royaltyPercentage)\n\t\t);\n    \n\t\t_addAuction(_tokenId, auction);\n  }\n\n\tfunction bid(uint256 _tokenId) external payable {\n    _bid(_tokenId, msg.value);\n    _transfer(msg.sender, _tokenId);\n\t}\n\n  function cancelAuction(uint256 _tokenId) public {\n    Auction storage auction = tokenIdToOpenAuction[_tokenId];\n    require(_isOnAuction(auction));\n    address seller = auction.seller;\n    require(msg.sender == seller);\n    _cancelAuction(_tokenId, seller);\n  }\n\n  function getOpenAuction(uint256 _tokenId)\n    external\n    view\n    returns\n  (\n    address seller,\n    address artist,\n    uint256 startingPrice,\n    uint256 endingPrice,\n    uint256 startedAt,\n    uint256 royaltyPercentage\n  ) {\n    Auction storage auction = tokenIdToOpenAuction[_tokenId];\n    require(_isOnAuction(auction));\n    return (\n      auction.seller,\n\t  auction.artist,\n      auction.startPrice,\n      auction.endPrice,\n      auction.startedAt,\n\t  auction.royaltyPercentage\n    );\n      \n  }\n    \n  function getArtistStats(uint256 index)\n    external\n    view\n    returns\n  (\n    address artist,\n    uint256 endingPrice,\n    uint64 endTime\n  ) {\n    ArtistStats storage stats = artistStats[index];\n    return (\n\t  stats.artist,\n      stats.endPrice,\n      stats.endTime\n    );\n    }\n}\n",
  "sourcePath": "/home/ada/WebApp/smackathon/contracts/TokenAuction.sol",
  "compiler": {
    "name": "solc",
    "version": "0.4.23+commit.124ca40d.Emscripten.clang"
  },
  "schemaVersion": "2.0.0",
  "updatedAt": "2018-05-24T19:59:42.350Z"
}